{
  "address": "0x1ee3e77A522DfD7fAf626373D1B1Dcf5A29297BF",
  "abi": [
    {
      "inputs": [
        {
          "internalType": "address",
          "name": "_WETH",
          "type": "address"
        },
        {
          "internalType": "address",
          "name": "_protocolFeeReceiver",
          "type": "address"
        }
      ],
      "stateMutability": "nonpayable",
      "type": "constructor"
    },
    {
      "anonymous": false,
      "inputs": [
        {
          "indexed": true,
          "internalType": "address",
          "name": "previousOwner",
          "type": "address"
        },
        {
          "indexed": true,
          "internalType": "address",
          "name": "newOwner",
          "type": "address"
        }
      ],
      "name": "OwnershipTransferred",
      "type": "event"
    },
    {
      "inputs": [],
      "name": "EIP712_DOMAIN_SEPARATOR",
      "outputs": [
        {
          "internalType": "bytes32",
          "name": "",
          "type": "bytes32"
        }
      ],
      "stateMutability": "view",
      "type": "function"
    },
    {
      "inputs": [],
      "name": "WETH",
      "outputs": [
        {
          "internalType": "address",
          "name": "",
          "type": "address"
        }
      ],
      "stateMutability": "view",
      "type": "function"
    },
    {
      "inputs": [
        {
          "internalType": "uint256[]",
          "name": "buyOrderNonces",
          "type": "uint256[]"
        }
      ],
      "name": "cancelBuyOrders",
      "outputs": [],
      "stateMutability": "nonpayable",
      "type": "function"
    },
    {
      "inputs": [
        {
          "internalType": "uint256",
          "name": "_protocolFeeFraction",
          "type": "uint256"
        }
      ],
      "name": "changeProtocolFeeFraction",
      "outputs": [],
      "stateMutability": "nonpayable",
      "type": "function"
    },
    {
      "inputs": [
        {
          "internalType": "address",
          "name": "_protocolFeeReceiver",
          "type": "address"
        }
      ],
      "name": "changeProtocolFeeReceiver",
      "outputs": [],
      "stateMutability": "nonpayable",
      "type": "function"
    },
    {
      "inputs": [
        {
          "components": [
            {
              "internalType": "address",
              "name": "signer",
              "type": "address"
            },
            {
              "internalType": "address",
              "name": "collection",
              "type": "address"
            },
            {
              "internalType": "uint256",
              "name": "executionId",
              "type": "uint256"
            },
            {
              "internalType": "uint256",
              "name": "contribution",
              "type": "uint256"
            },
            {
              "internalType": "uint256",
              "name": "buyPrice",
              "type": "uint256"
            },
            {
              "internalType": "uint256",
              "name": "buyPriceEndTime",
              "type": "uint256"
            },
            {
              "internalType": "uint256",
              "name": "buyNonce",
              "type": "uint256"
            },
            {
              "internalType": "address",
              "name": "delegate",
              "type": "address"
            },
            {
              "internalType": "uint8",
              "name": "v",
              "type": "uint8"
            },
            {
              "internalType": "bytes32",
              "name": "r",
              "type": "bytes32"
            },
            {
              "internalType": "bytes32",
              "name": "s",
              "type": "bytes32"
            }
          ],
          "internalType": "struct BuyOrderV1[]",
          "name": "buyOrders",
          "type": "tuple[]"
        },
        {
          "internalType": "uint256",
          "name": "executorPrice",
          "type": "uint256"
        },
        {
          "internalType": "uint256",
          "name": "tokenId",
          "type": "uint256"
        }
      ],
      "name": "executeOnPassiveBuyOrders",
      "outputs": [],
      "stateMutability": "nonpayable",
      "type": "function"
    },
    {
      "inputs": [
        {
          "internalType": "uint256",
          "name": "",
          "type": "uint256"
        }
      ],
      "name": "executions",
      "outputs": [
        {
          "internalType": "address",
          "name": "collection",
          "type": "address"
        },
        {
          "internalType": "uint256",
          "name": "buyPrice",
          "type": "uint256"
        },
        {
          "internalType": "uint256",
          "name": "tokenId",
          "type": "uint256"
        }
      ],
      "stateMutability": "view",
      "type": "function"
    },
    {
      "inputs": [
        {
          "internalType": "address",
          "name": "",
          "type": "address"
        },
        {
          "internalType": "uint256",
          "name": "",
          "type": "uint256"
        }
      ],
      "name": "isUsedBuyNonce",
      "outputs": [
        {
          "internalType": "bool",
          "name": "",
          "type": "bool"
        }
      ],
      "stateMutability": "view",
      "type": "function"
    },
    {
      "inputs": [],
      "name": "owner",
      "outputs": [
        {
          "internalType": "address",
          "name": "",
          "type": "address"
        }
      ],
      "stateMutability": "view",
      "type": "function"
    },
    {
      "inputs": [],
      "name": "protocolFeeFraction",
      "outputs": [
        {
          "internalType": "uint256",
          "name": "",
          "type": "uint256"
        }
      ],
      "stateMutability": "view",
      "type": "function"
    },
    {
      "inputs": [],
      "name": "protocolFeeReceiver",
      "outputs": [
        {
          "internalType": "address",
          "name": "",
          "type": "address"
        }
      ],
      "stateMutability": "view",
      "type": "function"
    },
    {
      "inputs": [
        {
          "internalType": "address",
          "name": "",
          "type": "address"
        },
        {
          "internalType": "uint256",
          "name": "",
          "type": "uint256"
        }
      ],
      "name": "realContributions",
      "outputs": [
        {
          "internalType": "uint256",
          "name": "",
          "type": "uint256"
        }
      ],
      "stateMutability": "view",
      "type": "function"
    },
    {
      "inputs": [],
      "name": "renounceOwnership",
      "outputs": [],
      "stateMutability": "nonpayable",
      "type": "function"
    },
    {
      "inputs": [
        {
          "internalType": "address",
          "name": "newOwner",
          "type": "address"
        }
      ],
      "name": "transferOwnership",
      "outputs": [],
      "stateMutability": "nonpayable",
      "type": "function"
    }
  ],
  "transactionHash": "0xf6cde8fdf3d0388f55de56e6f23caed42a1f48f36833cb225c2d866a94c50c21",
  "args": [
    "0x0d500b1d8e8ef31e21c99d1db9a6444d3adf1270",
    "0x346a7F06100A606eEA152f2281847Fa80f841894"
  ],
  "numDeployments": 1,
  "solcInputHash": "00bf2ea64ab0c77fcfbe87bd765d68ae",
  "bytecode": "0x60c060405260646002553480156200001657600080fd5b5060405162001c6a38038062001c6a8339810160408190526200003991620001a1565b620000443362000134565b600160038181556001600160a01b03848116608090815283546001600160a01b0319169185169190911790925560408051808201825291825262302e3160e81b60209283015280517f8b73c3c69bb8fe3d512ecc4cf759cc79239f7b179b0ffacaa9a75d522b39400f928101929092527fc34e769714204ec364edbdd9fbc375bf7fd2e3b10f22abaf631ea6006a288fa7908201527f8cd160c72d102a6747abd189ac21d4a1f802e3fcc1bb8fc78cc4d558df0c7c21606082015246918101919091523060a082015260c00160408051601f19818403018152919052805160209091012060a05250620001d99050565b600080546001600160a01b038381166001600160a01b0319831681178455604051919092169283917f8be0079c531659141344cd1fd0a4f28419497f9722a3daafe3b4186f6b6457e09190a35050565b80516001600160a01b03811681146200019c57600080fd5b919050565b60008060408385031215620001b557600080fd5b620001c08362000184565b9150620001d06020840162000184565b90509250929050565b60805160a051611a5d6200020d600039600081816101e101526106bf0152600081816101940152610eaf0152611a5d6000f3fe608060405234801561001057600080fd5b50600436106100ea5760003560e01c8063bc7517241161008c578063e711bf1b11610066578063e711bf1b14610203578063e804538414610216578063f2fde38b14610254578063f76c92291461026757600080fd5b8063bc751724146101b6578063c862ab33146101c9578063dab400f3146101dc57600080fd5b80634bbe7882116100c85780634bbe788214610161578063715018a6146101765780638da5cb5b1461017e578063ad5c46481461018f57600080fd5b8063323d01e5146100ef57806339a51be51461012d5780633a0298eb14610158575b600080fd5b61011a6100fd3660046115d6565b600560209081526000928352604080842090915290825290205481565b6040519081526020015b60405180910390f35b600154610140906001600160a01b031681565b6040516001600160a01b039091168152602001610124565b61011a60025481565b61017461016f366004611600565b6102c5565b005b61017461031a565b6000546001600160a01b0316610140565b6101407f000000000000000000000000000000000000000000000000000000000000000081565b6101746101c436600461161b565b610350565b6101746101d7366004611634565b61037f565b61011a7f000000000000000000000000000000000000000000000000000000000000000081565b6101746102113660046116b7565b610b3f565b6102446102243660046115d6565b600460209081526000928352604080842090915290825290205460ff1681565b6040519015158152602001610124565b610174610262366004611600565b610c0f565b6102a061027536600461161b565b6006602052600090815260409020805460018201546002909201546001600160a01b03909116919083565b604080516001600160a01b039094168452602084019290925290820152606001610124565b6000546001600160a01b031633146102f85760405162461bcd60e51b81526004016102ef9061172c565b60405180910390fd5b600180546001600160a01b0319166001600160a01b0392909216919091179055565b6000546001600160a01b031633146103445760405162461bcd60e51b81526004016102ef9061172c565b61034e6000610caa565b565b6000546001600160a01b0316331461037a5760405162461bcd60e51b81526004016102ef9061172c565b600255565b6002600354036103d15760405162461bcd60e51b815260206004820152601f60248201527f5265656e7472616e637947756172643a207265656e7472616e742063616c6c0060448201526064016102ef565b6002600355826104315760405162461bcd60e51b815260206004820152602560248201527f457865637574653a204d7573742068617665206174206c65617374206f6e652060448201526437b93232b960d91b60648201526084016102ef565b6000612710836002546104449190611777565b61044e9190611796565b9050600061045c82856117b8565b9050600086866000818110610473576104736117d0565b90506101600201602001602081019061048c9190611600565b90506000878760008181106104a3576104a36117d0565b604061016090910292909201820135600081815260066020529290922054919250506001600160a01b03161561051b5760405162461bcd60e51b815260206004820152601c60248201527f457865637574653a20496420616c72656164792065786563757465640000000060448201526064016102ef565b604080516060810182526001600160a01b03848116825260208083018781528385018a815260008781526006909352948220935184546001600160a01b031916931692909217835590516001830155915160029091015580805b89811015610a3857368b8b83818110610590576105906117d0565b610160029190910191506004905060006105ad6020840184611600565b6001600160a01b031681526020808201929092526040908101600090812060c0850135825290925290205460ff16156106285760405162461bcd60e51b815260206004820152601760248201527f4f72646572206e6f6e636520697320756e757361626c6500000000000000000060448201526064016102ef565b60016004600061063b6020850185611600565b6001600160a01b031681526020808201929092526040908101600090812060c086013582529092528120805460ff19169215159290921790915561068c6106873684900384018461182f565b610cfa565b90506106e38161069f6020850185611600565b6106b1610120860161010087016118da565b8561012001358661014001357f0000000000000000000000000000000000000000000000000000000000000000610dbb565b6107245760405162461bcd60e51b815260206004820152601260248201527114da59db985d1d5c994e88125b9d985b1a5960721b60448201526064016102ef565b428260a0013510156107685760405162461bcd60e51b815260206004820152600d60248201526c13dc99195c88195e1c1a5c9959609a1b60448201526064016102ef565b6107848861077b3685900385018561182f565b60800151101590565b6107d05760405162461bcd60e51b815260206004820152601860248201527f4f726465722063616e277420616363657074207072696365000000000000000060448201526064016102ef565b6001600160a01b0387166107ea6040840160208501611600565b6001600160a01b0316146108405760405162461bcd60e51b815260206004820152601960248201527f4f7264657220636f6c6c656374696f6e206d69736d617463680000000000000060448201526064016102ef565b858260400135146108935760405162461bcd60e51b815260206004820152601a60248201527f4f7264657220657865637574696f6e4964206d69736d6174636800000000000060448201526064016102ef565b8c8c60008181106108a6576108a66117d0565b9050610160020160e00160208101906108bf9190611600565b6001600160a01b03166108d9610100840160e08501611600565b6001600160a01b03161461092f5760405162461bcd60e51b815260206004820152601760248201527f4f726465722064656c6567617465206d69736d6174636800000000000000000060448201526064016102ef565b60608201356000610949610943888d6118f5565b83610e92565b905061095581886117b8565b96506109796109676020860186611600565b6001546001600160a01b031683610eaa565b6000610999878f61098a91906118f5565b61099484866118f5565b610e92565b90506109a581886117b8565b96506109be6109b76020870187611600565b3383610eaa565b6109c881836117b8565b600560006109d96020890189611600565b6001600160a01b03166001600160a01b0316815260200190815260200160002060008b81526020019081526020016000206000828254610a1991906117b8565b9250508190555050505050508080610a309061190c565b915050610575565b50858214610a975760405162461bcd60e51b815260206004820152602660248201527f50726f746f636f6c20666565206e6f74207472616e7366657272656420636f72604482015265726563746c7960d01b60648201526084016102ef565b878114610af75760405162461bcd60e51b815260206004820152602860248201527f4578656375746f72207072696365206e6f74207472616e7366657272656420636044820152676f72726563746c7960c01b60648201526084016102ef565b610b2e84338c8c6000818110610b0f57610b0f6117d0565b9050610160020160e0016020810190610b289190611600565b8a610ed6565b505060016003555050505050505050565b80610b9c5760405162461bcd60e51b815260206004820152602760248201527f43616e63656c3a204d7573742070726f76696465206174206c65617374206f6e60448201526665206e6f6e636560c81b60648201526084016102ef565b60005b81811015610c0a57336000908152600460205260408120600191858585818110610bcb57610bcb6117d0565b90506020020135815260200190815260200160002060006101000a81548160ff0219169083151502179055508080610c029061190c565b915050610b9f565b505050565b6000546001600160a01b03163314610c395760405162461bcd60e51b81526004016102ef9061172c565b6001600160a01b038116610c9e5760405162461bcd60e51b815260206004820152602660248201527f4f776e61626c653a206e6577206f776e657220697320746865207a65726f206160448201526564647265737360d01b60648201526084016102ef565b610ca781610caa565b50565b600080546001600160a01b038381166001600160a01b0319831681178455604051919092169283917f8be0079c531659141344cd1fd0a4f28419497f9722a3daafe3b4186f6b6457e09190a35050565b80516020808301516040808501516060860151608087015160a088015160c089015160e08a01519551600099610d9e997f5747656214602028f3803e6af1a359d7948c36532bd38d033969d6c4b13e73eb99919891979695949392019889526001600160a01b0397881660208a015295871660408901526060880194909452608087019290925260a086015260c085015260e0840152166101008201526101200190565b604051602081830303815290604052805190602001209050919050565b60006001600160a01b038616610e135760405162461bcd60e51b815260206004820152601d60248201527f5369676e61747572655574696c3a20496e76616c6964207369676e657200000060448201526064016102ef565b6040805160208082018790528183018690526001600160f81b031960f889901b1660608301528251808303604101815260618301845261190160f01b60818401526083830186905260a38084018c90528451808503909101815260c39093019093528151910120610e85888284611012565b9998505050505050505050565b6000818310610ea15781610ea3565b825b9392505050565b610c0a7f000000000000000000000000000000000000000000000000000000000000000084848461115e565b6040516301ffc9a760e01b81526380ac58cd60e01b60048201526001600160a01b038516906301ffc9a790602401602060405180830381865afa158015610f21573d6000803e3d6000fd5b505050506040513d601f19601f82011682018060405250810190610f459190611925565b15610fb957604051632142170760e11b81526001600160a01b0384811660048301528381166024830152604482018390528516906342842e0e90606401600060405180830381600087803b158015610f9c57600080fd5b505af1158015610fb0573d6000803e3d6000fd5b5050505061100c565b60405162461bcd60e51b815260206004820152602260248201527f436f6c6c656374696f6e20646f6573206e6f7420737570706f72742045524337604482015261323160f01b60648201526084016102ef565b50505050565b60008060006110218585611179565b9092509050600081600481111561103a5761103a611947565b1480156110585750856001600160a01b0316826001600160a01b0316145b1561106857600192505050610ea3565b600080876001600160a01b0316631626ba7e60e01b88886040516024016110909291906119b5565b60408051601f198184030181529181526020820180516001600160e01b03166001600160e01b03199094169390931790925290516110ce91906119ce565b600060405180830381855afa9150503d8060008114611109576040519150601f19603f3d011682016040523d82523d6000602084013e61110e565b606091505b5091509150818015611121575080516020145b801561115257508051630b135d3f60e11b9061114690830160209081019084016119ea565b6001600160e01b031916145b98975050505050505050565b801561100c5761100c6001600160a01b0385168484846111e7565b60008082516041036111af5760208301516040840151606085015160001a6111a387828585611241565b945094505050506111e0565b82516040036111d857602083015160408401516111cd86838361132e565b9350935050506111e0565b506000905060025b9250929050565b604080516001600160a01b0385811660248301528416604482015260648082018490528251808303909101815260849091019091526020810180516001600160e01b03166323b872dd60e01b17905261100c908590611367565b6000807f7fffffffffffffffffffffffffffffff5d576e7357a4501ddfe92f46681b20a08311156112785750600090506003611325565b8460ff16601b1415801561129057508460ff16601c14155b156112a15750600090506004611325565b6040805160008082526020820180845289905260ff881692820192909252606081018690526080810185905260019060a0016020604051602081039080840390855afa1580156112f5573d6000803e3d6000fd5b5050604051601f1901519150506001600160a01b03811661131e57600060019250925050611325565b9150600090505b94509492505050565b6000806001600160ff1b0383168161134b60ff86901c601b6117b8565b905061135987828885611241565b935093505050935093915050565b60006113bc826040518060400160405280602081526020017f5361666545524332303a206c6f772d6c6576656c2063616c6c206661696c6564815250856001600160a01b03166114399092919063ffffffff16565b805190915015610c0a57808060200190518101906113da9190611925565b610c0a5760405162461bcd60e51b815260206004820152602a60248201527f5361666545524332303a204552433230206f7065726174696f6e20646964206e6044820152691bdd081cdd58d8d9595960b21b60648201526084016102ef565b60606114488484600085611450565b949350505050565b6060824710156114b15760405162461bcd60e51b815260206004820152602660248201527f416464726573733a20696e73756666696369656e742062616c616e636520666f6044820152651c8818d85b1b60d21b60648201526084016102ef565b6001600160a01b0385163b6115085760405162461bcd60e51b815260206004820152601d60248201527f416464726573733a2063616c6c20746f206e6f6e2d636f6e747261637400000060448201526064016102ef565b600080866001600160a01b0316858760405161152491906119ce565b60006040518083038185875af1925050503d8060008114611561576040519150601f19603f3d011682016040523d82523d6000602084013e611566565b606091505b5091509150611576828286611581565b979650505050505050565b60608315611590575081610ea3565b8251156115a05782518084602001fd5b8160405162461bcd60e51b81526004016102ef9190611a14565b80356001600160a01b03811681146115d157600080fd5b919050565b600080604083850312156115e957600080fd5b6115f2836115ba565b946020939093013593505050565b60006020828403121561161257600080fd5b610ea3826115ba565b60006020828403121561162d57600080fd5b5035919050565b6000806000806060858703121561164a57600080fd5b843567ffffffffffffffff8082111561166257600080fd5b818701915087601f83011261167657600080fd5b81358181111561168557600080fd5b8860206101608302850101111561169b57600080fd5b6020928301999098509187013596604001359550909350505050565b600080602083850312156116ca57600080fd5b823567ffffffffffffffff808211156116e257600080fd5b818501915085601f8301126116f657600080fd5b81358181111561170557600080fd5b8660208260051b850101111561171a57600080fd5b60209290920196919550909350505050565b6020808252818101527f4f776e61626c653a2063616c6c6572206973206e6f7420746865206f776e6572604082015260600190565b634e487b7160e01b600052601160045260246000fd5b600081600019048311821515161561179157611791611761565b500290565b6000826117b357634e487b7160e01b600052601260045260246000fd5b500490565b600082198211156117cb576117cb611761565b500190565b634e487b7160e01b600052603260045260246000fd5b604051610160810167ffffffffffffffff8111828210171561181857634e487b7160e01b600052604160045260246000fd5b60405290565b803560ff811681146115d157600080fd5b6000610160828403121561184257600080fd5b61184a6117e6565b611853836115ba565b8152611861602084016115ba565b602082015260408301356040820152606083013560608201526080830135608082015260a083013560a082015260c083013560c08201526118a460e084016115ba565b60e08201526101006118b781850161181e565b908201526101208381013590820152610140928301359281019290925250919050565b6000602082840312156118ec57600080fd5b610ea38261181e565b60008282101561190757611907611761565b500390565b60006001820161191e5761191e611761565b5060010190565b60006020828403121561193757600080fd5b81518015158114610ea357600080fd5b634e487b7160e01b600052602160045260246000fd5b60005b83811015611978578181015183820152602001611960565b8381111561100c5750506000910152565b600081518084526119a181602086016020860161195d565b601f01601f19169290920160200192915050565b8281526040602082015260006114486040830184611989565b600082516119e081846020870161195d565b9190910192915050565b6000602082840312156119fc57600080fd5b81516001600160e01b031981168114610ea357600080fd5b602081526000610ea3602083018461198956fea2646970667358221220068d03f43df594827d9bd4f06a286427fa97ec2ff06c120b617311208e79432764736f6c634300080d0033",
  "libraries": {},
  "devdoc": {
    "kind": "dev",
    "methods": {
      "changeProtocolFeeFraction(uint256)": {
        "params": {
          "_protocolFeeFraction": "new fee fraction (out of 10_000)"
        }
      },
      "changeProtocolFeeReceiver(address)": {
        "params": {
          "_protocolFeeReceiver": "new receiver"
        }
      },
      "owner()": {
        "details": "Returns the address of the current owner."
      },
      "renounceOwnership()": {
        "details": "Leaves the contract without owner. It will not be possible to call `onlyOwner` functions anymore. Can only be called by the current owner. NOTE: Renouncing ownership will leave the contract without an owner, thereby removing any functionality that is only available to the owner."
      },
      "transferOwnership(address)": {
        "details": "Transfers ownership of the contract to a new account (`newOwner`). Can only be called by the current owner."
      }
    },
    "version": 1
  },
  "userdoc": {
    "kind": "user",
    "methods": {
      "changeProtocolFeeFraction(uint256)": {
        "notice": "[onlyOwner] Change the protocol fee fraction"
      },
      "changeProtocolFeeReceiver(address)": {
        "notice": "[onlyOwner] Change the protocol fee receiver"
      },
      "executeOnPassiveBuyOrders((address,address,uint256,uint256,uint256,uint256,uint256,address,uint8,bytes32,bytes32)[],uint256,uint256)": {
        "notice": "Executes on an array of passive buy orders"
      }
    },
    "version": 1
  },
  "storageLayout": {
    "storage": [
      {
        "astId": 550,
        "contract": "contracts/ClowderMain.sol:ClowderMain",
        "label": "_owner",
        "offset": 0,
        "slot": "0",
        "type": "t_address"
      },
      {
        "astId": 4575,
        "contract": "contracts/ClowderMain.sol:ClowderMain",
        "label": "protocolFeeReceiver",
        "offset": 0,
        "slot": "1",
        "type": "t_address"
      },
      {
        "astId": 4578,
        "contract": "contracts/ClowderMain.sol:ClowderMain",
        "label": "protocolFeeFraction",
        "offset": 0,
        "slot": "2",
        "type": "t_uint256"
      },
      {
        "astId": 764,
        "contract": "contracts/ClowderMain.sol:ClowderMain",
        "label": "_status",
        "offset": 0,
        "slot": "3",
        "type": "t_uint256"
      },
      {
        "astId": 4619,
        "contract": "contracts/ClowderMain.sol:ClowderMain",
        "label": "isUsedBuyNonce",
        "offset": 0,
        "slot": "4",
        "type": "t_mapping(t_address,t_mapping(t_uint256,t_bool))"
      },
      {
        "astId": 4625,
        "contract": "contracts/ClowderMain.sol:ClowderMain",
        "label": "realContributions",
        "offset": 0,
        "slot": "5",
        "type": "t_mapping(t_address,t_mapping(t_uint256,t_uint256))"
      },
      {
        "astId": 4630,
        "contract": "contracts/ClowderMain.sol:ClowderMain",
        "label": "executions",
        "offset": 0,
        "slot": "6",
        "type": "t_mapping(t_uint256,t_struct(Execution)5161_storage)"
      }
    ],
    "types": {
      "t_address": {
        "encoding": "inplace",
        "label": "address",
        "numberOfBytes": "20"
      },
      "t_bool": {
        "encoding": "inplace",
        "label": "bool",
        "numberOfBytes": "1"
      },
      "t_mapping(t_address,t_mapping(t_uint256,t_bool))": {
        "encoding": "mapping",
        "key": "t_address",
        "label": "mapping(address => mapping(uint256 => bool))",
        "numberOfBytes": "32",
        "value": "t_mapping(t_uint256,t_bool)"
      },
      "t_mapping(t_address,t_mapping(t_uint256,t_uint256))": {
        "encoding": "mapping",
        "key": "t_address",
        "label": "mapping(address => mapping(uint256 => uint256))",
        "numberOfBytes": "32",
        "value": "t_mapping(t_uint256,t_uint256)"
      },
      "t_mapping(t_uint256,t_bool)": {
        "encoding": "mapping",
        "key": "t_uint256",
        "label": "mapping(uint256 => bool)",
        "numberOfBytes": "32",
        "value": "t_bool"
      },
      "t_mapping(t_uint256,t_struct(Execution)5161_storage)": {
        "encoding": "mapping",
        "key": "t_uint256",
        "label": "mapping(uint256 => struct Execution)",
        "numberOfBytes": "32",
        "value": "t_struct(Execution)5161_storage"
      },
      "t_mapping(t_uint256,t_uint256)": {
        "encoding": "mapping",
        "key": "t_uint256",
        "label": "mapping(uint256 => uint256)",
        "numberOfBytes": "32",
        "value": "t_uint256"
      },
      "t_struct(Execution)5161_storage": {
        "encoding": "inplace",
        "label": "struct Execution",
        "members": [
          {
            "astId": 5156,
            "contract": "contracts/ClowderMain.sol:ClowderMain",
            "label": "collection",
            "offset": 0,
            "slot": "0",
            "type": "t_address"
          },
          {
            "astId": 5158,
            "contract": "contracts/ClowderMain.sol:ClowderMain",
            "label": "buyPrice",
            "offset": 0,
            "slot": "1",
            "type": "t_uint256"
          },
          {
            "astId": 5160,
            "contract": "contracts/ClowderMain.sol:ClowderMain",
            "label": "tokenId",
            "offset": 0,
            "slot": "2",
            "type": "t_uint256"
          }
        ],
        "numberOfBytes": "96"
      },
      "t_uint256": {
        "encoding": "inplace",
        "label": "uint256",
        "numberOfBytes": "32"
      }
    }
  }
}