{
  "address": "0xC85b3B585a0d9BbD11095FF49f02fC2ea77c237e",
  "abi": [
    {
      "inputs": [
        {
          "internalType": "address",
          "name": "_WETH",
          "type": "address"
        },
        {
          "internalType": "address",
          "name": "_protocolFeeReceiver",
          "type": "address"
        },
        {
          "internalType": "address",
          "name": "_delegateFactory",
          "type": "address"
        }
      ],
      "stateMutability": "nonpayable",
      "type": "constructor"
    },
    {
      "anonymous": false,
      "inputs": [
        {
          "indexed": true,
          "internalType": "address",
          "name": "previousOwner",
          "type": "address"
        },
        {
          "indexed": true,
          "internalType": "address",
          "name": "newOwner",
          "type": "address"
        }
      ],
      "name": "OwnershipTransferred",
      "type": "event"
    },
    {
      "inputs": [],
      "name": "EIP712_DOMAIN_SEPARATOR",
      "outputs": [
        {
          "internalType": "bytes32",
          "name": "",
          "type": "bytes32"
        }
      ],
      "stateMutability": "view",
      "type": "function"
    },
    {
      "inputs": [],
      "name": "WETH",
      "outputs": [
        {
          "internalType": "address",
          "name": "",
          "type": "address"
        }
      ],
      "stateMutability": "view",
      "type": "function"
    },
    {
      "inputs": [
        {
          "internalType": "uint256[]",
          "name": "buyOrderNonces",
          "type": "uint256[]"
        }
      ],
      "name": "cancelBuyOrders",
      "outputs": [],
      "stateMutability": "nonpayable",
      "type": "function"
    },
    {
      "inputs": [
        {
          "internalType": "uint256",
          "name": "_protocolFeeFraction",
          "type": "uint256"
        }
      ],
      "name": "changeProtocolFeeFraction",
      "outputs": [],
      "stateMutability": "nonpayable",
      "type": "function"
    },
    {
      "inputs": [
        {
          "internalType": "address",
          "name": "_protocolFeeReceiver",
          "type": "address"
        }
      ],
      "name": "changeProtocolFeeReceiver",
      "outputs": [],
      "stateMutability": "nonpayable",
      "type": "function"
    },
    {
      "inputs": [],
      "name": "delegateFactory",
      "outputs": [
        {
          "internalType": "address",
          "name": "",
          "type": "address"
        }
      ],
      "stateMutability": "view",
      "type": "function"
    },
    {
      "inputs": [
        {
          "components": [
            {
              "internalType": "address",
              "name": "signer",
              "type": "address"
            },
            {
              "internalType": "address",
              "name": "collection",
              "type": "address"
            },
            {
              "internalType": "uint256",
              "name": "executionId",
              "type": "uint256"
            },
            {
              "internalType": "uint256",
              "name": "contribution",
              "type": "uint256"
            },
            {
              "internalType": "uint256",
              "name": "buyPrice",
              "type": "uint256"
            },
            {
              "internalType": "uint256",
              "name": "buyPriceEndTime",
              "type": "uint256"
            },
            {
              "internalType": "uint256",
              "name": "buyNonce",
              "type": "uint256"
            },
            {
              "internalType": "address",
              "name": "delegate",
              "type": "address"
            },
            {
              "internalType": "uint8",
              "name": "v",
              "type": "uint8"
            },
            {
              "internalType": "bytes32",
              "name": "r",
              "type": "bytes32"
            },
            {
              "internalType": "bytes32",
              "name": "s",
              "type": "bytes32"
            }
          ],
          "internalType": "struct BuyOrderV1[]",
          "name": "buyOrders",
          "type": "tuple[]"
        },
        {
          "internalType": "uint256",
          "name": "executorPrice",
          "type": "uint256"
        },
        {
          "internalType": "uint256",
          "name": "tokenId",
          "type": "uint256"
        },
        {
          "internalType": "bytes",
          "name": "data",
          "type": "bytes"
        }
      ],
      "name": "executeOnPassiveBuyOrders",
      "outputs": [],
      "stateMutability": "nonpayable",
      "type": "function"
    },
    {
      "inputs": [
        {
          "internalType": "uint256",
          "name": "",
          "type": "uint256"
        }
      ],
      "name": "executions",
      "outputs": [
        {
          "internalType": "address",
          "name": "collection",
          "type": "address"
        },
        {
          "internalType": "uint256",
          "name": "buyPrice",
          "type": "uint256"
        },
        {
          "internalType": "uint256",
          "name": "tokenId",
          "type": "uint256"
        }
      ],
      "stateMutability": "view",
      "type": "function"
    },
    {
      "inputs": [
        {
          "internalType": "address",
          "name": "",
          "type": "address"
        },
        {
          "internalType": "uint256",
          "name": "",
          "type": "uint256"
        }
      ],
      "name": "isUsedBuyNonce",
      "outputs": [
        {
          "internalType": "bool",
          "name": "",
          "type": "bool"
        }
      ],
      "stateMutability": "view",
      "type": "function"
    },
    {
      "inputs": [],
      "name": "owner",
      "outputs": [
        {
          "internalType": "address",
          "name": "",
          "type": "address"
        }
      ],
      "stateMutability": "view",
      "type": "function"
    },
    {
      "inputs": [],
      "name": "protocolFeeFraction",
      "outputs": [
        {
          "internalType": "uint256",
          "name": "",
          "type": "uint256"
        }
      ],
      "stateMutability": "view",
      "type": "function"
    },
    {
      "inputs": [],
      "name": "protocolFeeReceiver",
      "outputs": [
        {
          "internalType": "address",
          "name": "",
          "type": "address"
        }
      ],
      "stateMutability": "view",
      "type": "function"
    },
    {
      "inputs": [
        {
          "internalType": "address",
          "name": "",
          "type": "address"
        },
        {
          "internalType": "uint256",
          "name": "",
          "type": "uint256"
        }
      ],
      "name": "realContributions",
      "outputs": [
        {
          "internalType": "uint256",
          "name": "",
          "type": "uint256"
        }
      ],
      "stateMutability": "view",
      "type": "function"
    },
    {
      "inputs": [],
      "name": "renounceOwnership",
      "outputs": [],
      "stateMutability": "nonpayable",
      "type": "function"
    },
    {
      "inputs": [
        {
          "internalType": "address",
          "name": "newOwner",
          "type": "address"
        }
      ],
      "name": "transferOwnership",
      "outputs": [],
      "stateMutability": "nonpayable",
      "type": "function"
    }
  ],
  "transactionHash": "0x44d859932b3845b6afd2fc339ae6b95b33f354439c4f2675a05b2b5eda016121",
  "args": [
    "0x0d500b1d8e8ef31e21c99d1db9a6444d3adf1270",
    "0x0f576D7d47c4e6053Ff9231Cb0081269700815Bc",
    "0xB0609004ab23cbb9C4C5037F527Aa7F5BCf4012f"
  ],
  "numDeployments": 1,
  "solcInputHash": "86fb28259c6adf89026019a3fa694617",
  "bytecode": "0x60e08060405234620000a25760608162001f968038038091620000238285620000be565b833981010312620000a257806200003e6200006292620000f1565b906200005b60406200005360208401620000f1565b9201620000f1565b9162000147565b604051611d5790816200023f823960805181818161039b01526115c8015260a05181818161044b0152610b88015260c05181818161040301526109070152f35b600080fd5b50634e487b7160e01b600052604160045260246000fd5b601f909101601f19168101906001600160401b03821190821017620000e257604052565b620000ec620000a7565b604052565b51906001600160a01b0382168203620000a257565b60408051919082016001600160401b0381118382101762000137575b604052600382526218171960e91b6020830152565b62000141620000a7565b62000122565b906000549060018060a01b031992338484161760005560018060a01b0392833391167f8be0079c531659141344cd1fd0a4f28419497f9722a3daafe3b4186f6b6457e06000604051a3606460025560016003556080521690600154161760015560c052620001b462000106565b8051602091820120604080517f8b73c3c69bb8fe3d512ecc4cf759cc79239f7b179b0ffacaa9a75d522b39400f9381019384527fc34e769714204ec364edbdd9fbc375bf7fd2e3b10f22abaf631ea6006a288fa79181019190915260608101919091524660808201523060a08083019190915281526200023660c082620000be565b51902060a05256fe60c06040526004361015610013575b600080fd5b60003560e01c80631b0e15a51461013f578063323d01e51461013657806339a51be51461012d5780633a0298eb146101245780634bbe78821461011b578063715018a6146101125780638da5cb5b14610109578063ad5c464814610100578063bc751724146100f7578063c393684e146100ee578063dab400f3146100e5578063e711bf1b146100dc578063e8045384146100d3578063f2fde38b146100ca5763f76c9229146100c257600080fd5b61000e6105e3565b5061000e610516565b5061000e6104c5565b5061000e61046e565b5061000e610432565b5061000e6103ec565b5061000e6103ca565b5061000e610384565b5061000e61035a565b5061000e6102f8565b5061000e6102b0565b5061000e610291565b5061000e610267565b5061000e610210565b5061000e610176565b9181601f8401121561000e5782359167ffffffffffffffff831161000e576020838186019501011161000e57565b503461000e57608036600319011261000e5767ffffffffffffffff60043581811161000e573660238201121561000e5780600401359082821161000e5736602461016084028301011161000e5760643592831161000e576101de6101f0933690600401610148565b9290916044359160248035920161077c565b005b6001600160a01b0381160361000e57565b359061020e826101f2565b565b503461000e57604036600319011261000e5760043561022e816101f2565b60018060a01b0316600052600560205260406000206024356000526020526020604060002054604051908152f35b600091031261000e57565b503461000e57600036600319011261000e576001546040516001600160a01b039091168152602090f35b503461000e57600036600319011261000e576020600254604051908152f35b503461000e57602036600319011261000e576004356102ce816101f2565b6102d661062f565b600180546001600160a01b0319166001600160a01b0392909216919091179055005b503461000e576000806003193601126103575761031361062f565b80546001600160a01b0319811682556040519082906001600160a01b03167f8be0079c531659141344cd1fd0a4f28419497f9722a3daafe3b4186f6b6457e08284a3f35b80fd5b503461000e57600036600319011261000e576000546040516001600160a01b039091168152602090f35b503461000e57600036600319011261000e576040517f00000000000000000000000000000000000000000000000000000000000000006001600160a01b03168152602090f35b503461000e57602036600319011261000e576103e461062f565b600435600255005b503461000e57600036600319011261000e576040517f00000000000000000000000000000000000000000000000000000000000000006001600160a01b03168152602090f35b503461000e57600036600319011261000e5760206040517f00000000000000000000000000000000000000000000000000000000000000008152f35b503461000e57602036600319011261000e5760043567ffffffffffffffff80821161000e573660238301121561000e57816004013590811161000e573660248260051b8401011161000e5760246101f092016106d1565b503461000e57604036600319011261000e576004356104e3816101f2565b60018060a01b031660005260046020526040600020602435600052602052602060ff604060002054166040519015158152f35b503461000e57602036600319011261000e57600435610534816101f2565b61053c61062f565b6001600160a01b0390811690811561058f57600080546001600160a01b031981168417825560405191939192167f8be0079c531659141344cd1fd0a4f28419497f9722a3daafe3b4186f6b6457e08484a3f35b60405162461bcd60e51b815260206004820152602660248201527f4f776e61626c653a206e6577206f776e657220697320746865207a65726f206160448201526564647265737360d01b6064820152608490fd5b503461000e57602036600319011261000e5760043560005260066020526060604060002060018060a01b0381541690600260018201549101549060405192835260208301526040820152f35b6000546001600160a01b0316330361064357565b606460405162461bcd60e51b815260206004820152602060248201527f4f776e61626c653a2063616c6c6572206973206e6f7420746865206f776e65726044820152fd5b50634e487b7160e01b600052601160045260246000fd5b60019060001981146106ae570190565b6106b6610687565b0190565b50634e487b7160e01b600052603260045260246000fd5b811561072757600090815b8381106106e95750505050565b33600090815260046020526040902061072291908160051b840135855260205261071d60408520600160ff19825416179055565b61069e565b6106dc565b60405162461bcd60e51b815260206004820152602760248201527f43616e63656c3a204d7573742070726f76696465206174206c65617374206f6e60448201526665206e6f6e636560c81b6064820152608490fd5b94939291909360a052600260035414610e0257600260035561079f841515610e47565b6107b66107ae82600254610ea1565b612710900490565b906107c18282610ec0565b916108056001600160a01b036107fe6107f160406107df8b8d610ecc565b01356000526006602052604060002090565b546001600160a01b031690565b1615610efe565b61088761081d6020610817898b610ecc565b01610f4a565b610837610828611003565b6001600160a01b039092168252565b84602082015285604082015261085260406107df8a8c610ecc565b815181546001600160a01b0319166001600160a01b039190911617815560208201516001820155604090910151600290910155565b600091826108948861106b565b9261089e8961106b565b9480815b8b8110610ada5750506108c19392916108bb911461138e565b146113e9565b6108d060e0610817888a610ecc565b6001600160a01b038116610a455750906020916109016040519485938493635c64f61960e01b85526004850161145b565b038160007f00000000000000000000000000000000000000000000000000000000000000006001600160a01b03165af1908115610a38575b600091610a09575b50925b60a051156109e757333b1561000e57602061081761099f926109b79761098760006109a4986040518093819263883b03c760e01b835260a05190600484016114ea565b038183335af180156109da575b6109c1575b50610ecc565b611823565b6001600160a01b03908116911614611512565b61020e6001600355565b806109ce6109d492610f6b565b8061025c565b38610999565b6109e26114dd565b610994565b610a04949193925060206108176109ff923394610ecc565b6116e2565b6109b7565b610a2b915060203d602011610a31575b610a238183610fe1565b810190611446565b38610941565b503d610a19565b610a406114dd565b610939565b91939694909597925060005b8651811015610acd578087610ac28b6040610ab2610aab610a91610a8488610a7d8f9b610ac89c61136c565b519861136c565b516001600160a01b031690565b6001600160a01b0316600090815260056020526040902090565b928c610ecc565b0135600052602052604060002090565b5561069e565b610a51565b5093959250935094610944565b8c8c610ae7838284610ee0565b91610af183610f4a565b6001600160a01b0316600090815260046020908152604080832060c087013580855292529091205460ff1615610b269061109d565b610b2f84610f4a565b6001600160a01b03166000908152600460205260409020600091825260205260409020805460ff19166001179055610b6736846110ff565b610b7090611c80565b610b7984610f4a565b610b86610100860161119e565b7f0000000000000000000000000000000000000000000000000000000000000000916101408701359161012088013591610bbf956118ea565b610bc8906111a8565b610bd84260a085013510156111e9565b8b610be336856110ff565b608001511015610bf290611225565b610bfe60208401610f4a565b610c088383610ecc565b602001610c1490610f4a565b6001600160a01b0316610c30916001600160a01b031614611271565b610c3a8282610ecc565b60400135604084013514610c4d906112bd565b60e090610c5b848301610f4a565b92610c6591610ecc565b01610c6f90610f4a565b6001600160a01b0316610c8b916001600160a01b031614611309565b60608101359384610c9c8288611355565b90610ca69161156a565b610cb1818093610ec0565b95610cbb84610f4a565b60015483906001600160a01b0316610cd29261157c565b610cdc898b611355565b91610ce691611355565b610cef9161156a565b9687610cfa91610ec0565b963381610d0685610f4a565b91610d109261157c565b610d1991610ec0565b90600060805260005b828b8b878410610d90575b5050505060805115610d4a575b5050610d459061069e565b6108a2565b92610d8891610d78610d5f610d459596610f4a565b610d69848d61136c565b6001600160a01b039091169052565b610d82828c61136c565b5261069e565b919038610d3a565b610a8484610d9d9261136c565b610db5610da986610f4a565b6001600160a01b031690565b6001600160a01b0390911614610dd5575050610dd09061069e565b610d22565b610df391610de684610dec9361136c565b51610ec0565b918c61136c565b52600160805238828b8b610d2d565b60405162461bcd60e51b815260206004820152601f60248201527f5265656e7472616e637947756172643a207265656e7472616e742063616c6c006044820152606490fd5b15610e4e57565b60405162461bcd60e51b815260206004820152602560248201527f457865637574653a204d7573742068617665206174206c65617374206f6e652060448201526437b93232b960d91b6064820152608490fd5b8060001904821181151516610eb4570290565b610ebc610687565b0290565b811981116106ae570190565b9015610ed55790565b610edd6106ba565b90565b9161016091811015610ef157020190565b610ef96106ba565b020190565b15610f0557565b60405162461bcd60e51b815260206004820152601c60248201527f457865637574653a20496420616c7265616479206578656375746564000000006044820152606490fd5b35610edd816101f2565b50634e487b7160e01b600052604160045260246000fd5b67ffffffffffffffff8111610f7f57604052565b610f87610f54565b604052565b6040810190811067ffffffffffffffff821117610f7f57604052565b6080810190811067ffffffffffffffff821117610f7f57604052565b610140810190811067ffffffffffffffff821117610f7f57604052565b90601f8019910116810190811067ffffffffffffffff821117610f7f57604052565b604051906060820182811067ffffffffffffffff821117610f7f57604052565b60405190610160820182811067ffffffffffffffff821117610f7f57604052565b60209067ffffffffffffffff811161105e575b60051b0190565b611066610f54565b611057565b9061107582611044565b6110826040519182610fe1565b8281528092611093601f1991611044565b0190602036910137565b156110a457565b60405162461bcd60e51b815260206004820152601760248201527f4f72646572206e6f6e636520697320756e757361626c650000000000000000006044820152606490fd5b60ff81160361000e57565b359061020e826110e9565b91908261016091031261000e57611114611023565b9161111e81610203565b835261112c60208201610203565b602084015260408101356040840152606081013560608401526080810135608084015260a081013560a084015260c081013560c084015261116f60e08201610203565b60e08401526101006111828183016110f4565b9084015261012080820135908401526101408091013590830152565b35610edd816110e9565b156111af57565b60405162461bcd60e51b815260206004820152601260248201527114da59db985d1d5c994e88125b9d985b1a5960721b6044820152606490fd5b156111f057565b60405162461bcd60e51b815260206004820152600d60248201526c13dc99195c88195e1c1a5c9959609a1b6044820152606490fd5b1561122c57565b60405162461bcd60e51b815260206004820152601860248201527f4f726465722063616e27742061636365707420707269636500000000000000006044820152606490fd5b1561127857565b60405162461bcd60e51b815260206004820152601960248201527f4f7264657220636f6c6c656374696f6e206d69736d61746368000000000000006044820152606490fd5b156112c457565b60405162461bcd60e51b815260206004820152601a60248201527f4f7264657220657865637574696f6e4964206d69736d617463680000000000006044820152606490fd5b1561131057565b60405162461bcd60e51b815260206004820152601760248201527f4f726465722064656c6567617465206d69736d617463680000000000000000006044820152606490fd5b818110611360570390565b611368610687565b0390565b6020918151811015611381575b60051b010190565b6113896106ba565b611379565b1561139557565b60405162461bcd60e51b815260206004820152602660248201527f50726f746f636f6c20666565206e6f74207472616e7366657272656420636f72604482015265726563746c7960d01b6064820152608490fd5b156113f057565b60405162461bcd60e51b815260206004820152602860248201527f4578656375746f72207072696365206e6f74207472616e7366657272656420636044820152676f72726563746c7960c01b6064820152608490fd5b9081602091031261000e5751610edd816101f2565b93929160608501606086528251809152608086019060208094019060005b8181106114c0575050508581038387015282808351928381520192019260005b8281106114ac5750505060409150930152565b845184529381019392810192600101611499565b82516001600160a01b031684529285019291850191600101611479565b506040513d6000823e3d90fd5b90918060409360208452816020850152848401376000828201840152601f01601f1916010190565b1561151957565b60405162461bcd60e51b8152602060048201526024808201527f44656c6567617465206973206e6f7420746865206f776e6572206f66207468656044820152630813919560e21b6064820152608490fd5b9080821015611577575090565b905090565b9190918161158957505050565b6040516323b872dd60e01b60208083019182526001600160a01b03938416602484015294831660448301526064808301949094529281526116429290917f0000000000000000000000000000000000000000000000000000000000000000169060009081906115f9608486610fe1565b6040519461160686610f8c565b8786527f5361666545524332303a206c6f772d6c6576656c2063616c6c206661696c656488870152519082855af161163c611b99565b91611be7565b8051908282159283156116b2575b5050501561165b5750565b6084906040519062461bcd60e51b82526004820152602a60248201527f5361666545524332303a204552433230206f7065726174696f6e20646964206e6044820152691bdd081cdd58d8d9595960b21b6064820152fd5b6116c293508201810191016116ca565b388281611650565b9081602091031261000e5751801515810361000e5790565b6040516301ffc9a760e01b81526380ac58cd60e01b6004820152929391926001600160a01b039190911690602081602481855afa908115611816575b6000916117e8575b501561179457803b1561000e57604051632142170760e11b81526001600160a01b03938416600482015293909216602484015260448301526000908290606490829084905af18015611787575b61177a5750565b806109ce61020e92610f6b565b61178f6114dd565b611773565b60405162461bcd60e51b815260206004820152602260248201527f436f6c6c656374696f6e20646f6573206e6f7420737570706f72742045524337604482015261323160f01b6064820152608490fd5b0390fd5b611809915060203d811161180f575b6118018183610fe1565b8101906116ca565b38611726565b503d6117f7565b61181e6114dd565b61171e565b6040516301ffc9a760e01b81526380ac58cd60e01b6004820152602092916001600160a01b0316908381602481855afa9081156118dd575b6000916118c0575b5015611794576040516331a9108f60e11b815260048101929092528290829060249082905afa9182156118b3575b60009261189d57505090565b610edd9250803d10610a3157610a238183610fe1565b6118bb6114dd565b611891565b6118d79150843d861161180f576118018183610fe1565b38611863565b6118e56114dd565b61185b565b91949293909290916001600160a01b0384161561194f57610edd95604293604051966020880152604087015260ff60f81b9060f81b1660608601526041855261193285610fa8565b6040519161190160f01b8352600283015260228201522090611994565b60405162461bcd60e51b815260206004820152601d60248201527f5369676e61747572655574696c3a20496e76616c6964207369676e65720000006044820152606490fd5b61199e8383611a80565b6005819592951015611a6a57159384611a54575b5083156119c0575b50505090565b6000929350908291604051611a07816119f96020820194630b135d3f60e11b998a87526024840152604060448401526064830190611b48565b03601f198101835282610fe1565b51915afa90611a14611b99565b82611a46575b82611a2a575b50503880806119ba565b90915060208180518101031261000e5760200151143880611a20565b915060208251101591611a1a565b6001600160a01b038381169116149350386119b2565b634e487b7160e01b600052602160045260246000fd5b906041815114600014611aae57611aaa916020820151906060604084015193015160001a90611ab8565b9091565b5050600090600290565b9291907f7fffffffffffffffffffffffffffffff5d576e7357a4501ddfe92f46681b20a08311611b3c5791608094939160ff602094604051948552168484015260408301526060820152600093849182805260015afa15611b2f575b81516001600160a01b03811615611b29579190565b50600190565b611b376114dd565b611b14565b50505050600090600390565b91908251928382526000905b848210611b81575092806020939411611b74575b601f01601f1916010190565b6000838284010152611b68565b90602090818082850101519082860101520190611b54565b3d15611be2573d9067ffffffffffffffff8211611bd5575b60405191611bc9601f8201601f191660200184610fe1565b82523d6000602084013e565b611bdd610f54565b611bb1565b606090565b91929015611c495750815115611bfb575090565b3b15611c045790565b60405162461bcd60e51b815260206004820152601d60248201527f416464726573733a2063616c6c20746f206e6f6e2d636f6e74726163740000006044820152606490fd5b825190915015611c5c5750805190602001fd5b60405162461bcd60e51b8152602060048201529081906117e4906024830190611b48565b60018060a01b039081815116918060208301511691604081015191606082015160808301519060a08401519260e060c086015195015116946040519660208801987f5747656214602028f3803e6af1a359d7948c36532bd38d033969d6c4b13e73eb8a5260408901526060880152608087015260a086015260c085015260e084015261010083015261012090818301528152611d1b81610fc4565b5190209056fea2646970667358221220344aff821561897e2cc170bde30b86cab58ed272dd996e127ba52c797bea932a64736f6c634300080d0033",
  "devdoc": {
    "kind": "dev",
    "methods": {
      "changeProtocolFeeFraction(uint256)": {
        "params": {
          "_protocolFeeFraction": "new fee fraction (out of 10_000)"
        }
      },
      "changeProtocolFeeReceiver(address)": {
        "params": {
          "_protocolFeeReceiver": "new receiver"
        }
      },
      "owner()": {
        "details": "Returns the address of the current owner."
      },
      "renounceOwnership()": {
        "details": "Leaves the contract without owner. It will not be possible to call `onlyOwner` functions. Can only be called by the current owner. NOTE: Renouncing ownership will leave the contract without an owner, thereby disabling any functionality that is only available to the owner."
      },
      "transferOwnership(address)": {
        "details": "Transfers ownership of the contract to a new account (`newOwner`). Can only be called by the current owner."
      }
    },
    "version": 1
  },
  "userdoc": {
    "kind": "user",
    "methods": {
      "changeProtocolFeeFraction(uint256)": {
        "notice": "[onlyOwner] Change the protocol fee fraction"
      },
      "changeProtocolFeeReceiver(address)": {
        "notice": "[onlyOwner] Change the protocol fee receiver"
      },
      "executeOnPassiveBuyOrders((address,address,uint256,uint256,uint256,uint256,uint256,address,uint8,bytes32,bytes32)[],uint256,uint256,bytes)": {
        "notice": "Executes on an array of passive buy orders"
      }
    },
    "version": 1
  },
  "storageLayout": {
    "storage": [
      {
        "astId": 7,
        "contract": "contracts/ClowderMain.sol:ClowderMain",
        "label": "_owner",
        "offset": 0,
        "slot": "0",
        "type": "t_address"
      },
      {
        "astId": 3758,
        "contract": "contracts/ClowderMain.sol:ClowderMain",
        "label": "protocolFeeReceiver",
        "offset": 0,
        "slot": "1",
        "type": "t_address"
      },
      {
        "astId": 3761,
        "contract": "contracts/ClowderMain.sol:ClowderMain",
        "label": "protocolFeeFraction",
        "offset": 0,
        "slot": "2",
        "type": "t_uint256"
      },
      {
        "astId": 306,
        "contract": "contracts/ClowderMain.sol:ClowderMain",
        "label": "_status",
        "offset": 0,
        "slot": "3",
        "type": "t_uint256"
      },
      {
        "astId": 3804,
        "contract": "contracts/ClowderMain.sol:ClowderMain",
        "label": "isUsedBuyNonce",
        "offset": 0,
        "slot": "4",
        "type": "t_mapping(t_address,t_mapping(t_uint256,t_bool))"
      },
      {
        "astId": 3810,
        "contract": "contracts/ClowderMain.sol:ClowderMain",
        "label": "realContributions",
        "offset": 0,
        "slot": "5",
        "type": "t_mapping(t_address,t_mapping(t_uint256,t_uint256))"
      },
      {
        "astId": 3815,
        "contract": "contracts/ClowderMain.sol:ClowderMain",
        "label": "executions",
        "offset": 0,
        "slot": "6",
        "type": "t_mapping(t_uint256,t_struct(Execution)7672_storage)"
      }
    ],
    "types": {
      "t_address": {
        "encoding": "inplace",
        "label": "address",
        "numberOfBytes": "20"
      },
      "t_bool": {
        "encoding": "inplace",
        "label": "bool",
        "numberOfBytes": "1"
      },
      "t_mapping(t_address,t_mapping(t_uint256,t_bool))": {
        "encoding": "mapping",
        "key": "t_address",
        "label": "mapping(address => mapping(uint256 => bool))",
        "numberOfBytes": "32",
        "value": "t_mapping(t_uint256,t_bool)"
      },
      "t_mapping(t_address,t_mapping(t_uint256,t_uint256))": {
        "encoding": "mapping",
        "key": "t_address",
        "label": "mapping(address => mapping(uint256 => uint256))",
        "numberOfBytes": "32",
        "value": "t_mapping(t_uint256,t_uint256)"
      },
      "t_mapping(t_uint256,t_bool)": {
        "encoding": "mapping",
        "key": "t_uint256",
        "label": "mapping(uint256 => bool)",
        "numberOfBytes": "32",
        "value": "t_bool"
      },
      "t_mapping(t_uint256,t_struct(Execution)7672_storage)": {
        "encoding": "mapping",
        "key": "t_uint256",
        "label": "mapping(uint256 => struct Execution)",
        "numberOfBytes": "32",
        "value": "t_struct(Execution)7672_storage"
      },
      "t_mapping(t_uint256,t_uint256)": {
        "encoding": "mapping",
        "key": "t_uint256",
        "label": "mapping(uint256 => uint256)",
        "numberOfBytes": "32",
        "value": "t_uint256"
      },
      "t_struct(Execution)7672_storage": {
        "encoding": "inplace",
        "label": "struct Execution",
        "members": [
          {
            "astId": 7667,
            "contract": "contracts/ClowderMain.sol:ClowderMain",
            "label": "collection",
            "offset": 0,
            "slot": "0",
            "type": "t_address"
          },
          {
            "astId": 7669,
            "contract": "contracts/ClowderMain.sol:ClowderMain",
            "label": "buyPrice",
            "offset": 0,
            "slot": "1",
            "type": "t_uint256"
          },
          {
            "astId": 7671,
            "contract": "contracts/ClowderMain.sol:ClowderMain",
            "label": "tokenId",
            "offset": 0,
            "slot": "2",
            "type": "t_uint256"
          }
        ],
        "numberOfBytes": "96"
      },
      "t_uint256": {
        "encoding": "inplace",
        "label": "uint256",
        "numberOfBytes": "32"
      }
    }
  }
}