{
  "address": "0x203d231e2e7c0380971D58C4bf37E5Ac7F6B9D8c",
  "abi": [
    {
      "inputs": [
        {
          "internalType": "address",
          "name": "_clowderMain",
          "type": "address"
        },
        {
          "internalType": "address",
          "name": "_wNativeToken",
          "type": "address"
        }
      ],
      "stateMutability": "nonpayable",
      "type": "constructor"
    },
    {
      "inputs": [
        {
          "internalType": "uint256",
          "name": "index",
          "type": "uint256"
        }
      ],
      "name": "ExternalCallFailed",
      "type": "error"
    },
    {
      "anonymous": false,
      "inputs": [
        {
          "indexed": true,
          "internalType": "address",
          "name": "previousOwner",
          "type": "address"
        },
        {
          "indexed": true,
          "internalType": "address",
          "name": "newOwner",
          "type": "address"
        }
      ],
      "name": "OwnershipTransferred",
      "type": "event"
    },
    {
      "inputs": [
        {
          "internalType": "address payable",
          "name": "_to",
          "type": "address"
        },
        {
          "internalType": "uint256",
          "name": "_value",
          "type": "uint256"
        },
        {
          "internalType": "bytes",
          "name": "_data",
          "type": "bytes"
        }
      ],
      "name": "call",
      "outputs": [
        {
          "internalType": "bytes",
          "name": "",
          "type": "bytes"
        }
      ],
      "stateMutability": "payable",
      "type": "function"
    },
    {
      "inputs": [
        {
          "internalType": "bytes",
          "name": "data",
          "type": "bytes"
        }
      ],
      "name": "clowderCall",
      "outputs": [],
      "stateMutability": "nonpayable",
      "type": "function"
    },
    {
      "inputs": [],
      "name": "clowderMain",
      "outputs": [
        {
          "internalType": "contract ClowderMain",
          "name": "",
          "type": "address"
        }
      ],
      "stateMutability": "view",
      "type": "function"
    },
    {
      "inputs": [
        {
          "components": [
            {
              "internalType": "address",
              "name": "signer",
              "type": "address"
            },
            {
              "internalType": "address",
              "name": "collection",
              "type": "address"
            },
            {
              "internalType": "uint256",
              "name": "executionId",
              "type": "uint256"
            },
            {
              "internalType": "uint256",
              "name": "contribution",
              "type": "uint256"
            },
            {
              "internalType": "uint256",
              "name": "buyPrice",
              "type": "uint256"
            },
            {
              "internalType": "uint256",
              "name": "buyPriceEndTime",
              "type": "uint256"
            },
            {
              "internalType": "uint256",
              "name": "buyNonce",
              "type": "uint256"
            },
            {
              "internalType": "address",
              "name": "delegate",
              "type": "address"
            },
            {
              "internalType": "uint8",
              "name": "v",
              "type": "uint8"
            },
            {
              "internalType": "bytes32",
              "name": "r",
              "type": "bytes32"
            },
            {
              "internalType": "bytes32",
              "name": "s",
              "type": "bytes32"
            }
          ],
          "internalType": "struct BuyOrderV1[]",
          "name": "buyOrders",
          "type": "tuple[]"
        },
        {
          "internalType": "uint256",
          "name": "executorPrice",
          "type": "uint256"
        },
        {
          "internalType": "uint256",
          "name": "tokenId",
          "type": "uint256"
        },
        {
          "internalType": "bytes",
          "name": "data",
          "type": "bytes"
        }
      ],
      "name": "execute",
      "outputs": [],
      "stateMutability": "payable",
      "type": "function"
    },
    {
      "inputs": [
        {
          "internalType": "address",
          "name": "operator",
          "type": "address"
        },
        {
          "internalType": "address",
          "name": "from",
          "type": "address"
        },
        {
          "internalType": "uint256",
          "name": "tokenId",
          "type": "uint256"
        },
        {
          "internalType": "bytes",
          "name": "data",
          "type": "bytes"
        }
      ],
      "name": "onERC721Received",
      "outputs": [
        {
          "internalType": "bytes4",
          "name": "",
          "type": "bytes4"
        }
      ],
      "stateMutability": "pure",
      "type": "function"
    },
    {
      "inputs": [],
      "name": "owner",
      "outputs": [
        {
          "internalType": "address",
          "name": "",
          "type": "address"
        }
      ],
      "stateMutability": "view",
      "type": "function"
    },
    {
      "inputs": [],
      "name": "renounceOwnership",
      "outputs": [],
      "stateMutability": "nonpayable",
      "type": "function"
    },
    {
      "inputs": [
        {
          "internalType": "address",
          "name": "newOwner",
          "type": "address"
        }
      ],
      "name": "transferOwnership",
      "outputs": [],
      "stateMutability": "nonpayable",
      "type": "function"
    },
    {
      "inputs": [],
      "name": "wNativeToken",
      "outputs": [
        {
          "internalType": "contract IWETH",
          "name": "",
          "type": "address"
        }
      ],
      "stateMutability": "view",
      "type": "function"
    },
    {
      "stateMutability": "payable",
      "type": "receive"
    }
  ],
  "transactionHash": "0x0cde7bbcf030ed5ea7aa2b3cefeac5252f96c7ea8c1b1102d29d43c3b4cb69cf",
  "args": [
    "0x17B50399918383eDF842DeCa072430684ec1f9e7",
    "0x0d500b1d8e8ef31e21c99d1db9a6444d3adf1270"
  ],
  "numDeployments": 1,
  "solcInputHash": "ba5e6ef7dc4ccd5eb178e770fac39322",
  "bytecode": "0x60c03461009257601f610dc038819003918201601f19168301916001600160401b038311848410176100975780849260409485528339810103126100925780610056602061004f61005c946100ad565b92016100ad565b906100c1565b604051610ca8908161011882396080518181816101ed015281816103fc0152610aae015260a0518181816101a701526104d30152f35b600080fd5b634e487b7160e01b600052604160045260246000fd5b51906001600160a01b038216820361009257565b60008054336001600160a01b03198216811783556040516001600160a01b039594869490938516917f8be0079c531659141344cd1fd0a4f28419497f9722a3daafe3b4186f6b6457e09190a3166080521660a05256fe6080604052600436101561001b575b361561001957600080fd5b005b60003560e01c8063150b7a02146100cf57806359c91f19146100c65780635fb7bd57146100bd5780636dbf2fa0146100b4578063715018a6146100ab578063883b03c7146100a25780638da5cb5b14610099578063b27acf77146100905763f2fde38b0361000e5761008b610675565b61000e565b5061008b610600565b5061008b6105d6565b5061008b6103b4565b5061008b610352565b5061008b610273565b5061008b6101d6565b5061008b610190565b5061008b610129565b6001600160a01b038116036100e957565b600080fd5b35906100f9826100d8565b565b9181601f840112156100e95782359167ffffffffffffffff83116100e957602083818601950101116100e957565b50346100e95760803660031901126100e9576101466004356100d8565b6101516024356100d8565b60643567ffffffffffffffff81116100e9576101719036906004016100fb565b5050604051630a85bd0160e11b8152602090f35b60009103126100e957565b50346100e95760003660031901126100e9576040517f00000000000000000000000000000000000000000000000000000000000000006001600160a01b03168152602090f35b50346100e95760003660031901126100e9576040517f00000000000000000000000000000000000000000000000000000000000000006001600160a01b03168152602090f35b919091602080825283519081818401526000945b82861061025d575050806040939411610250575b601f01601f1916010190565b6000838284010152610244565b8581018201518487016040015294810194610230565b5060603660031901126100e95760043561028c816100d8565b60443567ffffffffffffffff81116100e9576000916102b0839236906004016100fb565b906102b9610742565b81604051928392833781018481520391602435906001600160a01b03165af16102e0610a3a565b90156102fa576102f6906040519182918261021c565b0390f35b60405162461bcd60e51b815260206004820152602a60248201527f436c6f7764657243616c6c65654578616d706c653a2065787465726e616c2063604482015269185b1b0819985a5b195960b21b6064820152608490fd5b50346100e9576000806003193601126103b15761036d610742565b80546001600160a01b0319811682556040519082906001600160a01b03167f8be0079c531659141344cd1fd0a4f28419497f9722a3daafe3b4186f6b6457e08284a3f35b80fd5b50346100e9576020806003193601126100e957600480359167ffffffffffffffff83116100e9576103eb61042b93369084016100fb565b6001600160a01b03949190610423337f000000000000000000000000000000000000000000000000000000000000000088161461079a565b8101906108b9565b9360005b82518110156104b657610455846104468386610a10565b5101516001600160a01b031690565b6000806104628487610a10565b515160409384610472878a610a10565b510151918983519301915af1610486610a3a565b501561049b5750610496906109eb565b61042f565b5163e3b41f2160e01b81528086019182529081906020010390fd5b6040516370a0823160e01b815230818701908152859190889088907f000000000000000000000000000000000000000000000000000000000000000087169087908690869081906020010381855afa9485156105c9575b60009561059a575b508461051d57005b600086946105566040519788968795869463a9059cbb60e01b86521690840160209093929193604081019460018060a01b031681520152565b03925af1801561058d575b61056757005b8161001992903d10610586575b61057e818361086c565b810190610a86565b503d610574565b610595610a79565b610561565b6105bb919550863d88116105c2575b6105b3818361086c565b810190610a6a565b9386610515565b503d6105a9565b6105d1610a79565b61050d565b50346100e95760003660031901126100e9576000546040516001600160a01b039091168152602090f35b5060803660031901126100e95767ffffffffffffffff6004358181116100e957366023820112156100e9578060040135908282116100e9573660246101608402830101116100e9576064359283116100e9576106636100199336906004016100fb565b92909160443591602480359201610a9e565b50346100e95760203660031901126100e957600435610693816100d8565b61069b610742565b6001600160a01b039081169081156106ee57600080546001600160a01b031981168417825560405191939192167f8be0079c531659141344cd1fd0a4f28419497f9722a3daafe3b4186f6b6457e08484a3f35b60405162461bcd60e51b815260206004820152602660248201527f4f776e61626c653a206e6577206f776e657220697320746865207a65726f206160448201526564647265737360d01b6064820152608490fd5b6000546001600160a01b0316330361075657565b606460405162461bcd60e51b815260206004820152602060248201527f4f776e61626c653a2063616c6c6572206973206e6f7420746865206f776e65726044820152fd5b156107a157565b60405162461bcd60e51b815260206004820152604360248201527f436c6f7764657243616c6c65654578616d706c653a20636c6f7764657243616c60448201527f6c2063616e206f6e6c792062652063616c6c656420627920436c6f776465724d60648201526230b4b760e91b608482015260a490fd5b50634e487b7160e01b600052604160045260246000fd5b6060810190811067ffffffffffffffff82111761084b57604052565b610853610818565b604052565b67ffffffffffffffff811161084b57604052565b90601f8019910116810190811067ffffffffffffffff82111761084b57604052565b60209067ffffffffffffffff81116108ac575b601f01601f19160190565b6108b4610818565b6108a1565b919060409081848203126100e95767ffffffffffffffff9184358381116100e95785019082601f830112156100e9578135938085116109de575b8460051b9082519460209661090a8885018861086c565b86528680870193860101948186116100e957878101935b86851061093e57505050505050509061093b9193016100ee565b90565b84358481116100e95782019060609182601f1982870301126100e9578751926109668461082f565b8b820135845288820135610979816100d8565b8c850152810135908682116100e957019084603f830112156100e9578a820135926109a38461088e565b6109af8a51918261086c565b848152868a86860101116100e95760008d8681978d839801838601378301015289820152815201940193610921565b6109e6610818565b6108f3565b60001981146109fa5760010190565b634e487b7160e01b600052601160045260246000fd5b8051821015610a245760209160051b010190565b634e487b7160e01b600052603260045260246000fd5b3d15610a65573d90610a4b8261088e565b91610a59604051938461086c565b82523d6000602084013e565b606090565b908160209103126100e9575190565b506040513d6000823e3d90fd5b908160209103126100e9575180151581036100e95790565b929491939094610aac610742565b7f00000000000000000000000000000000000000000000000000000000000000006001600160a01b031694853b156100e95760408051631b0e15a560e01b8152608060048201819052608482018a90529098899760a48901979695949390926000915b838310610b7657505050505060009694869488948694610b449460248701526044860152600319858403016064860152610c51565b03925af18015610b69575b610b565750565b80610b636100f992610858565b80610185565b610b71610a79565b610b4f565b9193995091939495969780610b9d600192610b908d6100ee565b6001600160a01b03169052565b610bbc6020610bad818e016100ee565b6001600160a01b031690830152565b8a830135818401526060808c013590820152838b01358482015260a0808c01359082015260c0808c013590820152610bfa60e0610bad818e016100ee565b610c14610100610c0b818e01610c43565b60ff1690830152565b610120808c013590820152610140808c0135908201526101608091019a01930190918b99989796959492610b0f565b359060ff821682036100e957565b908060209392818452848401376000828201840152601f01601f191601019056fea26469706673582212203a216e8dec4adefca124fc01e4b20b5e7178c5b40334315db16e9e9fb787258664736f6c634300080d0033",
  "devdoc": {
    "kind": "dev",
    "methods": {
      "owner()": {
        "details": "Returns the address of the current owner."
      },
      "renounceOwnership()": {
        "details": "Leaves the contract without owner. It will not be possible to call `onlyOwner` functions anymore. Can only be called by the current owner. NOTE: Renouncing ownership will leave the contract without an owner, thereby removing any functionality that is only available to the owner."
      },
      "transferOwnership(address)": {
        "details": "Transfers ownership of the contract to a new account (`newOwner`). Can only be called by the current owner."
      }
    },
    "version": 1
  },
  "userdoc": {
    "kind": "user",
    "methods": {},
    "version": 1
  },
  "storageLayout": {
    "storage": [
      {
        "astId": 7,
        "contract": "contracts/test/ClowderCalleeExample.sol:ClowderCalleeExample",
        "label": "_owner",
        "offset": 0,
        "slot": "0",
        "type": "t_address"
      }
    ],
    "types": {
      "t_address": {
        "encoding": "inplace",
        "label": "address",
        "numberOfBytes": "20"
      }
    }
  }
}