{
  "address": "0x17B50399918383eDF842DeCa072430684ec1f9e7",
  "abi": [
    {
      "inputs": [
        {
          "internalType": "address",
          "name": "_WETH",
          "type": "address"
        },
        {
          "internalType": "address",
          "name": "_protocolFeeReceiver",
          "type": "address"
        }
      ],
      "stateMutability": "nonpayable",
      "type": "constructor"
    },
    {
      "anonymous": false,
      "inputs": [
        {
          "indexed": true,
          "internalType": "address",
          "name": "previousOwner",
          "type": "address"
        },
        {
          "indexed": true,
          "internalType": "address",
          "name": "newOwner",
          "type": "address"
        }
      ],
      "name": "OwnershipTransferred",
      "type": "event"
    },
    {
      "inputs": [],
      "name": "EIP712_DOMAIN_SEPARATOR",
      "outputs": [
        {
          "internalType": "bytes32",
          "name": "",
          "type": "bytes32"
        }
      ],
      "stateMutability": "view",
      "type": "function"
    },
    {
      "inputs": [],
      "name": "WETH",
      "outputs": [
        {
          "internalType": "address",
          "name": "",
          "type": "address"
        }
      ],
      "stateMutability": "view",
      "type": "function"
    },
    {
      "inputs": [
        {
          "internalType": "uint256[]",
          "name": "buyOrderNonces",
          "type": "uint256[]"
        }
      ],
      "name": "cancelBuyOrders",
      "outputs": [],
      "stateMutability": "nonpayable",
      "type": "function"
    },
    {
      "inputs": [
        {
          "internalType": "uint256",
          "name": "_protocolFeeFraction",
          "type": "uint256"
        }
      ],
      "name": "changeProtocolFeeFraction",
      "outputs": [],
      "stateMutability": "nonpayable",
      "type": "function"
    },
    {
      "inputs": [
        {
          "internalType": "address",
          "name": "_protocolFeeReceiver",
          "type": "address"
        }
      ],
      "name": "changeProtocolFeeReceiver",
      "outputs": [],
      "stateMutability": "nonpayable",
      "type": "function"
    },
    {
      "inputs": [
        {
          "components": [
            {
              "internalType": "address",
              "name": "signer",
              "type": "address"
            },
            {
              "internalType": "address",
              "name": "collection",
              "type": "address"
            },
            {
              "internalType": "uint256",
              "name": "executionId",
              "type": "uint256"
            },
            {
              "internalType": "uint256",
              "name": "contribution",
              "type": "uint256"
            },
            {
              "internalType": "uint256",
              "name": "buyPrice",
              "type": "uint256"
            },
            {
              "internalType": "uint256",
              "name": "buyPriceEndTime",
              "type": "uint256"
            },
            {
              "internalType": "uint256",
              "name": "buyNonce",
              "type": "uint256"
            },
            {
              "internalType": "address",
              "name": "delegate",
              "type": "address"
            },
            {
              "internalType": "uint8",
              "name": "v",
              "type": "uint8"
            },
            {
              "internalType": "bytes32",
              "name": "r",
              "type": "bytes32"
            },
            {
              "internalType": "bytes32",
              "name": "s",
              "type": "bytes32"
            }
          ],
          "internalType": "struct BuyOrderV1[]",
          "name": "buyOrders",
          "type": "tuple[]"
        },
        {
          "internalType": "uint256",
          "name": "executorPrice",
          "type": "uint256"
        },
        {
          "internalType": "uint256",
          "name": "tokenId",
          "type": "uint256"
        },
        {
          "internalType": "bytes",
          "name": "data",
          "type": "bytes"
        }
      ],
      "name": "executeOnPassiveBuyOrders",
      "outputs": [],
      "stateMutability": "nonpayable",
      "type": "function"
    },
    {
      "inputs": [
        {
          "internalType": "uint256",
          "name": "",
          "type": "uint256"
        }
      ],
      "name": "executions",
      "outputs": [
        {
          "internalType": "address",
          "name": "collection",
          "type": "address"
        },
        {
          "internalType": "uint256",
          "name": "buyPrice",
          "type": "uint256"
        },
        {
          "internalType": "uint256",
          "name": "tokenId",
          "type": "uint256"
        }
      ],
      "stateMutability": "view",
      "type": "function"
    },
    {
      "inputs": [
        {
          "internalType": "address",
          "name": "",
          "type": "address"
        },
        {
          "internalType": "uint256",
          "name": "",
          "type": "uint256"
        }
      ],
      "name": "isUsedBuyNonce",
      "outputs": [
        {
          "internalType": "bool",
          "name": "",
          "type": "bool"
        }
      ],
      "stateMutability": "view",
      "type": "function"
    },
    {
      "inputs": [],
      "name": "owner",
      "outputs": [
        {
          "internalType": "address",
          "name": "",
          "type": "address"
        }
      ],
      "stateMutability": "view",
      "type": "function"
    },
    {
      "inputs": [],
      "name": "protocolFeeFraction",
      "outputs": [
        {
          "internalType": "uint256",
          "name": "",
          "type": "uint256"
        }
      ],
      "stateMutability": "view",
      "type": "function"
    },
    {
      "inputs": [],
      "name": "protocolFeeReceiver",
      "outputs": [
        {
          "internalType": "address",
          "name": "",
          "type": "address"
        }
      ],
      "stateMutability": "view",
      "type": "function"
    },
    {
      "inputs": [
        {
          "internalType": "address",
          "name": "",
          "type": "address"
        },
        {
          "internalType": "uint256",
          "name": "",
          "type": "uint256"
        }
      ],
      "name": "realContributions",
      "outputs": [
        {
          "internalType": "uint256",
          "name": "",
          "type": "uint256"
        }
      ],
      "stateMutability": "view",
      "type": "function"
    },
    {
      "inputs": [],
      "name": "renounceOwnership",
      "outputs": [],
      "stateMutability": "nonpayable",
      "type": "function"
    },
    {
      "inputs": [
        {
          "internalType": "address",
          "name": "newOwner",
          "type": "address"
        }
      ],
      "name": "transferOwnership",
      "outputs": [],
      "stateMutability": "nonpayable",
      "type": "function"
    }
  ],
  "transactionHash": "0xb18f6be74e02ba4fc8109db192a6047c029b4c77aba88fc51345c8e8b60055c4",
  "args": [
    "0x0d500b1d8e8ef31e21c99d1db9a6444d3adf1270",
    "0x346a7F06100A606eEA152f2281847Fa80f841894"
  ],
  "numDeployments": 1,
  "solcInputHash": "ba5e6ef7dc4ccd5eb178e770fac39322",
  "bytecode": "0x60c08060405234620001805760408162001ca480380380916200002382856200019c565b8339810103126200018057806200004c602062000044620000be94620001cf565b9201620001cf565b60008054336001600160a01b031982168117835560405193949390926001600160a01b03909216917f8be0079c531659141344cd1fd0a4f28419497f9722a3daafe3b4186f6b6457e091a36064600255600160035560805260018060a01b031660018060a01b03196001541617600155565b620000c8620001e4565b8051602091820120604080517f8b73c3c69bb8fe3d512ecc4cf759cc79239f7b179b0ffacaa9a75d522b39400f9381019384527fc34e769714204ec364edbdd9fbc375bf7fd2e3b10f22abaf631ea6006a288fa79181019190915260608101919091524660808201523060a08083019190915281526200014a60c0826200019c565b51902060a052604051611a7e90816200022682396080518181816103870152611294015260a0518181816103f101526108410152f35b600080fd5b50634e487b7160e01b600052604160045260246000fd5b601f909101601f19168101906001600160401b03821190821017620001c057604052565b620001ca62000185565b604052565b51906001600160a01b03821682036200018057565b60408051919082016001600160401b0381118382101762000215575b604052600382526218171960e91b6020830152565b6200021f62000185565b6200020056fe60806040526004361015610013575b600080fd5b60003560e01c80631b0e15a51461012b578063323d01e51461012257806339a51be5146101195780633a0298eb146101105780634bbe788214610107578063715018a6146100fe5780638da5cb5b146100f5578063ad5c4648146100ec578063bc751724146100e3578063dab400f3146100da578063e711bf1b146100d1578063e8045384146100c8578063f2fde38b146100bf5763f76c9229146100b757600080fd5b61000e610589565b5061000e6104bc565b5061000e61046b565b5061000e610414565b5061000e6103d8565b5061000e6103b6565b5061000e610370565b5061000e610346565b5061000e6102e4565b5061000e61029c565b5061000e61027d565b5061000e610253565b5061000e6101fc565b5061000e610162565b9181601f8401121561000e5782359167ffffffffffffffff831161000e576020838186019501011161000e57565b503461000e57608036600319011261000e5767ffffffffffffffff60043581811161000e573660238201121561000e5780600401359082821161000e5736602461016084028301011161000e5760643592831161000e576101ca6101dc933690600401610134565b92909160443591602480359201610722565b005b6001600160a01b0381160361000e57565b35906101fa826101de565b565b503461000e57604036600319011261000e5760043561021a816101de565b60018060a01b0316600052600560205260406000206024356000526020526020604060002054604051908152f35b600091031261000e57565b503461000e57600036600319011261000e576001546040516001600160a01b039091168152602090f35b503461000e57600036600319011261000e576020600254604051908152f35b503461000e57602036600319011261000e576004356102ba816101de565b6102c26105d5565b600180546001600160a01b0319166001600160a01b0392909216919091179055005b503461000e57600080600319360112610343576102ff6105d5565b80546001600160a01b0319811682556040519082906001600160a01b03167f8be0079c531659141344cd1fd0a4f28419497f9722a3daafe3b4186f6b6457e08284a3f35b80fd5b503461000e57600036600319011261000e576000546040516001600160a01b039091168152602090f35b503461000e57600036600319011261000e576040517f00000000000000000000000000000000000000000000000000000000000000006001600160a01b03168152602090f35b503461000e57602036600319011261000e576103d06105d5565b600435600255005b503461000e57600036600319011261000e5760206040517f00000000000000000000000000000000000000000000000000000000000000008152f35b503461000e57602036600319011261000e5760043567ffffffffffffffff80821161000e573660238301121561000e57816004013590811161000e573660248260051b8401011161000e5760246101dc9201610677565b503461000e57604036600319011261000e57600435610489816101de565b60018060a01b031660005260046020526040600020602435600052602052602060ff604060002054166040519015158152f35b503461000e57602036600319011261000e576004356104da816101de565b6104e26105d5565b6001600160a01b0390811690811561053557600080546001600160a01b031981168417825560405191939192167f8be0079c531659141344cd1fd0a4f28419497f9722a3daafe3b4186f6b6457e08484a3f35b60405162461bcd60e51b815260206004820152602660248201527f4f776e61626c653a206e6577206f776e657220697320746865207a65726f206160448201526564647265737360d01b6064820152608490fd5b503461000e57602036600319011261000e5760043560005260066020526060604060002060018060a01b0381541690600260018201549101549060405192835260208301526040820152f35b6000546001600160a01b031633036105e957565b606460405162461bcd60e51b815260206004820152602060248201527f4f776e61626c653a2063616c6c6572206973206e6f7420746865206f776e65726044820152fd5b50634e487b7160e01b600052601160045260246000fd5b6001906000198114610654570190565b61065c61062d565b0190565b50634e487b7160e01b600052603260045260246000fd5b81156106cd57600090815b83811061068f5750505050565b3360009081526004602052604090206106c891908160051b84013585526020526106c360408520600160ff19825416179055565b610644565b610682565b60405162461bcd60e51b815260206004820152602760248201527f43616e63656c3a204d7573742070726f76696465206174206c65617374206f6e60448201526665206e6f6e636560c81b6064820152608490fd5b939490929192600260035414610bdf579484906002600355610745871515610c24565b61075c61075486600254610c7e565b612710900490565b966107678887610c9d565b6040986001600160a01b0397918a91906107b28a6107ab61079e8661078c8a8d610ca9565b01356000526006602052604060002090565b546001600160a01b031690565b1615610cdb565b610834896107ff8561078c8960209c8d95886107d8886107d28686610ca9565b01610d27565b976107f36107e4610de0565b6001600160a01b03909a168a52565b88015284870152610ca9565b815181546001600160a01b0319166001600160a01b039190911617815560208201516001820155604090910151600290910155565b6000908a8c8988859786937f0000000000000000000000000000000000000000000000000000000000000000955b83861061096c57505050505050505061088793929161088191146110f0565b1461114b565b831561093657333b1561000e576108ec6108fe956108e760e0956108ca60006108f2996107d2986109069f51938492839263883b03c78e1b8452600484016111a8565b038183335af18015610929575b610910575b506107d2858c610ca9565b6114a9565b96610ca9565b6001600160a01b031690565b9116146111dd565b6101fa6001600355565b8061091d61092392610d48565b80610248565b386108dc565b6109316111d0565b6108d7565b9050610967965085945060e092506109596107d2926107d28361095f9799610ca9565b94610ca9565b903390611353565b610906565b610977868584610cbd565b9461098186610d27565b6001600160a01b0316600090815260046020908152604080832060c08a013580855292529091205460ff16156109b690610e21565b6109bf87610d27565b6001600160a01b03166000908152600460205260409020600091825260205260409020805460ff191660011790556109f73687610e83565b610a00906119a7565b88610a0a88610d27565b610a176101008a01610f22565b906101408a0135916101208b013591610a2f95611580565b610a3890610f2c565b610a484260a08801351015610f6d565b88610a533688610e83565b608001511015610a6290610fa9565b81610a6e878301610d27565b91610a798786610ca9565b01610a8390610d27565b6001600160a01b0316911614610a9890610ff5565b82610aa38584610ca9565b01358386013514610ab390611041565b60e090610ac1868301610d27565b91610acc8685610ca9565b01610ad690610d27565b6001600160a01b0316911614610aeb9061108d565b60608401359788610afc828c6110d9565b90610b0691611235565b610b11818093610c9d565b998d8d610b1d89610d27565b60015485906001600160a01b0316610b3492611247565b610b3d916110d9565b91610b47916110d9565b610b5091611235565b9a8b610b5b91610c9d565b9a3381610b6788610d27565b91610b7192611247565b610b7a91610c9d565b93610b8490610d27565b6001600160a01b0316600090815260056020526040902092610ba591610ca9565b0135610bba9190600052602052604060002090565b90815490610bc791610c9d565b9055610bd290610644565b898f8f908f918b92610862565b60405162461bcd60e51b815260206004820152601f60248201527f5265656e7472616e637947756172643a207265656e7472616e742063616c6c006044820152606490fd5b15610c2b57565b60405162461bcd60e51b815260206004820152602560248201527f457865637574653a204d7573742068617665206174206c65617374206f6e652060448201526437b93232b960d91b6064820152608490fd5b8060001904821181151516610c91570290565b610c9961062d565b0290565b81198111610654570190565b9015610cb25790565b610cba610660565b90565b9161016091811015610cce57020190565b610cd6610660565b020190565b15610ce257565b60405162461bcd60e51b815260206004820152601c60248201527f457865637574653a20496420616c7265616479206578656375746564000000006044820152606490fd5b35610cba816101de565b50634e487b7160e01b600052604160045260246000fd5b67ffffffffffffffff8111610d5c57604052565b610d64610d31565b604052565b6040810190811067ffffffffffffffff821117610d5c57604052565b6080810190811067ffffffffffffffff821117610d5c57604052565b610140810190811067ffffffffffffffff821117610d5c57604052565b90601f8019910116810190811067ffffffffffffffff821117610d5c57604052565b604051906060820182811067ffffffffffffffff821117610d5c57604052565b60405190610160820182811067ffffffffffffffff821117610d5c57604052565b15610e2857565b60405162461bcd60e51b815260206004820152601760248201527f4f72646572206e6f6e636520697320756e757361626c650000000000000000006044820152606490fd5b60ff81160361000e57565b35906101fa82610e6d565b91908261016091031261000e57610e98610e00565b91610ea2816101ef565b8352610eb0602082016101ef565b602084015260408101356040840152606081013560608401526080810135608084015260a081013560a084015260c081013560c0840152610ef360e082016101ef565b60e0840152610100610f06818301610e78565b9084015261012080820135908401526101408091013590830152565b35610cba81610e6d565b15610f3357565b60405162461bcd60e51b815260206004820152601260248201527114da59db985d1d5c994e88125b9d985b1a5960721b6044820152606490fd5b15610f7457565b60405162461bcd60e51b815260206004820152600d60248201526c13dc99195c88195e1c1a5c9959609a1b6044820152606490fd5b15610fb057565b60405162461bcd60e51b815260206004820152601860248201527f4f726465722063616e27742061636365707420707269636500000000000000006044820152606490fd5b15610ffc57565b60405162461bcd60e51b815260206004820152601960248201527f4f7264657220636f6c6c656374696f6e206d69736d61746368000000000000006044820152606490fd5b1561104857565b60405162461bcd60e51b815260206004820152601a60248201527f4f7264657220657865637574696f6e4964206d69736d617463680000000000006044820152606490fd5b1561109457565b60405162461bcd60e51b815260206004820152601760248201527f4f726465722064656c6567617465206d69736d617463680000000000000000006044820152606490fd5b8181106110e4570390565b6110ec61062d565b0390565b156110f757565b60405162461bcd60e51b815260206004820152602660248201527f50726f746f636f6c20666565206e6f74207472616e7366657272656420636f72604482015265726563746c7960d01b6064820152608490fd5b1561115257565b60405162461bcd60e51b815260206004820152602860248201527f4578656375746f72207072696365206e6f74207472616e7366657272656420636044820152676f72726563746c7960c01b6064820152608490fd5b90918060409360208452816020850152848401376000828201840152601f01601f1916010190565b506040513d6000823e3d90fd5b156111e457565b60405162461bcd60e51b8152602060048201526024808201527f44656c6567617465206973206e6f7420746865206f776e6572206f66207468656044820152630813919560e21b6064820152608490fd5b9080821015611242575090565b905090565b91908161125357505050565b6040516323b872dd60e01b602082019081526001600160a01b03948516602483015291841660448201526064808201939093529182526113169260009182917f000000000000000000000000000000000000000000000000000000000000000016906112c0608486610dbe565b82604051956112ce87610d69565b602087527f5361666545524332303a206c6f772d6c6576656c2063616c6c206661696c65646020880152611304843b151561191b565b51925af16113106116a2565b90611967565b805180611321575050565b81602080611336936101fa950101910161133b565b6118bc565b9081602091031261000e5751801515810361000e5790565b6040516301ffc9a760e01b81526380ac58cd60e01b6004820152929391926001600160a01b039190911690602081602481855afa908115611487575b600091611459575b501561140557803b1561000e57604051632142170760e11b81526001600160a01b03938416600482015293909216602484015260448301526000908290606490829084905af180156113f8575b6113eb5750565b8061091d6101fa92610d48565b6114006111d0565b6113e4565b60405162461bcd60e51b815260206004820152602260248201527f436f6c6c656374696f6e20646f6573206e6f7420737570706f72742045524337604482015261323160f01b6064820152608490fd5b0390fd5b61147a915060203d8111611480575b6114728183610dbe565b81019061133b565b38611397565b503d611468565b61148f6111d0565b61138f565b9081602091031261000e5751610cba816101de565b6040516301ffc9a760e01b81526380ac58cd60e01b6004820152602092916001600160a01b0316908381602481855afa908115611573575b600091611556575b5015611405576040516331a9108f60e11b815260048101929092528290829060249082905afa918215611549575b60009261152357505090565b610cba9250803d10611542575b61153a8183610dbe565b810190611494565b503d611530565b6115516111d0565b611517565b61156d9150843d8611611480576114728183610dbe565b386114e9565b61157b6111d0565b6114e1565b939492939092916001600160a01b038416156115f557610cba95604051956020870152604086015260ff60f81b9060f81b166060850152604184526115c484610d85565b60405190602082019261190160f01b845260228301526042820152604281526115ec81610d85565b519020906116ff565b60405162461bcd60e51b815260206004820152601d60248201527f5369676e61747572655574696c3a20496e76616c6964207369676e65720000006044820152606490fd5b91908251928382526000905b848210611673575092806020939411611666575b601f01601f1916010190565b600083828401015261165a565b90602090818082850101519082860101520190611646565b604090610cba93928152816020820152019061163a565b3d156116eb573d9067ffffffffffffffff82116116de575b604051916116d2601f8201601f191660200184610dbe565b82523d6000602084013e565b6116e6610d31565b6116ba565b606090565b9081602091031261000e575190565b909161170b81846117ce565b60058110156117b8571590816117a2575b5061179a5760009182916040516117588161174a6020820194630b135d3f60e11b998a87526024840161168b565b03601f198101835282610dbe565b51915afa906117656116a2565b8261178e575b8261177557505090565b61178a919250602080825183010191016116f0565b1490565b8051602014925061176b565b505050600190565b6001600160a01b0384811691161490503861171c565b634e487b7160e01b600052602160045260246000fd5b9060418151146000146117fc576117f8916020820151906060604084015193015160001a90611806565b9091565b5050600090600290565b9291907f7fffffffffffffffffffffffffffffff5d576e7357a4501ddfe92f46681b20a083116118b05760ff16601b811415806118a5575b611899579160809493916020936040519384528484015260408301526060820152600093849182805260015afa1561188c575b81516001600160a01b03811615611886579190565b50600190565b6118946111d0565b611871565b50505050600090600490565b50601c81141561183e565b50505050600090600390565b156118c357565b60405162461bcd60e51b815260206004820152602a60248201527f5361666545524332303a204552433230206f7065726174696f6e20646964206e6044820152691bdd081cdd58d8d9595960b21b6064820152608490fd5b1561192257565b60405162461bcd60e51b815260206004820152601d60248201527f416464726573733a2063616c6c20746f206e6f6e2d636f6e74726163740000006044820152606490fd5b90919015611973575090565b8151156119835750805190602001fd5b60405162461bcd60e51b81526020600482015290819061145590602483019061163a565b60018060a01b039081815116918060208301511691604081015191606082015160808301519060a08401519260e060c086015195015116946040519660208801987f5747656214602028f3803e6af1a359d7948c36532bd38d033969d6c4b13e73eb8a5260408901526060880152608087015260a086015260c085015260e084015261010083015261012090818301528152611a4281610da1565b5190209056fea26469706673582212202c774d6b3d4e348ced94a38a08ce137468a24d60c3888c52253117b39f1b4b8464736f6c634300080d0033",
  "libraries": {},
  "devdoc": {
    "kind": "dev",
    "methods": {
      "changeProtocolFeeFraction(uint256)": {
        "params": {
          "_protocolFeeFraction": "new fee fraction (out of 10_000)"
        }
      },
      "changeProtocolFeeReceiver(address)": {
        "params": {
          "_protocolFeeReceiver": "new receiver"
        }
      },
      "owner()": {
        "details": "Returns the address of the current owner."
      },
      "renounceOwnership()": {
        "details": "Leaves the contract without owner. It will not be possible to call `onlyOwner` functions anymore. Can only be called by the current owner. NOTE: Renouncing ownership will leave the contract without an owner, thereby removing any functionality that is only available to the owner."
      },
      "transferOwnership(address)": {
        "details": "Transfers ownership of the contract to a new account (`newOwner`). Can only be called by the current owner."
      }
    },
    "version": 1
  },
  "userdoc": {
    "kind": "user",
    "methods": {
      "changeProtocolFeeFraction(uint256)": {
        "notice": "[onlyOwner] Change the protocol fee fraction"
      },
      "changeProtocolFeeReceiver(address)": {
        "notice": "[onlyOwner] Change the protocol fee receiver"
      },
      "executeOnPassiveBuyOrders((address,address,uint256,uint256,uint256,uint256,uint256,address,uint8,bytes32,bytes32)[],uint256,uint256,bytes)": {
        "notice": "Executes on an array of passive buy orders"
      }
    },
    "version": 1
  },
  "storageLayout": {
    "storage": [
      {
        "astId": 7,
        "contract": "contracts/ClowderMain.sol:ClowderMain",
        "label": "_owner",
        "offset": 0,
        "slot": "0",
        "type": "t_address"
      },
      {
        "astId": 2234,
        "contract": "contracts/ClowderMain.sol:ClowderMain",
        "label": "protocolFeeReceiver",
        "offset": 0,
        "slot": "1",
        "type": "t_address"
      },
      {
        "astId": 2237,
        "contract": "contracts/ClowderMain.sol:ClowderMain",
        "label": "protocolFeeFraction",
        "offset": 0,
        "slot": "2",
        "type": "t_uint256"
      },
      {
        "astId": 137,
        "contract": "contracts/ClowderMain.sol:ClowderMain",
        "label": "_status",
        "offset": 0,
        "slot": "3",
        "type": "t_uint256"
      },
      {
        "astId": 2278,
        "contract": "contracts/ClowderMain.sol:ClowderMain",
        "label": "isUsedBuyNonce",
        "offset": 0,
        "slot": "4",
        "type": "t_mapping(t_address,t_mapping(t_uint256,t_bool))"
      },
      {
        "astId": 2284,
        "contract": "contracts/ClowderMain.sol:ClowderMain",
        "label": "realContributions",
        "offset": 0,
        "slot": "5",
        "type": "t_mapping(t_address,t_mapping(t_uint256,t_uint256))"
      },
      {
        "astId": 2289,
        "contract": "contracts/ClowderMain.sol:ClowderMain",
        "label": "executions",
        "offset": 0,
        "slot": "6",
        "type": "t_mapping(t_uint256,t_struct(Execution)2910_storage)"
      }
    ],
    "types": {
      "t_address": {
        "encoding": "inplace",
        "label": "address",
        "numberOfBytes": "20"
      },
      "t_bool": {
        "encoding": "inplace",
        "label": "bool",
        "numberOfBytes": "1"
      },
      "t_mapping(t_address,t_mapping(t_uint256,t_bool))": {
        "encoding": "mapping",
        "key": "t_address",
        "label": "mapping(address => mapping(uint256 => bool))",
        "numberOfBytes": "32",
        "value": "t_mapping(t_uint256,t_bool)"
      },
      "t_mapping(t_address,t_mapping(t_uint256,t_uint256))": {
        "encoding": "mapping",
        "key": "t_address",
        "label": "mapping(address => mapping(uint256 => uint256))",
        "numberOfBytes": "32",
        "value": "t_mapping(t_uint256,t_uint256)"
      },
      "t_mapping(t_uint256,t_bool)": {
        "encoding": "mapping",
        "key": "t_uint256",
        "label": "mapping(uint256 => bool)",
        "numberOfBytes": "32",
        "value": "t_bool"
      },
      "t_mapping(t_uint256,t_struct(Execution)2910_storage)": {
        "encoding": "mapping",
        "key": "t_uint256",
        "label": "mapping(uint256 => struct Execution)",
        "numberOfBytes": "32",
        "value": "t_struct(Execution)2910_storage"
      },
      "t_mapping(t_uint256,t_uint256)": {
        "encoding": "mapping",
        "key": "t_uint256",
        "label": "mapping(uint256 => uint256)",
        "numberOfBytes": "32",
        "value": "t_uint256"
      },
      "t_struct(Execution)2910_storage": {
        "encoding": "inplace",
        "label": "struct Execution",
        "members": [
          {
            "astId": 2905,
            "contract": "contracts/ClowderMain.sol:ClowderMain",
            "label": "collection",
            "offset": 0,
            "slot": "0",
            "type": "t_address"
          },
          {
            "astId": 2907,
            "contract": "contracts/ClowderMain.sol:ClowderMain",
            "label": "buyPrice",
            "offset": 0,
            "slot": "1",
            "type": "t_uint256"
          },
          {
            "astId": 2909,
            "contract": "contracts/ClowderMain.sol:ClowderMain",
            "label": "tokenId",
            "offset": 0,
            "slot": "2",
            "type": "t_uint256"
          }
        ],
        "numberOfBytes": "96"
      },
      "t_uint256": {
        "encoding": "inplace",
        "label": "uint256",
        "numberOfBytes": "32"
      }
    }
  }
}