{
  "address": "0x22990D7E4a7700030935C25862fC8935c63705BB",
  "abi": [
    {
      "inputs": [
        {
          "internalType": "address",
          "name": "_implementation",
          "type": "address"
        }
      ],
      "stateMutability": "nonpayable",
      "type": "constructor"
    },
    {
      "inputs": [
        {
          "internalType": "address[]",
          "name": "accounts",
          "type": "address[]"
        },
        {
          "internalType": "uint256[]",
          "name": "contributions",
          "type": "uint256[]"
        },
        {
          "internalType": "uint256",
          "name": "totalContributions",
          "type": "uint256"
        }
      ],
      "name": "createNewClone",
      "outputs": [
        {
          "internalType": "address",
          "name": "",
          "type": "address"
        }
      ],
      "stateMutability": "nonpayable",
      "type": "function"
    },
    {
      "inputs": [],
      "name": "implementationContract",
      "outputs": [
        {
          "internalType": "address",
          "name": "",
          "type": "address"
        }
      ],
      "stateMutability": "view",
      "type": "function"
    }
  ],
  "transactionHash": "0x5368ffeb2840889a88994f1ef3b847eac00e7f3d76eb10dd1ec67b274bfc5d94",
  "args": [
    "0x8Cf72a00B388baE1c4A1b9C227f2f3f367C559eF"
  ],
  "numDeployments": 1,
  "solcInputHash": "1679e9aeb6ed67b566e3a7dcd83232cb",
  "bytecode": "0x60a03461007157601f6104ca38819003918201601f19168301916001600160401b038311848410176100765780849260209460405283398101031261007157516001600160a01b03811681036100715760805260405161043d908161008d823960805181818161020d01526102f50152f35b600080fd5b634e487b7160e01b600052604160045260246000fdfe60806040526004361015610013575b600080fd5b6000803560e01c9081635c64f6191461003e57506399e7d0561461003657600080fd5b61000e6101f6565b346100fa5760603660031901126100fa576004359067ffffffffffffffff908183116100fa57366023840112156100fa57826004013561007d81610160565b9361008b6040519586610131565b81855260209160248387019160051b8301019136831161011657602401905b8282106100fd57505050506024359182116100fa576100f66100dc846100d33660048701610198565b604435916102e3565b6040516001600160a01b0390911681529081906020820190565b0390f35b80fd5b838091833561010b81610187565b8152019101906100aa565b8480fd5b50634e487b7160e01b600052604160045260246000fd5b90601f8019910116810190811067ffffffffffffffff82111761015357604052565b61015b61011a565b604052565b60209067ffffffffffffffff811161017a575b60051b0190565b61018261011a565b610173565b6001600160a01b0381160361000e57565b81601f8201121561000e578035916101af83610160565b926101bd6040519485610131565b808452602092838086019260051b82010192831161000e578301905b8282106101e7575050505090565b813581529083019083016101d9565b503461000e57600036600319011261000e576040517f00000000000000000000000000000000000000000000000000000000000000006001600160a01b03168152602090f35b9081602091031261000e575161025181610187565b90565b93929160608501606086528251809152608086019060208094019060005b8181106102b9575050508581038387015282808351928381520192019260005b8281106102a55750505060409150930152565b845184529381019392810192600101610292565b82516001600160a01b031684529285019291850191600101610272565b506040513d6000823e3d90fd5b6e5af43d82803e903d91602b57fd5bf37f0000000000000000000000000000000000000000000000000000000000000000763d602d80600a3d3981f3363d3d373d3d3d363d7300000062ffffff8260881c161760005260781b17602052603760096000f0926001600160a01b03841680156103c95761037e93600060209460405196879586948593635c64f61960e01b855260048501610254565b03925af180156103bc575b610391575090565b6103b19060203d81116103b5575b6103a98183610131565b81019061023c565b5090565b503d61039f565b6103c46102d6565b610389565b60405162461bcd60e51b8152602060048201526016602482015275115490cc4c4d8dce8818dc99585d194819985a5b195960521b6044820152606490fdfea2646970667358221220ed21444e62d8b0691fb5396def61019b5c4d04a20271c7ea3fcc519905453d7064736f6c634300080d0033",
  "devdoc": {
    "kind": "dev",
    "methods": {},
    "version": 1
  },
  "userdoc": {
    "kind": "user",
    "methods": {},
    "version": 1
  },
  "storageLayout": {
    "storage": [],
    "types": null
  }
}