{
  "address": "0xf63F456554CbB67649a55Db657e5F63563e0Af3F",
  "abi": [
    {
      "inputs": [
        {
          "internalType": "address",
          "name": "_clowderMain",
          "type": "address"
        },
        {
          "internalType": "address",
          "name": "_wNativeToken",
          "type": "address"
        },
        {
          "internalType": "address",
          "name": "_owner",
          "type": "address"
        }
      ],
      "stateMutability": "nonpayable",
      "type": "constructor"
    },
    {
      "inputs": [
        {
          "internalType": "uint256",
          "name": "index",
          "type": "uint256"
        }
      ],
      "name": "ExternalCallFailed",
      "type": "error"
    },
    {
      "anonymous": false,
      "inputs": [
        {
          "indexed": true,
          "internalType": "address",
          "name": "previousOwner",
          "type": "address"
        },
        {
          "indexed": true,
          "internalType": "address",
          "name": "newOwner",
          "type": "address"
        }
      ],
      "name": "OwnershipTransferred",
      "type": "event"
    },
    {
      "inputs": [
        {
          "internalType": "address payable",
          "name": "_to",
          "type": "address"
        },
        {
          "internalType": "uint256",
          "name": "_value",
          "type": "uint256"
        },
        {
          "internalType": "bytes",
          "name": "_data",
          "type": "bytes"
        }
      ],
      "name": "call",
      "outputs": [
        {
          "internalType": "bytes",
          "name": "",
          "type": "bytes"
        }
      ],
      "stateMutability": "payable",
      "type": "function"
    },
    {
      "inputs": [
        {
          "internalType": "address",
          "name": "_clowderMain",
          "type": "address"
        }
      ],
      "name": "changeClowderMainAddress",
      "outputs": [],
      "stateMutability": "nonpayable",
      "type": "function"
    },
    {
      "inputs": [
        {
          "internalType": "bytes",
          "name": "data",
          "type": "bytes"
        }
      ],
      "name": "clowderCall",
      "outputs": [],
      "stateMutability": "nonpayable",
      "type": "function"
    },
    {
      "inputs": [],
      "name": "clowderMain",
      "outputs": [
        {
          "internalType": "contract IClowderMain",
          "name": "",
          "type": "address"
        }
      ],
      "stateMutability": "view",
      "type": "function"
    },
    {
      "inputs": [
        {
          "components": [
            {
              "internalType": "address",
              "name": "signer",
              "type": "address"
            },
            {
              "internalType": "address",
              "name": "collection",
              "type": "address"
            },
            {
              "internalType": "uint256",
              "name": "executionId",
              "type": "uint256"
            },
            {
              "internalType": "uint256",
              "name": "contribution",
              "type": "uint256"
            },
            {
              "internalType": "uint256",
              "name": "buyPrice",
              "type": "uint256"
            },
            {
              "internalType": "uint256",
              "name": "buyPriceEndTime",
              "type": "uint256"
            },
            {
              "internalType": "uint256",
              "name": "buyNonce",
              "type": "uint256"
            },
            {
              "internalType": "address",
              "name": "delegate",
              "type": "address"
            },
            {
              "internalType": "uint8",
              "name": "v",
              "type": "uint8"
            },
            {
              "internalType": "bytes32",
              "name": "r",
              "type": "bytes32"
            },
            {
              "internalType": "bytes32",
              "name": "s",
              "type": "bytes32"
            }
          ],
          "internalType": "struct BuyOrderV1[]",
          "name": "buyOrders",
          "type": "tuple[]"
        },
        {
          "internalType": "uint256",
          "name": "executorPrice",
          "type": "uint256"
        },
        {
          "internalType": "uint256",
          "name": "tokenId",
          "type": "uint256"
        },
        {
          "internalType": "bytes",
          "name": "data",
          "type": "bytes"
        }
      ],
      "name": "execute",
      "outputs": [],
      "stateMutability": "payable",
      "type": "function"
    },
    {
      "inputs": [
        {
          "internalType": "address",
          "name": "operator",
          "type": "address"
        },
        {
          "internalType": "address",
          "name": "from",
          "type": "address"
        },
        {
          "internalType": "uint256",
          "name": "tokenId",
          "type": "uint256"
        },
        {
          "internalType": "bytes",
          "name": "data",
          "type": "bytes"
        }
      ],
      "name": "onERC721Received",
      "outputs": [
        {
          "internalType": "bytes4",
          "name": "",
          "type": "bytes4"
        }
      ],
      "stateMutability": "pure",
      "type": "function"
    },
    {
      "inputs": [],
      "name": "owner",
      "outputs": [
        {
          "internalType": "address",
          "name": "",
          "type": "address"
        }
      ],
      "stateMutability": "view",
      "type": "function"
    },
    {
      "inputs": [],
      "name": "renounceOwnership",
      "outputs": [],
      "stateMutability": "nonpayable",
      "type": "function"
    },
    {
      "inputs": [
        {
          "internalType": "address",
          "name": "newOwner",
          "type": "address"
        }
      ],
      "name": "transferOwnership",
      "outputs": [],
      "stateMutability": "nonpayable",
      "type": "function"
    },
    {
      "inputs": [],
      "name": "wNativeToken",
      "outputs": [
        {
          "internalType": "contract IWETH",
          "name": "",
          "type": "address"
        }
      ],
      "stateMutability": "view",
      "type": "function"
    },
    {
      "stateMutability": "payable",
      "type": "receive"
    }
  ],
  "transactionHash": "0x789cabb006c57b711f9c5b0cf66b066cfc40e7721d14f359094f9a023849bfb2",
  "args": [
    "0x6F6faA6ffc43d8d4ed140f3809A38d4773D35aA6",
    "0x4200000000000000000000000000000000000006",
    "0x0f576D7d47c4e6053Ff9231Cb0081269700815Bc"
  ],
  "numDeployments": 1,
  "solcInputHash": "5a6cf1ce64e423276d3f8ce7ef891aef",
  "bytecode": "0x60a03461008957601f610e1338819003918201601f19168301916001600160401b0383118484101761008e57808492606094604052833981010312610089578061004b61006a926100a4565b90610064604061005d602084016100a4565b92016100a4565b916100b8565b604051610cd9908161013a82396080518181816101bb01526104920152f35b600080fd5b634e487b7160e01b600052604160045260246000fd5b51906001600160a01b038216820361008957565b6100eb92916100c6336100ed565b600180546001600160a01b0319166001600160a01b03938416179055166080526100ed565b565b600080546001600160a01b039283166001600160a01b03198216811783556040519093909116917f8be0079c531659141344cd1fd0a4f28419497f9722a3daafe3b4186f6b6457e091a356fe6080604052600436101561001b575b361561001957600080fd5b005b60003560e01c8063150b7a02146100e357806359c91f19146100da5780635fb7bd57146100d15780636dbf2fa0146100c8578063715018a6146100bf5780637bbbc49a146100b6578063883b03c7146100ad5780638da5cb5b146100a4578063b27acf771461009b5763f2fde38b0361000e576100966106bf565b61000e565b5061009661064a565b50610096610620565b506100966103f4565b506100966103ac565b5061009661034a565b5061009661026b565b506100966101ea565b506100966101a4565b5061009661013d565b6001600160a01b038116036100fd57565b600080fd5b359061010d826100ec565b565b9181601f840112156100fd5782359167ffffffffffffffff83116100fd57602083818601950101116100fd57565b50346100fd5760803660031901126100fd5761015a6004356100ec565b6101656024356100ec565b60643567ffffffffffffffff81116100fd5761018590369060040161010f565b5050604051630a85bd0160e11b8152602090f35b60009103126100fd57565b50346100fd5760003660031901126100fd576040517f00000000000000000000000000000000000000000000000000000000000000006001600160a01b03168152602090f35b50346100fd5760003660031901126100fd576001546040516001600160a01b039091168152602090f35b919091602080825283519081818401526000945b828610610255575050806040939411610248575b601f01601f1916010190565b600083828401015261023c565b8581018201518487016040015294810194610228565b5060603660031901126100fd57600435610284816100ec565b60443567ffffffffffffffff81116100fd576000916102a88392369060040161010f565b906102b161078c565b81604051928392833781018481520391602435906001600160a01b03165af16102d8610a84565b90156102f2576102ee9060405191829182610214565b0390f35b60405162461bcd60e51b815260206004820152602a60248201527f436c6f7764657243616c6c65654578616d706c653a2065787465726e616c2063604482015269185b1b0819985a5b195960b21b6064820152608490fd5b50346100fd576000806003193601126103a95761036561078c565b80546001600160a01b0319811682556040519082906001600160a01b03167f8be0079c531659141344cd1fd0a4f28419497f9722a3daafe3b4186f6b6457e08284a3f35b80fd5b50346100fd5760203660031901126100fd576004356103ca816100ec565b6103d261078c565b600180546001600160a01b0319166001600160a01b0392909216919091179055005b50346100fd576020806003193601126100fd576004803567ffffffffffffffff81116100fd5761042a610463913690840161010f565b919060019261045b610454610448610448875460018060a01b031690565b6001600160a01b031690565b33146107e4565b810190610903565b91906000825b610593575b50506040516370a0823160e01b815230848201908152909391506001600160a01b037f00000000000000000000000000000000000000000000000000000000000000008116918690869081906020010381855afa948515610586575b600095610557575b50846104da57005b600086946105136040519788968795869463a9059cbb60e01b86521690840160209093929193604081019460018060a01b031681520152565b03925af1801561054a575b61052457005b8161001992903d10610543575b61053b81836108b6565b810190610ad0565b503d610531565b610552610ac3565b61051e565b610578919550863d881161057f575b61057081836108b6565b810190610ab4565b93386104d2565b503d610566565b61058e610ac3565b6104ca565b815181101561061b576105b9866105aa8385610a5a565b5101516001600160a01b031690565b6000806105c68486610a5a565b5151604093846105d68789610a5a565b510151918b83519301915af16105ea610a84565b501561060057506105fa90610a35565b82610469565b5163e3b41f2160e01b81528086019182529081906020010390fd5b61046e565b50346100fd5760003660031901126100fd576000546040516001600160a01b039091168152602090f35b5060803660031901126100fd5767ffffffffffffffff6004358181116100fd57366023820112156100fd578060040135908282116100fd573660246101608402830101116100fd576064359283116100fd576106ad61001993369060040161010f565b92909160443591602480359201610ae8565b50346100fd5760203660031901126100fd576004356106dd816100ec565b6106e561078c565b6001600160a01b0390811690811561073857600080546001600160a01b031981168417825560405191939192167f8be0079c531659141344cd1fd0a4f28419497f9722a3daafe3b4186f6b6457e08484a3f35b60405162461bcd60e51b815260206004820152602660248201527f4f776e61626c653a206e6577206f776e657220697320746865207a65726f206160448201526564647265737360d01b6064820152608490fd5b6000546001600160a01b031633036107a057565b606460405162461bcd60e51b815260206004820152602060248201527f4f776e61626c653a2063616c6c6572206973206e6f7420746865206f776e65726044820152fd5b156107eb57565b60405162461bcd60e51b815260206004820152604360248201527f436c6f7764657243616c6c65654578616d706c653a20636c6f7764657243616c60448201527f6c2063616e206f6e6c792062652063616c6c656420627920436c6f776465724d60648201526230b4b760e91b608482015260a490fd5b50634e487b7160e01b600052604160045260246000fd5b6060810190811067ffffffffffffffff82111761089557604052565b61089d610862565b604052565b67ffffffffffffffff811161089557604052565b90601f8019910116810190811067ffffffffffffffff82111761089557604052565b60209067ffffffffffffffff81116108f6575b601f01601f19160190565b6108fe610862565b6108eb565b919060409081848203126100fd5767ffffffffffffffff9184358381116100fd5785019082601f830112156100fd57813593808511610a28575b8460051b90825194602096610954888501886108b6565b86528680870193860101948186116100fd57878101935b868510610988575050505050505090610985919301610102565b90565b84358481116100fd5782019060609182601f1982870301126100fd578751926109b084610879565b8b8201358452888201356109c3816100ec565b8c850152810135908682116100fd57019084603f830112156100fd578a820135926109ed846108d8565b6109f98a5191826108b6565b848152868a86860101116100fd5760008d8681978d83980183860137830101528982015281520194019361096b565b610a30610862565b61093d565b6000198114610a445760010190565b634e487b7160e01b600052601160045260246000fd5b8051821015610a6e5760209160051b010190565b634e487b7160e01b600052603260045260246000fd5b3d15610aaf573d90610a95826108d8565b91610aa360405193846108b6565b82523d6000602084013e565b606090565b908160209103126100fd575190565b506040513d6000823e3d90fd5b908160209103126100fd575180151581036100fd5790565b929491939094610af661078c565b600180546001600160a01b03169590863b156100fd5796949392919060408051988997631b0e15a560e01b89526084890192816080948560048d01525260a48a0198936000915b838310610ba55750505050505060009694869488948694610b739460248701526044860152600319858403016064860152610c82565b03925af18015610b98575b610b855750565b80610b9261010d926108a2565b80610199565b610ba0610ac3565b610b7e565b91939596979899859b50610bcc81610bbf89949698610102565b6001600160a01b03169052565b610beb6020610bdc818f01610102565b6001600160a01b031690830152565b8b830135818401526060808d013590820152838c01358482015260a0808d01359082015260c0808d013590820152610c2960e0610bdc818f01610102565b610c43610100610c3a818f01610c74565b60ff1690830152565b610120808d013590820152610140808d0135908201526101608091019b01930190918c9a9998979695939492610b3d565b359060ff821682036100fd57565b908060209392818452848401376000828201840152601f01601f191601019056fea264697066735822122097d855d31e8912c11e5eb010a19c8f6ef3218f4c8312d233bd7676e54fcbdb6464736f6c634300080d0033",
  "devdoc": {
    "kind": "dev",
    "methods": {
      "owner()": {
        "details": "Returns the address of the current owner."
      },
      "renounceOwnership()": {
        "details": "Leaves the contract without owner. It will not be possible to call `onlyOwner` functions. Can only be called by the current owner. NOTE: Renouncing ownership will leave the contract without an owner, thereby disabling any functionality that is only available to the owner."
      },
      "transferOwnership(address)": {
        "details": "Transfers ownership of the contract to a new account (`newOwner`). Can only be called by the current owner."
      }
    },
    "version": 1
  },
  "userdoc": {
    "kind": "user",
    "methods": {},
    "version": 1
  },
  "storageLayout": {
    "storage": [
      {
        "astId": 7,
        "contract": "contracts/test/ClowderCalleeExample.sol:ClowderCalleeExample",
        "label": "_owner",
        "offset": 0,
        "slot": "0",
        "type": "t_address"
      },
      {
        "astId": 7858,
        "contract": "contracts/test/ClowderCalleeExample.sol:ClowderCalleeExample",
        "label": "clowderMain",
        "offset": 0,
        "slot": "1",
        "type": "t_contract(IClowderMain)7549"
      }
    ],
    "types": {
      "t_address": {
        "encoding": "inplace",
        "label": "address",
        "numberOfBytes": "20"
      },
      "t_contract(IClowderMain)7549": {
        "encoding": "inplace",
        "label": "contract IClowderMain",
        "numberOfBytes": "20"
      }
    }
  }
}