{
  "address": "0x0012292bCfbD99fde00faE872668379E5F0090C5",
  "abi": [
    {
      "inputs": [
        {
          "internalType": "address",
          "name": "_WETH",
          "type": "address"
        },
        {
          "internalType": "address",
          "name": "_protocolFeeReceiver",
          "type": "address"
        }
      ],
      "stateMutability": "nonpayable",
      "type": "constructor"
    },
    {
      "anonymous": false,
      "inputs": [
        {
          "components": [
            {
              "internalType": "address",
              "name": "exchange",
              "type": "address"
            },
            {
              "internalType": "address",
              "name": "maker",
              "type": "address"
            },
            {
              "internalType": "address",
              "name": "taker",
              "type": "address"
            },
            {
              "internalType": "uint256",
              "name": "makerRelayerFee",
              "type": "uint256"
            },
            {
              "internalType": "uint256",
              "name": "takerRelayerFee",
              "type": "uint256"
            },
            {
              "internalType": "uint256",
              "name": "makerProtocolFee",
              "type": "uint256"
            },
            {
              "internalType": "uint256",
              "name": "takerProtocolFee",
              "type": "uint256"
            },
            {
              "internalType": "address",
              "name": "feeRecipient",
              "type": "address"
            },
            {
              "internalType": "enum OpenSeaUtil.FeeMethod",
              "name": "feeMethod",
              "type": "uint8"
            },
            {
              "internalType": "enum SaleKindInterface.Side",
              "name": "side",
              "type": "uint8"
            },
            {
              "internalType": "enum SaleKindInterface.SaleKind",
              "name": "saleKind",
              "type": "uint8"
            },
            {
              "internalType": "address",
              "name": "target",
              "type": "address"
            },
            {
              "internalType": "enum AuthenticatedProxy.HowToCall",
              "name": "howToCall",
              "type": "uint8"
            },
            {
              "internalType": "bytes",
              "name": "calldata2",
              "type": "bytes"
            },
            {
              "internalType": "bytes",
              "name": "replacementPattern",
              "type": "bytes"
            },
            {
              "internalType": "address",
              "name": "staticTarget",
              "type": "address"
            },
            {
              "internalType": "bytes",
              "name": "staticExtradata",
              "type": "bytes"
            },
            {
              "internalType": "address",
              "name": "paymentToken",
              "type": "address"
            },
            {
              "internalType": "uint256",
              "name": "basePrice",
              "type": "uint256"
            },
            {
              "internalType": "uint256",
              "name": "extra",
              "type": "uint256"
            },
            {
              "internalType": "uint256",
              "name": "listingTime",
              "type": "uint256"
            },
            {
              "internalType": "uint256",
              "name": "expirationTime",
              "type": "uint256"
            },
            {
              "internalType": "uint256",
              "name": "salt",
              "type": "uint256"
            }
          ],
          "indexed": false,
          "internalType": "struct OpenSeaUtil.OpenSeaOrder",
          "name": "order",
          "type": "tuple"
        },
        {
          "indexed": false,
          "internalType": "bytes32",
          "name": "paramsOrderHash",
          "type": "bytes32"
        }
      ],
      "name": "OpenSeaOrderSet",
      "type": "event"
    },
    {
      "anonymous": false,
      "inputs": [
        {
          "indexed": true,
          "internalType": "address",
          "name": "previousOwner",
          "type": "address"
        },
        {
          "indexed": true,
          "internalType": "address",
          "name": "newOwner",
          "type": "address"
        }
      ],
      "name": "OwnershipTransferred",
      "type": "event"
    },
    {
      "inputs": [],
      "name": "EIP712_DOMAIN_SEPARATOR",
      "outputs": [
        {
          "internalType": "bytes32",
          "name": "",
          "type": "bytes32"
        }
      ],
      "stateMutability": "view",
      "type": "function"
    },
    {
      "inputs": [],
      "name": "WETH",
      "outputs": [
        {
          "internalType": "address",
          "name": "",
          "type": "address"
        }
      ],
      "stateMutability": "view",
      "type": "function"
    },
    {
      "inputs": [
        {
          "internalType": "uint256[]",
          "name": "buyOrderNonces",
          "type": "uint256[]"
        }
      ],
      "name": "cancelBuyOrders",
      "outputs": [],
      "stateMutability": "nonpayable",
      "type": "function"
    },
    {
      "inputs": [
        {
          "internalType": "uint256[]",
          "name": "sellOrderNonces",
          "type": "uint256[]"
        }
      ],
      "name": "cancelSellOrders",
      "outputs": [],
      "stateMutability": "nonpayable",
      "type": "function"
    },
    {
      "inputs": [
        {
          "internalType": "uint256",
          "name": "_minConsensusForSellingOverOrEqualBuyPrice",
          "type": "uint256"
        }
      ],
      "name": "changeMinConsensusForSellingOverOrEqualBuyPrice",
      "outputs": [],
      "stateMutability": "nonpayable",
      "type": "function"
    },
    {
      "inputs": [
        {
          "internalType": "uint256",
          "name": "_minConsensusForSellingUnderBuyPrice",
          "type": "uint256"
        }
      ],
      "name": "changeMinConsensusForSellingUnderBuyPrice",
      "outputs": [],
      "stateMutability": "nonpayable",
      "type": "function"
    },
    {
      "inputs": [
        {
          "internalType": "uint256",
          "name": "_protocolFeeFraction",
          "type": "uint256"
        }
      ],
      "name": "changeProtocolFeeFraction",
      "outputs": [],
      "stateMutability": "nonpayable",
      "type": "function"
    },
    {
      "inputs": [
        {
          "internalType": "uint256",
          "name": "_protocolFeeFractionFromSelling",
          "type": "uint256"
        }
      ],
      "name": "changeProtocolFeeFractionFromSelling",
      "outputs": [],
      "stateMutability": "nonpayable",
      "type": "function"
    },
    {
      "inputs": [
        {
          "internalType": "address",
          "name": "_protocolFeeReceiver",
          "type": "address"
        }
      ],
      "name": "changeProtocolFeeReceiver",
      "outputs": [],
      "stateMutability": "nonpayable",
      "type": "function"
    },
    {
      "inputs": [
        {
          "internalType": "uint256",
          "name": "executionId",
          "type": "uint256"
        },
        {
          "internalType": "address",
          "name": "to",
          "type": "address"
        }
      ],
      "name": "claimNft",
      "outputs": [],
      "stateMutability": "nonpayable",
      "type": "function"
    },
    {
      "inputs": [
        {
          "internalType": "uint256[]",
          "name": "executionIds",
          "type": "uint256[]"
        },
        {
          "internalType": "address",
          "name": "to",
          "type": "address"
        }
      ],
      "name": "claimProceeds",
      "outputs": [],
      "stateMutability": "nonpayable",
      "type": "function"
    },
    {
      "inputs": [
        {
          "internalType": "uint256[]",
          "name": "executionIds",
          "type": "uint256[]"
        }
      ],
      "name": "claimProtocolFees",
      "outputs": [],
      "stateMutability": "nonpayable",
      "type": "function"
    },
    {
      "inputs": [
        {
          "components": [
            {
              "internalType": "address",
              "name": "signer",
              "type": "address"
            },
            {
              "internalType": "address",
              "name": "collection",
              "type": "address"
            },
            {
              "internalType": "uint256",
              "name": "executionId",
              "type": "uint256"
            },
            {
              "internalType": "uint256",
              "name": "contribution",
              "type": "uint256"
            },
            {
              "internalType": "uint256",
              "name": "buyPrice",
              "type": "uint256"
            },
            {
              "internalType": "uint256",
              "name": "buyPriceEndTime",
              "type": "uint256"
            },
            {
              "internalType": "uint256",
              "name": "buyNonce",
              "type": "uint256"
            },
            {
              "internalType": "uint256",
              "name": "sellPrice",
              "type": "uint256"
            },
            {
              "internalType": "uint256",
              "name": "sellPriceEndTime",
              "type": "uint256"
            },
            {
              "internalType": "uint256",
              "name": "sellNonce",
              "type": "uint256"
            },
            {
              "internalType": "uint8",
              "name": "v",
              "type": "uint8"
            },
            {
              "internalType": "bytes32",
              "name": "r",
              "type": "bytes32"
            },
            {
              "internalType": "bytes32",
              "name": "s",
              "type": "bytes32"
            }
          ],
          "internalType": "struct BuyOrderV1[]",
          "name": "buyOrders",
          "type": "tuple[]"
        },
        {
          "internalType": "uint256",
          "name": "executorPrice",
          "type": "uint256"
        },
        {
          "internalType": "uint256",
          "name": "tokenId",
          "type": "uint256"
        }
      ],
      "name": "executeOnPassiveBuyOrders",
      "outputs": [],
      "stateMutability": "nonpayable",
      "type": "function"
    },
    {
      "inputs": [
        {
          "components": [
            {
              "internalType": "address",
              "name": "signer",
              "type": "address"
            },
            {
              "internalType": "address",
              "name": "collection",
              "type": "address"
            },
            {
              "internalType": "uint256",
              "name": "executionId",
              "type": "uint256"
            },
            {
              "internalType": "uint256",
              "name": "contribution",
              "type": "uint256"
            },
            {
              "internalType": "uint256",
              "name": "buyPrice",
              "type": "uint256"
            },
            {
              "internalType": "uint256",
              "name": "buyPriceEndTime",
              "type": "uint256"
            },
            {
              "internalType": "uint256",
              "name": "buyNonce",
              "type": "uint256"
            },
            {
              "internalType": "uint256",
              "name": "sellPrice",
              "type": "uint256"
            },
            {
              "internalType": "uint256",
              "name": "sellPriceEndTime",
              "type": "uint256"
            },
            {
              "internalType": "uint256",
              "name": "sellNonce",
              "type": "uint256"
            },
            {
              "internalType": "uint8",
              "name": "v",
              "type": "uint8"
            },
            {
              "internalType": "bytes32",
              "name": "r",
              "type": "bytes32"
            },
            {
              "internalType": "bytes32",
              "name": "s",
              "type": "bytes32"
            }
          ],
          "internalType": "struct BuyOrderV1[]",
          "name": "orders",
          "type": "tuple[]"
        },
        {
          "internalType": "uint256",
          "name": "executorPrice",
          "type": "uint256"
        }
      ],
      "name": "executeOnPassiveSellOrders",
      "outputs": [],
      "stateMutability": "nonpayable",
      "type": "function"
    },
    {
      "inputs": [
        {
          "internalType": "uint256",
          "name": "",
          "type": "uint256"
        }
      ],
      "name": "executions",
      "outputs": [
        {
          "internalType": "address",
          "name": "collection",
          "type": "address"
        },
        {
          "internalType": "uint256",
          "name": "buyPrice",
          "type": "uint256"
        },
        {
          "internalType": "uint256",
          "name": "tokenId",
          "type": "uint256"
        },
        {
          "internalType": "bool",
          "name": "sold",
          "type": "bool"
        },
        {
          "internalType": "uint256",
          "name": "sellPrice",
          "type": "uint256"
        },
        {
          "internalType": "uint256",
          "name": "listingEndTime",
          "type": "uint256"
        },
        {
          "internalType": "uint256",
          "name": "sellProtocolFee",
          "type": "uint256"
        },
        {
          "internalType": "bytes32",
          "name": "openSeaOrderHash",
          "type": "bytes32"
        },
        {
          "internalType": "bytes32",
          "name": "looksRareOrderHash",
          "type": "bytes32"
        }
      ],
      "stateMutability": "view",
      "type": "function"
    },
    {
      "inputs": [
        {
          "internalType": "address",
          "name": "",
          "type": "address"
        },
        {
          "internalType": "uint256",
          "name": "",
          "type": "uint256"
        }
      ],
      "name": "isUsedBuyNonce",
      "outputs": [
        {
          "internalType": "bool",
          "name": "",
          "type": "bool"
        }
      ],
      "stateMutability": "view",
      "type": "function"
    },
    {
      "inputs": [
        {
          "internalType": "address",
          "name": "",
          "type": "address"
        },
        {
          "internalType": "uint256",
          "name": "",
          "type": "uint256"
        }
      ],
      "name": "isUsedSellNonce",
      "outputs": [
        {
          "internalType": "bool",
          "name": "",
          "type": "bool"
        }
      ],
      "stateMutability": "view",
      "type": "function"
    },
    {
      "inputs": [
        {
          "internalType": "bytes32",
          "name": "_hash",
          "type": "bytes32"
        },
        {
          "internalType": "bytes",
          "name": "_signature",
          "type": "bytes"
        }
      ],
      "name": "isValidSignature",
      "outputs": [
        {
          "internalType": "bytes4",
          "name": "",
          "type": "bytes4"
        }
      ],
      "stateMutability": "view",
      "type": "function"
    },
    {
      "inputs": [
        {
          "components": [
            {
              "internalType": "address",
              "name": "signer",
              "type": "address"
            },
            {
              "internalType": "address",
              "name": "collection",
              "type": "address"
            },
            {
              "internalType": "uint256",
              "name": "executionId",
              "type": "uint256"
            },
            {
              "internalType": "uint256",
              "name": "contribution",
              "type": "uint256"
            },
            {
              "internalType": "uint256",
              "name": "buyPrice",
              "type": "uint256"
            },
            {
              "internalType": "uint256",
              "name": "buyPriceEndTime",
              "type": "uint256"
            },
            {
              "internalType": "uint256",
              "name": "buyNonce",
              "type": "uint256"
            },
            {
              "internalType": "uint256",
              "name": "sellPrice",
              "type": "uint256"
            },
            {
              "internalType": "uint256",
              "name": "sellPriceEndTime",
              "type": "uint256"
            },
            {
              "internalType": "uint256",
              "name": "sellNonce",
              "type": "uint256"
            },
            {
              "internalType": "uint8",
              "name": "v",
              "type": "uint8"
            },
            {
              "internalType": "bytes32",
              "name": "r",
              "type": "bytes32"
            },
            {
              "internalType": "bytes32",
              "name": "s",
              "type": "bytes32"
            }
          ],
          "internalType": "struct BuyOrderV1[]",
          "name": "orders",
          "type": "tuple[]"
        },
        {
          "internalType": "uint256",
          "name": "executorPrice",
          "type": "uint256"
        },
        {
          "internalType": "uint256",
          "name": "marketplaceFee",
          "type": "uint256"
        },
        {
          "internalType": "uint256",
          "name": "nonce",
          "type": "uint256"
        }
      ],
      "name": "listOnLooksRare",
      "outputs": [],
      "stateMutability": "nonpayable",
      "type": "function"
    },
    {
      "inputs": [
        {
          "components": [
            {
              "internalType": "address",
              "name": "signer",
              "type": "address"
            },
            {
              "internalType": "address",
              "name": "collection",
              "type": "address"
            },
            {
              "internalType": "uint256",
              "name": "executionId",
              "type": "uint256"
            },
            {
              "internalType": "uint256",
              "name": "contribution",
              "type": "uint256"
            },
            {
              "internalType": "uint256",
              "name": "buyPrice",
              "type": "uint256"
            },
            {
              "internalType": "uint256",
              "name": "buyPriceEndTime",
              "type": "uint256"
            },
            {
              "internalType": "uint256",
              "name": "buyNonce",
              "type": "uint256"
            },
            {
              "internalType": "uint256",
              "name": "sellPrice",
              "type": "uint256"
            },
            {
              "internalType": "uint256",
              "name": "sellPriceEndTime",
              "type": "uint256"
            },
            {
              "internalType": "uint256",
              "name": "sellNonce",
              "type": "uint256"
            },
            {
              "internalType": "uint8",
              "name": "v",
              "type": "uint8"
            },
            {
              "internalType": "bytes32",
              "name": "r",
              "type": "bytes32"
            },
            {
              "internalType": "bytes32",
              "name": "s",
              "type": "bytes32"
            }
          ],
          "internalType": "struct BuyOrderV1[]",
          "name": "orders",
          "type": "tuple[]"
        },
        {
          "internalType": "uint256",
          "name": "executorPrice",
          "type": "uint256"
        },
        {
          "internalType": "uint256",
          "name": "marketplaceFee",
          "type": "uint256"
        }
      ],
      "name": "listOnOpenSea",
      "outputs": [],
      "stateMutability": "nonpayable",
      "type": "function"
    },
    {
      "inputs": [],
      "name": "minConsensusForSellingOverOrEqualBuyPrice",
      "outputs": [
        {
          "internalType": "uint256",
          "name": "",
          "type": "uint256"
        }
      ],
      "stateMutability": "view",
      "type": "function"
    },
    {
      "inputs": [],
      "name": "minConsensusForSellingUnderBuyPrice",
      "outputs": [
        {
          "internalType": "uint256",
          "name": "",
          "type": "uint256"
        }
      ],
      "stateMutability": "view",
      "type": "function"
    },
    {
      "inputs": [
        {
          "internalType": "address",
          "name": "",
          "type": "address"
        },
        {
          "internalType": "address",
          "name": "",
          "type": "address"
        },
        {
          "internalType": "uint256[]",
          "name": "",
          "type": "uint256[]"
        },
        {
          "internalType": "uint256[]",
          "name": "",
          "type": "uint256[]"
        },
        {
          "internalType": "bytes",
          "name": "",
          "type": "bytes"
        }
      ],
      "name": "onERC1155BatchReceived",
      "outputs": [
        {
          "internalType": "bytes4",
          "name": "",
          "type": "bytes4"
        }
      ],
      "stateMutability": "nonpayable",
      "type": "function"
    },
    {
      "inputs": [
        {
          "internalType": "address",
          "name": "",
          "type": "address"
        },
        {
          "internalType": "address",
          "name": "",
          "type": "address"
        },
        {
          "internalType": "uint256",
          "name": "",
          "type": "uint256"
        },
        {
          "internalType": "uint256",
          "name": "",
          "type": "uint256"
        },
        {
          "internalType": "bytes",
          "name": "",
          "type": "bytes"
        }
      ],
      "name": "onERC1155Received",
      "outputs": [
        {
          "internalType": "bytes4",
          "name": "",
          "type": "bytes4"
        }
      ],
      "stateMutability": "nonpayable",
      "type": "function"
    },
    {
      "inputs": [
        {
          "internalType": "address",
          "name": "",
          "type": "address"
        },
        {
          "internalType": "address",
          "name": "",
          "type": "address"
        },
        {
          "internalType": "uint256",
          "name": "",
          "type": "uint256"
        },
        {
          "internalType": "bytes",
          "name": "",
          "type": "bytes"
        }
      ],
      "name": "onERC721Received",
      "outputs": [
        {
          "internalType": "bytes4",
          "name": "",
          "type": "bytes4"
        }
      ],
      "stateMutability": "nonpayable",
      "type": "function"
    },
    {
      "inputs": [],
      "name": "owner",
      "outputs": [
        {
          "internalType": "address",
          "name": "",
          "type": "address"
        }
      ],
      "stateMutability": "view",
      "type": "function"
    },
    {
      "inputs": [],
      "name": "protocolFeeFraction",
      "outputs": [
        {
          "internalType": "uint256",
          "name": "",
          "type": "uint256"
        }
      ],
      "stateMutability": "view",
      "type": "function"
    },
    {
      "inputs": [],
      "name": "protocolFeeFractionFromSelling",
      "outputs": [
        {
          "internalType": "uint256",
          "name": "",
          "type": "uint256"
        }
      ],
      "stateMutability": "view",
      "type": "function"
    },
    {
      "inputs": [],
      "name": "protocolFeeReceiver",
      "outputs": [
        {
          "internalType": "address",
          "name": "",
          "type": "address"
        }
      ],
      "stateMutability": "view",
      "type": "function"
    },
    {
      "inputs": [
        {
          "internalType": "address",
          "name": "",
          "type": "address"
        },
        {
          "internalType": "uint256",
          "name": "",
          "type": "uint256"
        }
      ],
      "name": "realContributions",
      "outputs": [
        {
          "internalType": "uint256",
          "name": "",
          "type": "uint256"
        }
      ],
      "stateMutability": "view",
      "type": "function"
    },
    {
      "inputs": [],
      "name": "renounceOwnership",
      "outputs": [],
      "stateMutability": "nonpayable",
      "type": "function"
    },
    {
      "inputs": [
        {
          "internalType": "bytes4",
          "name": "interfaceId",
          "type": "bytes4"
        }
      ],
      "name": "supportsInterface",
      "outputs": [
        {
          "internalType": "bool",
          "name": "",
          "type": "bool"
        }
      ],
      "stateMutability": "view",
      "type": "function"
    },
    {
      "inputs": [
        {
          "internalType": "address",
          "name": "newOwner",
          "type": "address"
        }
      ],
      "name": "transferOwnership",
      "outputs": [],
      "stateMutability": "nonpayable",
      "type": "function"
    }
  ],
  "transactionHash": "0xa80cf81c2c48f3439a11298e5ae5298f221fee5a0b3380903ac7974218d3ce7b",
  "args": [
    "0xc778417E063141139Fce010982780140Aa0cD5Ab",
    "0xC103d1b071AFA925714eE55b2F4869300C4331C4"
  ],
  "numDeployments": 5,
  "solcInputHash": "542e7778796973ccd2d52cdf9adbbc1a",
  "bytecode": "0x60c0604052606460025560646003556113886004556127106005553480156200002757600080fd5b5060405162003fe438038062003fe48339810160408190526200004a91620001ae565b620000553362000141565b600160068190556001600160a01b03928316608090815281546001600160a01b031916929093169190911790556040805180820182526003815262302e3160e81b60209182015281517f8b73c3c69bb8fe3d512ecc4cf759cc79239f7b179b0ffacaa9a75d522b39400f818301527fc34e769714204ec364edbdd9fbc375bf7fd2e3b10f22abaf631ea6006a288fa7818401527f8cd160c72d102a6747abd189ac21d4a1f802e3fcc1bb8fc78cc4d558df0c7c21606082015246938101939093523060a08085019190915282518085038201815260c090940190925282519201919091209052620001e6565b600080546001600160a01b038381166001600160a01b0319831681178455604051919092169283917f8be0079c531659141344cd1fd0a4f28419497f9722a3daafe3b4186f6b6457e09190a35050565b80516001600160a01b0381168114620001a957600080fd5b919050565b60008060408385031215620001c257600080fd5b620001cd8362000191565b9150620001dd6020840162000191565b90509250929050565b60805160a051613da0620002446000396000818161045f01528181610a2301528181610e78015281816114010152611b5e0152600081816103fd01528181610aa001528181610bc801528181610fee01526120f80152613da06000f3fe608060405234801561001057600080fd5b50600436106101fb5760003560e01c80636dd7a34e1161011a578063c18d89d3116100ad578063e80453841161007c578063e8045384146104a7578063f23a6e61146104d5578063f2fde38b146104f4578063f6f6712514610507578063f76c92291461051a57600080fd5b8063c18d89d314610451578063dab400f31461045a578063dce6b1f914610481578063e711bf1b1461049457600080fd5b8063ac8d590b116100e9578063ac8d590b146103e5578063ad5c4648146103f8578063bc197c811461041f578063bc7517241461043e57600080fd5b80636dd7a34e146103a6578063715018a6146103b95780638da5cb5b146103c15780639f9abd35146103d257600080fd5b8063323d01e5116101925780634bbe7882116101615780634bbe7882146103495780634c8a65761461035c5780635a2aa9d71461038a5780636c1438ca1461039d57600080fd5b8063323d01e5146102d7578063360f4d871461030257806339a51be5146103155780633a0298eb1461034057600080fd5b806318ecca46116101ce57806318ecca46146102875780631a7eeff21461029a5780632eb69403146102ad5780632ec16145146102c057600080fd5b806301ffc9a7146102005780630570490d14610228578063150b7a021461023d5780631626ba7e14610274575b600080fd5b61021361020e366004612b10565b6105cf565b60405190151581526020015b60405180910390f35b61023b610236366004612b71565b610606565b005b61025b61024b366004612d09565b630a85bd0160e11b949350505050565b6040516001600160e01b0319909116815260200161021f565b61025b610282366004612d74565b61069f565b61023b610295366004612def565b61076e565b61023b6102a8366004612e08565b61079d565b61023b6102bb366004612ea3565b61086a565b6102c960055481565b60405190815260200161021f565b6102c96102e5366004612ef3565b600960209081526000928352604080842090915290825290205481565b61023b610310366004612f1f565b610cbf565b600154610328906001600160a01b031681565b6040516001600160a01b03909116815260200161021f565b6102c960025481565b61023b610357366004612f78565b6110ae565b61021361036a366004612ef3565b600860209081526000928352604080842090915290825290205460ff1681565b61023b610398366004612b71565b6110fa565b6102c960035481565b61023b6103b4366004612def565b611185565b61023b6111b4565b6000546001600160a01b0316610328565b61023b6103e0366004612f95565b6111ea565b61023b6103f3366004612fe0565b6114a6565b6103287f000000000000000000000000000000000000000000000000000000000000000081565b61025b61042d366004613084565b63bc197c8160e01b95945050505050565b61023b61044c366004612def565b611667565b6102c960045481565b6102c97f000000000000000000000000000000000000000000000000000000000000000081565b61023b61048f366004612def565b611696565b61023b6104a2366004612b71565b6116c5565b6102136104b5366004612ef3565b600760209081526000928352604080842090915290825290205460ff1681565b61025b6104e3366004613131565b63f23a6e6160e01b95945050505050565b61023b610502366004612f78565b611750565b61023b610515366004612ea3565b6117eb565b610581610528366004612def565b600a602052600090815260409020805460018201546002830154600384015460048501546005860154600687015460078801546008909801546001600160a01b03909716979596949560ff909416949293919290919089565b604080516001600160a01b03909a168a5260208a0198909852968801959095529215156060870152608086019190915260a085015260c084015260e08301526101008201526101200161021f565b60006001600160e01b03198216630271189760e51b148061060057506301ffc9a760e01b6001600160e01b03198316145b92915050565b6106108282611f1d565b6000805b8281101561068157600084848381811061063057610630613199565b9050602002013590506000600a6000838152602001908152602001600020905080600601548461066091906131c5565b93506000816006018190555050508080610679906131dd565b915050610614565b5060015461069a9030906001600160a01b0316836120f3565b505050565b60008381036106c95760405162461bcd60e51b81526004016106c0906131f6565b60405180910390fd5b60006106d86020828587613222565b6106e19161324c565b905060006106f3604060208688613222565b6106fc9161324c565b90508015801561071c57506000828152600a602052604090206007015486145b80610742575080600114801561074257506000828152600a602052604090206008015486145b156107595750630b135d3f60e11b91506107679050565b506001600160e01b03199150505b9392505050565b6000546001600160a01b031633146107985760405162461bcd60e51b81526004016106c09061326a565b600455565b6107a78383611f1d565b6000805b838110156108585760008585838181106107c7576107c7613199565b602090810292909201356000818152600a8452604080822033835260098652818320848452909552812054600485015460018601549396509093509161080d838561329f565b61081791906132be565b336000908152600960209081526040808320898452909152812055905061083e81886131c5565b965050505050508080610850906131dd565b9150506107ab565b506108643083836120f3565b50505050565b60026006540361088c5760405162461bcd60e51b81526004016106c0906132e0565b6002600655826108ae5760405162461bcd60e51b81526004016106c090613317565b6000612710836003546108c1919061329f565b6108cb91906132be565b905060006108d98285613366565b90506000868660008181106108f0576108f0613199565b6101a002919091016040908101356000818152600a60205291909120805491935091506001600160a01b03166109385760405162461bcd60e51b81526004016106c09061337d565b600381015460ff161561095d5760405162461bcd60e51b81526004016106c0906133b4565b60007379E24B4766011FB3461e1C2bf9f82D7a687361e563b95522d5600860098c8c88888b6004546005546040518a63ffffffff1660e01b81526004016109ac999897969594939291906134e3565b602060405180830381865af41580156109c9573d6000803e3d6000fd5b505050506040513d601f19601f820116820180604052508101906109ed9190613531565b60405163345a3d9f60e11b81529091507379E24B4766011FB3461e1C2bf9f82D7a687361e5906368b47b3e90610a4b908c908c907f00000000000000000000000000000000000000000000000000000000000000009060040161354a565b60006040518083038186803b158015610a6357600080fd5b505af4158015610a77573d6000803e3d6000fd5b5050835460405163f06a206d60e01b81523060048201526001600160a01b0391821660248201527f00000000000000000000000000000000000000000000000000000000000000009091166044820152736d50Eb6A27b3FdD297A8EDAdFDe7D5025D9F2b4B925063f06a206d915060640160006040518083038186803b158015610b0057600080fd5b505af4158015610b14573d6000803e3d6000fd5b505083546002850154600093508392508291736d50Eb6A27b3FdD297A8EDAdFDe7D5025D9F2b4B9163d7a2b5689130916001600160a01b0390911690610b5c8e612710613366565b8f612710610b6a919061329f565b610b7491906132be565b610b7f9060016131c5565b60405160e086901b6001600160e01b03191681526001600160a01b0394851660048201529284166024840152604483019190915260648201526084810188905260a481018d90527f000000000000000000000000000000000000000000000000000000000000000090911660c482015260e401600060405180830381865af4158015610c0f573d6000803e3d6000fd5b505050506040513d6000823e601f3d908101601f19168201604052610c3791908101906135f9565b925092509250826000801b03610c5f5760405162461bcd60e51b81526004016106c0906131f6565b610c6b8488888b61211f565b600785018390556040517fd66e0d7ab0776700af7567767b69a1c8f3ebd0efb3632e3055f89fb2b9d2e6b590610ca49083908590613855565b60405180910390a15050600160065550505050505050505050565b600260065403610ce15760405162461bcd60e51b81526004016106c0906132e0565b600260065583610d035760405162461bcd60e51b81526004016106c090613317565b600061271084600354610d16919061329f565b610d2091906132be565b90506000610d2e8286613366565b9050600087876000818110610d4557610d45613199565b6101a002919091016040908101356000818152600a60205291909120805491935091506001600160a01b0316610d8d5760405162461bcd60e51b81526004016106c09061337d565b600381015460ff1615610db25760405162461bcd60e51b81526004016106c0906133b4565b60007379E24B4766011FB3461e1C2bf9f82D7a687361e563b95522d5600860098d8d88888b6004546005546040518a63ffffffff1660e01b8152600401610e01999897969594939291906134e3565b602060405180830381865af4158015610e1e573d6000803e3d6000fd5b505050506040513d601f19601f82011682018060405250810190610e429190613531565b60405163345a3d9f60e11b81529091507379E24B4766011FB3461e1C2bf9f82D7a687361e5906368b47b3e90610ea0908d908d907f00000000000000000000000000000000000000000000000000000000000000009060040161354a565b60006040518083038186803b158015610eb857600080fd5b505af4158015610ecc573d6000803e3d6000fd5b50508354604051633a4691bf60e11b81523060048201526001600160a01b03909116602482015273020f20a352BcA41A9334a512c3EeAd28860814D8925063748d237e915060440160006040518083038186803b158015610f2c57600080fd5b505af4158015610f40573d6000803e3d6000fd5b5050835460028501546000935073020f20a352BcA41A9334a512c3EeAd28860814D89250631221a1ca9130916001600160a01b0390911690610f848d612710613366565b610f908f61271061329f565b610f9a91906132be565b610fa59060016131c5565b60405160e086901b6001600160e01b03191681526001600160a01b0394851660048201529284166024840152604483019190915260648201526084810186905260a481018c90527f000000000000000000000000000000000000000000000000000000000000000090911660c482015260e481018a905261010401600060405180830381865af415801561103d573d6000803e3d6000fd5b505050506040513d6000823e601f3d908101601f191682016040526110659190810190613a65565b50905060008190036110895760405162461bcd60e51b81526004016106c0906131f6565b6110958286868961211f565b6008909201919091555050600160065550505050505050565b6000546001600160a01b031633146110d85760405162461bcd60e51b81526004016106c09061326a565b600180546001600160a01b0319166001600160a01b0392909216919091179055565b806111175760405162461bcd60e51b81526004016106c090613bad565b60005b8181101561069a5733600090815260086020526040812060019185858581811061114657611146613199565b90506020020135815260200190815260200160002060006101000a81548160ff021916908315150217905550808061117d906131dd565b91505061111a565b6000546001600160a01b031633146111af5760405162461bcd60e51b81526004016106c09061326a565b600355565b6000546001600160a01b031633146111de5760405162461bcd60e51b81526004016106c09061326a565b6111e86000612171565b565b60026006540361120c5760405162461bcd60e51b81526004016106c0906132e0565b6002600655816112705760405162461bcd60e51b815260206004820152602960248201527f4578656375746553656c6c3a204d7573742068617665206174206c656173742060448201526837b7329037b93232b960b91b60648201526084016106c0565b600061271082600354611283919061329f565b61128d91906132be565b9050600061129b8284613366565b90506000858560008181106112b2576112b2613199565b6101a002919091016040908101356000818152600a60205291909120805491935091506001600160a01b03166112fa5760405162461bcd60e51b81526004016106c09061337d565b600381015460ff161561131f5760405162461bcd60e51b81526004016106c0906133b4565b6004805460055460405163b95522d560e01b81527379E24B4766011FB3461e1C2bf9f82D7a687361e59363b95522d59361136b936008936009938f938f938c938c938f939291016134e3565b602060405180830381865af4158015611388573d6000803e3d6000fd5b505050506040513d601f19601f820116820180604052508101906113ac9190613531565b506113b787876121c1565b60038101805460ff19166001179055600480820184905560405163345a3d9f60e11b81527379E24B4766011FB3461e1C2bf9f82D7a687361e5916368b47b3e91611427918b918b917f0000000000000000000000000000000000000000000000000000000000000000910161354a565b60006040518083038186803b15801561143f57600080fd5b505af4158015611453573d6000803e3d6000fd5b505050506114623330856120f3565b60015461147a9033906001600160a01b0316866120f3565b80546002820154611498916001600160a01b0316903090339061224e565b505060016006555050505050565b6002600654036114c85760405162461bcd60e51b81526004016106c0906132e0565b60026006556000828152600a6020526040902080546001600160a01b031661153c5760405162461bcd60e51b815260206004820152602160248201527f436c61696d4e66743a20457865637574696f6e20646f65736e277420657869736044820152601d60fa1b60648201526084016106c0565b600381015460ff16156115915760405162461bcd60e51b815260206004820181905260248201527f436c61696d4e66743a20457865637574696f6e20616c726561647920736f6c6460448201526064016106c0565b6000838152600a60209081526040808320600301805460ff1916600190811790915533845260098352818420878552909252909120549082015481146116235760405162461bcd60e51b815260206004820152602160248201527f436c61696d4e66743a2077726f6e67207265616c20636f6e747269627574696f6044820152603760f91b60648201526084016106c0565b3360009081526009602090815260408083208784529091528120558154600283015461165c916001600160a01b0316903090869061224e565b505060016006555050565b6000546001600160a01b031633146116915760405162461bcd60e51b81526004016106c09061326a565b600255565b6000546001600160a01b031633146116c05760405162461bcd60e51b81526004016106c09061326a565b600555565b806116e25760405162461bcd60e51b81526004016106c090613bad565b60005b8181101561069a5733600090815260076020526040812060019185858581811061171157611711613199565b90506020020135815260200190815260200160002060006101000a81548160ff0219169083151502179055508080611748906131dd565b9150506116e5565b6000546001600160a01b0316331461177a5760405162461bcd60e51b81526004016106c09061326a565b6001600160a01b0381166117df5760405162461bcd60e51b815260206004820152602660248201527f4f776e61626c653a206e6577206f776e657220697320746865207a65726f206160448201526564647265737360d01b60648201526084016106c0565b6117e881612171565b50565b60026006540361180d5760405162461bcd60e51b81526004016106c0906132e0565b60026006558261186d5760405162461bcd60e51b815260206004820152602560248201527f457865637574653a204d7573742068617665206174206c65617374206f6e652060448201526437b93232b960d91b60648201526084016106c0565b600061271083600254611880919061329f565b61188a91906132be565b9050600061189882856131c5565b90506000868660008181106118af576118af613199565b90506101a0020160200160208101906118c89190612f78565b90506000878760008181106118df576118df613199565b60406101a0909102929092018201356000818152600a6020529290922054919250506001600160a01b0316156119575760405162461bcd60e51b815260206004820152601c60248201527f457865637574653a20496420616c72656164792065786563757465640000000060448201526064016106c0565b60408051610120810182526001600160a01b03848116825260208083018781528385018a81526000606086018181526080870182815260a0880183815260c0890184815260e08a018581526101008b018681528d8752600a9099529a852099518a546001600160a01b031916991698909817895594516001890155925160028801555160038701805460ff191691151591909117905590516004860155905160058501559151600684015592516007830155915160089091015580805b89811015611e4157368b8b83818110611a2f57611a2f613199565b6101a002919091019150600790506000611a4c6020840184612f78565b6001600160a01b031681526020808201929092526040908101600090812060c0850135825290925290205460ff1615611ac75760405162461bcd60e51b815260206004820152601760248201527f4f72646572206e6f6e636520697320756e757361626c6500000000000000000060448201526064016106c0565b600160076000611ada6020850185612f78565b6001600160a01b031681526020808201929092526040908101600090812060c086013582529092528120805460ff191692151592909217909155611b2b611b2636849003840184613bf4565b612384565b9050611b8281611b3e6020850185612f78565b611b5061016086016101408701613cb0565b8561016001358661018001357f0000000000000000000000000000000000000000000000000000000000000000612465565b611bc35760405162461bcd60e51b815260206004820152601260248201527114da59db985d1d5c994e88125b9d985b1a5960721b60448201526064016106c0565b428260a001351015611c075760405162461bcd60e51b815260206004820152600d60248201526c13dc99195c88195e1c1a5c9959609a1b60448201526064016106c0565b611c2388611c1a36859003850185613bf4565b60800151101590565b611c6f5760405162461bcd60e51b815260206004820152601860248201527f4f726465722063616e277420616363657074207072696365000000000000000060448201526064016106c0565b6001600160a01b038716611c896040840160208501612f78565b6001600160a01b031614611cdf5760405162461bcd60e51b815260206004820152601960248201527f4f7264657220636f6c6c656374696f6e206d69736d617463680000000000000060448201526064016106c0565b85826040013514611d325760405162461bcd60e51b815260206004820152601a60248201527f4f7264657220657865637574696f6e4964206d69736d6174636800000000000060448201526064016106c0565b60608201356000611d4c611d46888d613366565b8361253c565b9050611d5881886131c5565b9650611d7c611d6a6020860186612f78565b6001546001600160a01b0316836120f3565b6000611d9c878f611d8d9190613366565b611d978486613366565b61253c565b9050611da881886131c5565b9650611dc1611dba6020870187612f78565b33836120f3565b6000611dcd82846131c5565b90508060096000611de160208a018a612f78565b6001600160a01b03166001600160a01b0316815260200190815260200160002060008c81526020019081526020016000206000828254611e2191906131c5565b925050819055505050505050508080611e39906131dd565b915050611a14565b50858214611ea05760405162461bcd60e51b815260206004820152602660248201527f50726f746f636f6c20666565206e6f74207472616e7366657272656420636f72604482015265726563746c7960d01b60648201526084016106c0565b878114611f005760405162461bcd60e51b815260206004820152602860248201527f4578656375746f72207072696365206e6f74207472616e7366657272656420636044820152676f72726563746c7960c01b60648201526084016106c0565b611f0c8433308a61224e565b505060016006555050505050505050565b60005b8181101561069a576000838383818110611f3c57611f3c613199565b602090810292909201356000818152600a90935260409092208054929350916001600160a01b03169050611fbc5760405162461bcd60e51b815260206004820152602160248201527f507265436c61696d3a20457865637574696f6e20646f65736e277420657869736044820152601d60fa1b60648201526084016106c0565b805460028201546040516331a9108f60e11b8152600481019190915260009130916001600160a01b0390911690636352211e90602401602060405180830381865afa15801561200f573d6000803e3d6000fd5b505050506040513d601f19601f820116820180604052508101906120339190613ccd565b60038401546001600160a01b039190911691909114915060ff1680612056575080155b6120c15760405162461bcd60e51b815260206004820152603660248201527f507265436c61696d3a204e465420686173206e6f74206265656e20736f6c64206044820152753737b91030b9b5903430b9903132b2b7103a30b5b2b760511b60648201526084016106c0565b600382015460ff166120dd5760038201805460ff191660011790555b50505080806120eb906131dd565b915050611f20565b61069a7f0000000000000000000000000000000000000000000000000000000000000000848484612552565b6000828152600a60205260409020600581015485141580612144575083816004015414155b156121585760006007820181905560088201555b6005810194909455600484019290925550600690910155565b600080546001600160a01b038381166001600160a01b0319831681178455604051919092169283917f8be0079c531659141344cd1fd0a4f28419497f9722a3daafe3b4186f6b6457e09190a35050565b60005b8181101561069a57368383838181106121df576121df613199565b6101a00291909101915060019050600860006121fe6020850185612f78565b6001600160a01b03168152602080820192909252604090810160009081206101209590950135815293909152909120805460ff191691151591909117905580612246816131dd565b9150506121c4565b6040516301ffc9a760e01b81526380ac58cd60e01b60048201526001600160a01b038516906301ffc9a790602401602060405180830381865afa158015612299573d6000803e3d6000fd5b505050506040513d601f19601f820116820180604052508101906122bd9190613cea565b1561233157604051632142170760e11b81526001600160a01b0384811660048301528381166024830152604482018390528516906342842e0e90606401600060405180830381600087803b15801561231457600080fd5b505af1158015612328573d6000803e3d6000fd5b50505050610864565b60405162461bcd60e51b815260206004820152602260248201527f436f6c6c656374696f6e20646f6573206e6f7420737570706f72742045524337604482015261323160f01b60648201526084016106c0565b80516020808301516040808501516060860151608087015160a088015160c089015160e08a01516101008b01516101208c0151975160009b6124489b7f72e794cb40f2ebfd460c7e8f21afeacac61a902963a831638aeff99e28bc690f9b919a919998979695949392019a8b526001600160a01b03998a1660208c01529790981660408a01526060890195909552608088019390935260a087019190915260c086015260e08501526101008401526101208301919091526101408201526101600190565b604051602081830303815290604052805190602001209050919050565b60006001600160a01b0386166124bd5760405162461bcd60e51b815260206004820152601d60248201527f5369676e61747572655574696c3a20496e76616c6964207369676e657200000060448201526064016106c0565b6040805160208082018790528183018690526001600160f81b031960f889901b1660608301528251808303604101815260618301845261190160f01b60818401526083830186905260a38084018c90528451808503909101815260c3909301909352815191012061252f88828461256d565b9998505050505050505050565b600081831061254b5781610767565b5090919050565b8015610864576108646001600160a01b0385168484846126b9565b600080600061257c8585612713565b90925090506000816004811115612595576125956137f1565b1480156125b35750856001600160a01b0316826001600160a01b0316145b156125c357600192505050610767565b600080876001600160a01b0316631626ba7e60e01b88886040516024016125eb929190613d05565b60408051601f198184030181529181526020820180516001600160e01b03166001600160e01b03199094169390931790925290516126299190613d1e565b600060405180830381855afa9150503d8060008114612664576040519150601f19603f3d011682016040523d82523d6000602084013e612669565b606091505b509150915081801561267c575080516020145b80156126ad57508051630b135d3f60e11b906126a19083016020908101908401613d3a565b6001600160e01b031916145b98975050505050505050565b604080516001600160a01b0385811660248301528416604482015260648082018490528251808303909101815260849091019091526020810180516001600160e01b03166323b872dd60e01b179052610864908590612781565b60008082516041036127495760208301516040840151606085015160001a61273d87828585612853565b9450945050505061277a565b82516040036127725760208301516040840151612767868383612940565b93509350505061277a565b506000905060025b9250929050565b60006127d6826040518060400160405280602081526020017f5361666545524332303a206c6f772d6c6576656c2063616c6c206661696c6564815250856001600160a01b03166129799092919063ffffffff16565b80519091501561069a57808060200190518101906127f49190613cea565b61069a5760405162461bcd60e51b815260206004820152602a60248201527f5361666545524332303a204552433230206f7065726174696f6e20646964206e6044820152691bdd081cdd58d8d9595960b21b60648201526084016106c0565b6000807f7fffffffffffffffffffffffffffffff5d576e7357a4501ddfe92f46681b20a083111561288a5750600090506003612937565b8460ff16601b141580156128a257508460ff16601c14155b156128b35750600090506004612937565b6040805160008082526020820180845289905260ff881692820192909252606081018690526080810185905260019060a0016020604051602081039080840390855afa158015612907573d6000803e3d6000fd5b5050604051601f1901519150506001600160a01b03811661293057600060019250925050612937565b9150600090505b94509492505050565b6000806001600160ff1b0383168161295d60ff86901c601b6131c5565b905061296b87828885612853565b935093505050935093915050565b60606129888484600085612990565b949350505050565b6060824710156129f15760405162461bcd60e51b815260206004820152602660248201527f416464726573733a20696e73756666696369656e742062616c616e636520666f6044820152651c8818d85b1b60d21b60648201526084016106c0565b6001600160a01b0385163b612a485760405162461bcd60e51b815260206004820152601d60248201527f416464726573733a2063616c6c20746f206e6f6e2d636f6e747261637400000060448201526064016106c0565b600080866001600160a01b03168587604051612a649190613d1e565b60006040518083038185875af1925050503d8060008114612aa1576040519150601f19603f3d011682016040523d82523d6000602084013e612aa6565b606091505b5091509150612ab6828286612ac1565b979650505050505050565b60608315612ad0575081610767565b825115612ae05782518084602001fd5b8160405162461bcd60e51b81526004016106c09190613d57565b6001600160e01b0319811681146117e857600080fd5b600060208284031215612b2257600080fd5b813561076781612afa565b60008083601f840112612b3f57600080fd5b5081356001600160401b03811115612b5657600080fd5b6020830191508360208260051b850101111561277a57600080fd5b60008060208385031215612b8457600080fd5b82356001600160401b03811115612b9a57600080fd5b612ba685828601612b2d565b90969095509350505050565b6001600160a01b03811681146117e857600080fd5b8035612bd281612bb2565b919050565b634e487b7160e01b600052604160045260246000fd5b6040516102e081016001600160401b0381118282101715612c1057612c10612bd7565b60405290565b60405161020081016001600160401b0381118282101715612c1057612c10612bd7565b6040516101a081016001600160401b0381118282101715612c1057612c10612bd7565b604051601f8201601f191681016001600160401b0381118282101715612c8457612c84612bd7565b604052919050565b60006001600160401b03821115612ca557612ca5612bd7565b50601f01601f191660200190565b600082601f830112612cc457600080fd5b8135612cd7612cd282612c8c565b612c5c565b818152846020838601011115612cec57600080fd5b816020850160208301376000918101602001919091529392505050565b60008060008060808587031215612d1f57600080fd5b8435612d2a81612bb2565b93506020850135612d3a81612bb2565b92506040850135915060608501356001600160401b03811115612d5c57600080fd5b612d6887828801612cb3565b91505092959194509250565b600080600060408486031215612d8957600080fd5b8335925060208401356001600160401b0380821115612da757600080fd5b818601915086601f830112612dbb57600080fd5b813581811115612dca57600080fd5b876020828501011115612ddc57600080fd5b6020830194508093505050509250925092565b600060208284031215612e0157600080fd5b5035919050565b600080600060408486031215612e1d57600080fd5b83356001600160401b03811115612e3357600080fd5b612e3f86828701612b2d565b9094509250506020840135612e5381612bb2565b809150509250925092565b60008083601f840112612e7057600080fd5b5081356001600160401b03811115612e8757600080fd5b6020830191508360206101a08302850101111561277a57600080fd5b60008060008060608587031215612eb957600080fd5b84356001600160401b03811115612ecf57600080fd5b612edb87828801612e5e565b90989097506020870135966040013595509350505050565b60008060408385031215612f0657600080fd5b8235612f1181612bb2565b946020939093013593505050565b600080600080600060808688031215612f3757600080fd5b85356001600160401b03811115612f4d57600080fd5b612f5988828901612e5e565b9099909850602088013597604081013597506060013595509350505050565b600060208284031215612f8a57600080fd5b813561076781612bb2565b600080600060408486031215612faa57600080fd5b83356001600160401b03811115612fc057600080fd5b612fcc86828701612e5e565b909790965060209590950135949350505050565b60008060408385031215612ff357600080fd5b82359150602083013561300581612bb2565b809150509250929050565b600082601f83011261302157600080fd5b813560206001600160401b0382111561303c5761303c612bd7565b8160051b61304b828201612c5c565b928352848101820192828101908785111561306557600080fd5b83870192505b84831015612ab65782358252918301919083019061306b565b600080600080600060a0868803121561309c57600080fd5b85356130a781612bb2565b945060208601356130b781612bb2565b935060408601356001600160401b03808211156130d357600080fd5b6130df89838a01613010565b945060608801359150808211156130f557600080fd5b61310189838a01613010565b9350608088013591508082111561311757600080fd5b5061312488828901612cb3565b9150509295509295909350565b600080600080600060a0868803121561314957600080fd5b853561315481612bb2565b9450602086013561316481612bb2565b9350604086013592506060860135915060808601356001600160401b0381111561318d57600080fd5b61312488828901612cb3565b634e487b7160e01b600052603260045260246000fd5b634e487b7160e01b600052601160045260246000fd5b600082198211156131d8576131d86131af565b500190565b6000600182016131ef576131ef6131af565b5060010190565b602080825260129082015271048617368206d757374206e6f7420626520360741b604082015260600190565b6000808585111561323257600080fd5b8386111561323f57600080fd5b5050820193919092039150565b8035602083101561060057600019602084900360031b1b1692915050565b6020808252818101527f4f776e61626c653a2063616c6c6572206973206e6f7420746865206f776e6572604082015260600190565b60008160001904831182151516156132b9576132b96131af565b500290565b6000826132db57634e487b7160e01b600052601260045260246000fd5b500490565b6020808252601f908201527f5265656e7472616e637947756172643a207265656e7472616e742063616c6c00604082015260600190565b6020808252602f908201527f4c6973744f6e4d61726b6574706c6163653a204d75737420686176652061742060408201526e3632b0b9ba1037b7329037b93232b960891b606082015260800190565b600082821015613378576133786131af565b500390565b60208082526017908201527f457865637574696f6e20646f65736e2774206578697374000000000000000000604082015260600190565b602080825260169082015275115e1958dd5d1a5bdb88185b1c9958591e481cdbdb1960521b604082015260600190565b60ff811681146117e857600080fd5b8035612bd2816133e4565b8183526000602080850194508260005b858110156134d8576134308761342384612bc7565b6001600160a01b03169052565b61343b838301612bc7565b6001600160a01b03168388015260408281013590880152606080830135908801526080808301359088015260a0808301359088015260c0808301359088015260e08083013590880152610100808301359088015261012080830135908801526101406134a88184016133f3565b60ff1690880152610160828101359088015261018080830135908801526101a0968701969091019060010161340e565b509495945050505050565b60006101008b83528a60208401528060408401526135048184018a8c6133fe565b60608401989098525050608081019490945260a084019290925260c083015260e090910152949350505050565b60006020828403121561354357600080fd5b5051919050565b60408152600061355e6040830185876133fe565b9050826020830152949350505050565b8051612bd281612bb2565b805160028110612bd257600080fd5b60005b838110156135a357818101518382015260200161358b565b838111156108645750506000910152565b600082601f8301126135c557600080fd5b81516135d3612cd282612c8c565b8181528460208386010111156135e857600080fd5b612988826020830160208701613588565b60008060006060848603121561360e57600080fd5b835192506020840151915060408401516001600160401b038082111561363357600080fd5b908501906102e0828803121561364857600080fd5b613650612bed565b6136598361356e565b81526136676020840161356e565b60208201526136786040840161356e565b6040820152606083015160608201526080830151608082015260a083015160a082015260c083015160c08201526136b160e0840161356e565b60e08201526101006136c4818501613579565b908201526101206136d6848201613579565b908201526101406136e8848201613579565b908201526101606136fa84820161356e565b9082015261018061370c848201613579565b908201526101a0838101518381111561372457600080fd5b6137308a8287016135b4565b8284015250506101c0808401518381111561374a57600080fd5b6137568a8287016135b4565b8284015250506101e061376a81850161356e565b90820152610200838101518381111561378257600080fd5b61378e8a8287016135b4565b82840152505061022091506137a482840161356e565b918101919091526102408281015190820152610260808301519082015261028080830151908201526102a080830151908201526102c0918201519181019190915292959194509192509050565b634e487b7160e01b600052602160045260246000fd5b6002811061382557634e487b7160e01b600052602160045260246000fd5b9052565b60008151808452613841816020860160208601613588565b601f01601f19169290920160200192915050565b6040815261386f6040820184516001600160a01b03169052565b6000602084015161388b60608401826001600160a01b03169052565b5060408401516001600160a01b038116608084015250606084015160a0830152608084015160c083015260a084015160e083015260c0840151610100818185015260e086015191506101206138ea818601846001600160a01b03169052565b9086015191506101409061390085830184613807565b860151915061016061391485820184613807565b9086015191506101809061392a85830184613807565b86015191506101a0613946858201846001600160a01b03169052565b9086015191506101c09061395c85830184613807565b808701519250506102e06101e0818187015261397c610320870185613829565b9350828801519250603f1961020081888703018189015261399d8686613829565b9550828a0151945061022092506139be838901866001600160a01b03169052565b808a01519450506102408188870301818901526139db8686613829565b9550828a0151945061026092506139fc838901866001600160a01b03169052565b89015161028088810191909152918901516102a080890191909152918901516102c0808901919091529189015192870192909252909601516103008501525060209092019290925292915050565b80518015158114612bd257600080fd5b8051612bd2816133e4565b60008060408385031215613a7857600080fd5b8251915060208301516001600160401b0380821115613a9657600080fd5b908401906102008287031215613aab57600080fd5b613ab3612c16565b613abc83613a4a565b8152613aca6020840161356e565b6020820152613adb6040840161356e565b6040820152606083015160608201526080830151608082015260a083015160a0820152613b0a60c0840161356e565b60c0820152613b1b60e0840161356e565b60e082015261010083810151908201526101208084015190820152610140808401519082015261016080840151908201526101808084015183811115613b6057600080fd5b613b6c898287016135b4565b8284015250506101a09150613b82828401613a5a565b828201526101c0915081830151828201526101e0915081830151828201528093505050509250929050565b60208082526027908201527f43616e63656c3a204d7573742070726f76696465206174206c65617374206f6e60408201526665206e6f6e636560c81b606082015260800190565b60006101a08284031215613c0757600080fd5b613c0f612c39565b613c1883612bc7565b8152613c2660208401612bc7565b602082015260408301356040820152606083013560608201526080830135608082015260a083013560a082015260c083013560c082015260e083013560e0820152610100808401358183015250610120808401358183015250610140613c8d8185016133f3565b908201526101608381013590820152610180928301359281019290925250919050565b600060208284031215613cc257600080fd5b8135610767816133e4565b600060208284031215613cdf57600080fd5b815161076781612bb2565b600060208284031215613cfc57600080fd5b61076782613a4a565b8281526040602082015260006129886040830184613829565b60008251613d30818460208701613588565b9190910192915050565b600060208284031215613d4c57600080fd5b815161076781612afa565b602081526000610767602083018461382956fea26469706673582212200032af29b1fe8d4c01de75460fd026e88349612507b0f06a5e508e8cdd122cf964736f6c634300080d0033",
  "deployedBytecode": "0x608060405234801561001057600080fd5b50600436106101fb5760003560e01c80636dd7a34e1161011a578063c18d89d3116100ad578063e80453841161007c578063e8045384146104a7578063f23a6e61146104d5578063f2fde38b146104f4578063f6f6712514610507578063f76c92291461051a57600080fd5b8063c18d89d314610451578063dab400f31461045a578063dce6b1f914610481578063e711bf1b1461049457600080fd5b8063ac8d590b116100e9578063ac8d590b146103e5578063ad5c4648146103f8578063bc197c811461041f578063bc7517241461043e57600080fd5b80636dd7a34e146103a6578063715018a6146103b95780638da5cb5b146103c15780639f9abd35146103d257600080fd5b8063323d01e5116101925780634bbe7882116101615780634bbe7882146103495780634c8a65761461035c5780635a2aa9d71461038a5780636c1438ca1461039d57600080fd5b8063323d01e5146102d7578063360f4d871461030257806339a51be5146103155780633a0298eb1461034057600080fd5b806318ecca46116101ce57806318ecca46146102875780631a7eeff21461029a5780632eb69403146102ad5780632ec16145146102c057600080fd5b806301ffc9a7146102005780630570490d14610228578063150b7a021461023d5780631626ba7e14610274575b600080fd5b61021361020e366004612b10565b6105cf565b60405190151581526020015b60405180910390f35b61023b610236366004612b71565b610606565b005b61025b61024b366004612d09565b630a85bd0160e11b949350505050565b6040516001600160e01b0319909116815260200161021f565b61025b610282366004612d74565b61069f565b61023b610295366004612def565b61076e565b61023b6102a8366004612e08565b61079d565b61023b6102bb366004612ea3565b61086a565b6102c960055481565b60405190815260200161021f565b6102c96102e5366004612ef3565b600960209081526000928352604080842090915290825290205481565b61023b610310366004612f1f565b610cbf565b600154610328906001600160a01b031681565b6040516001600160a01b03909116815260200161021f565b6102c960025481565b61023b610357366004612f78565b6110ae565b61021361036a366004612ef3565b600860209081526000928352604080842090915290825290205460ff1681565b61023b610398366004612b71565b6110fa565b6102c960035481565b61023b6103b4366004612def565b611185565b61023b6111b4565b6000546001600160a01b0316610328565b61023b6103e0366004612f95565b6111ea565b61023b6103f3366004612fe0565b6114a6565b6103287f000000000000000000000000000000000000000000000000000000000000000081565b61025b61042d366004613084565b63bc197c8160e01b95945050505050565b61023b61044c366004612def565b611667565b6102c960045481565b6102c97f000000000000000000000000000000000000000000000000000000000000000081565b61023b61048f366004612def565b611696565b61023b6104a2366004612b71565b6116c5565b6102136104b5366004612ef3565b600760209081526000928352604080842090915290825290205460ff1681565b61025b6104e3366004613131565b63f23a6e6160e01b95945050505050565b61023b610502366004612f78565b611750565b61023b610515366004612ea3565b6117eb565b610581610528366004612def565b600a602052600090815260409020805460018201546002830154600384015460048501546005860154600687015460078801546008909801546001600160a01b03909716979596949560ff909416949293919290919089565b604080516001600160a01b03909a168a5260208a0198909852968801959095529215156060870152608086019190915260a085015260c084015260e08301526101008201526101200161021f565b60006001600160e01b03198216630271189760e51b148061060057506301ffc9a760e01b6001600160e01b03198316145b92915050565b6106108282611f1d565b6000805b8281101561068157600084848381811061063057610630613199565b9050602002013590506000600a6000838152602001908152602001600020905080600601548461066091906131c5565b93506000816006018190555050508080610679906131dd565b915050610614565b5060015461069a9030906001600160a01b0316836120f3565b505050565b60008381036106c95760405162461bcd60e51b81526004016106c0906131f6565b60405180910390fd5b60006106d86020828587613222565b6106e19161324c565b905060006106f3604060208688613222565b6106fc9161324c565b90508015801561071c57506000828152600a602052604090206007015486145b80610742575080600114801561074257506000828152600a602052604090206008015486145b156107595750630b135d3f60e11b91506107679050565b506001600160e01b03199150505b9392505050565b6000546001600160a01b031633146107985760405162461bcd60e51b81526004016106c09061326a565b600455565b6107a78383611f1d565b6000805b838110156108585760008585838181106107c7576107c7613199565b602090810292909201356000818152600a8452604080822033835260098652818320848452909552812054600485015460018601549396509093509161080d838561329f565b61081791906132be565b336000908152600960209081526040808320898452909152812055905061083e81886131c5565b965050505050508080610850906131dd565b9150506107ab565b506108643083836120f3565b50505050565b60026006540361088c5760405162461bcd60e51b81526004016106c0906132e0565b6002600655826108ae5760405162461bcd60e51b81526004016106c090613317565b6000612710836003546108c1919061329f565b6108cb91906132be565b905060006108d98285613366565b90506000868660008181106108f0576108f0613199565b6101a002919091016040908101356000818152600a60205291909120805491935091506001600160a01b03166109385760405162461bcd60e51b81526004016106c09061337d565b600381015460ff161561095d5760405162461bcd60e51b81526004016106c0906133b4565b600073__$212d7bd68238178e559b7980cfdcd62a2c$__63b95522d5600860098c8c88888b6004546005546040518a63ffffffff1660e01b81526004016109ac999897969594939291906134e3565b602060405180830381865af41580156109c9573d6000803e3d6000fd5b505050506040513d601f19601f820116820180604052508101906109ed9190613531565b60405163345a3d9f60e11b815290915073__$212d7bd68238178e559b7980cfdcd62a2c$__906368b47b3e90610a4b908c908c907f00000000000000000000000000000000000000000000000000000000000000009060040161354a565b60006040518083038186803b158015610a6357600080fd5b505af4158015610a77573d6000803e3d6000fd5b5050835460405163f06a206d60e01b81523060048201526001600160a01b0391821660248201527f0000000000000000000000000000000000000000000000000000000000000000909116604482015273__$4f7460c95cee7e5c2f700bdeb3e509d3e9$__925063f06a206d915060640160006040518083038186803b158015610b0057600080fd5b505af4158015610b14573d6000803e3d6000fd5b50508354600285015460009350839250829173__$4f7460c95cee7e5c2f700bdeb3e509d3e9$__9163d7a2b5689130916001600160a01b0390911690610b5c8e612710613366565b8f612710610b6a919061329f565b610b7491906132be565b610b7f9060016131c5565b60405160e086901b6001600160e01b03191681526001600160a01b0394851660048201529284166024840152604483019190915260648201526084810188905260a481018d90527f000000000000000000000000000000000000000000000000000000000000000090911660c482015260e401600060405180830381865af4158015610c0f573d6000803e3d6000fd5b505050506040513d6000823e601f3d908101601f19168201604052610c3791908101906135f9565b925092509250826000801b03610c5f5760405162461bcd60e51b81526004016106c0906131f6565b610c6b8488888b61211f565b600785018390556040517fd66e0d7ab0776700af7567767b69a1c8f3ebd0efb3632e3055f89fb2b9d2e6b590610ca49083908590613855565b60405180910390a15050600160065550505050505050505050565b600260065403610ce15760405162461bcd60e51b81526004016106c0906132e0565b600260065583610d035760405162461bcd60e51b81526004016106c090613317565b600061271084600354610d16919061329f565b610d2091906132be565b90506000610d2e8286613366565b9050600087876000818110610d4557610d45613199565b6101a002919091016040908101356000818152600a60205291909120805491935091506001600160a01b0316610d8d5760405162461bcd60e51b81526004016106c09061337d565b600381015460ff1615610db25760405162461bcd60e51b81526004016106c0906133b4565b600073__$212d7bd68238178e559b7980cfdcd62a2c$__63b95522d5600860098d8d88888b6004546005546040518a63ffffffff1660e01b8152600401610e01999897969594939291906134e3565b602060405180830381865af4158015610e1e573d6000803e3d6000fd5b505050506040513d601f19601f82011682018060405250810190610e429190613531565b60405163345a3d9f60e11b815290915073__$212d7bd68238178e559b7980cfdcd62a2c$__906368b47b3e90610ea0908d908d907f00000000000000000000000000000000000000000000000000000000000000009060040161354a565b60006040518083038186803b158015610eb857600080fd5b505af4158015610ecc573d6000803e3d6000fd5b50508354604051633a4691bf60e11b81523060048201526001600160a01b03909116602482015273__$244e3ebe2ec11d6ffb6b7a6c13a445f3ea$__925063748d237e915060440160006040518083038186803b158015610f2c57600080fd5b505af4158015610f40573d6000803e3d6000fd5b5050835460028501546000935073__$244e3ebe2ec11d6ffb6b7a6c13a445f3ea$__9250631221a1ca9130916001600160a01b0390911690610f848d612710613366565b610f908f61271061329f565b610f9a91906132be565b610fa59060016131c5565b60405160e086901b6001600160e01b03191681526001600160a01b0394851660048201529284166024840152604483019190915260648201526084810186905260a481018c90527f000000000000000000000000000000000000000000000000000000000000000090911660c482015260e481018a905261010401600060405180830381865af415801561103d573d6000803e3d6000fd5b505050506040513d6000823e601f3d908101601f191682016040526110659190810190613a65565b50905060008190036110895760405162461bcd60e51b81526004016106c0906131f6565b6110958286868961211f565b6008909201919091555050600160065550505050505050565b6000546001600160a01b031633146110d85760405162461bcd60e51b81526004016106c09061326a565b600180546001600160a01b0319166001600160a01b0392909216919091179055565b806111175760405162461bcd60e51b81526004016106c090613bad565b60005b8181101561069a5733600090815260086020526040812060019185858581811061114657611146613199565b90506020020135815260200190815260200160002060006101000a81548160ff021916908315150217905550808061117d906131dd565b91505061111a565b6000546001600160a01b031633146111af5760405162461bcd60e51b81526004016106c09061326a565b600355565b6000546001600160a01b031633146111de5760405162461bcd60e51b81526004016106c09061326a565b6111e86000612171565b565b60026006540361120c5760405162461bcd60e51b81526004016106c0906132e0565b6002600655816112705760405162461bcd60e51b815260206004820152602960248201527f4578656375746553656c6c3a204d7573742068617665206174206c656173742060448201526837b7329037b93232b960b91b60648201526084016106c0565b600061271082600354611283919061329f565b61128d91906132be565b9050600061129b8284613366565b90506000858560008181106112b2576112b2613199565b6101a002919091016040908101356000818152600a60205291909120805491935091506001600160a01b03166112fa5760405162461bcd60e51b81526004016106c09061337d565b600381015460ff161561131f5760405162461bcd60e51b81526004016106c0906133b4565b6004805460055460405163b95522d560e01b815273__$212d7bd68238178e559b7980cfdcd62a2c$__9363b95522d59361136b936008936009938f938f938c938c938f939291016134e3565b602060405180830381865af4158015611388573d6000803e3d6000fd5b505050506040513d601f19601f820116820180604052508101906113ac9190613531565b506113b787876121c1565b60038101805460ff19166001179055600480820184905560405163345a3d9f60e11b815273__$212d7bd68238178e559b7980cfdcd62a2c$__916368b47b3e91611427918b918b917f0000000000000000000000000000000000000000000000000000000000000000910161354a565b60006040518083038186803b15801561143f57600080fd5b505af4158015611453573d6000803e3d6000fd5b505050506114623330856120f3565b60015461147a9033906001600160a01b0316866120f3565b80546002820154611498916001600160a01b0316903090339061224e565b505060016006555050505050565b6002600654036114c85760405162461bcd60e51b81526004016106c0906132e0565b60026006556000828152600a6020526040902080546001600160a01b031661153c5760405162461bcd60e51b815260206004820152602160248201527f436c61696d4e66743a20457865637574696f6e20646f65736e277420657869736044820152601d60fa1b60648201526084016106c0565b600381015460ff16156115915760405162461bcd60e51b815260206004820181905260248201527f436c61696d4e66743a20457865637574696f6e20616c726561647920736f6c6460448201526064016106c0565b6000838152600a60209081526040808320600301805460ff1916600190811790915533845260098352818420878552909252909120549082015481146116235760405162461bcd60e51b815260206004820152602160248201527f436c61696d4e66743a2077726f6e67207265616c20636f6e747269627574696f6044820152603760f91b60648201526084016106c0565b3360009081526009602090815260408083208784529091528120558154600283015461165c916001600160a01b0316903090869061224e565b505060016006555050565b6000546001600160a01b031633146116915760405162461bcd60e51b81526004016106c09061326a565b600255565b6000546001600160a01b031633146116c05760405162461bcd60e51b81526004016106c09061326a565b600555565b806116e25760405162461bcd60e51b81526004016106c090613bad565b60005b8181101561069a5733600090815260076020526040812060019185858581811061171157611711613199565b90506020020135815260200190815260200160002060006101000a81548160ff0219169083151502179055508080611748906131dd565b9150506116e5565b6000546001600160a01b0316331461177a5760405162461bcd60e51b81526004016106c09061326a565b6001600160a01b0381166117df5760405162461bcd60e51b815260206004820152602660248201527f4f776e61626c653a206e6577206f776e657220697320746865207a65726f206160448201526564647265737360d01b60648201526084016106c0565b6117e881612171565b50565b60026006540361180d5760405162461bcd60e51b81526004016106c0906132e0565b60026006558261186d5760405162461bcd60e51b815260206004820152602560248201527f457865637574653a204d7573742068617665206174206c65617374206f6e652060448201526437b93232b960d91b60648201526084016106c0565b600061271083600254611880919061329f565b61188a91906132be565b9050600061189882856131c5565b90506000868660008181106118af576118af613199565b90506101a0020160200160208101906118c89190612f78565b90506000878760008181106118df576118df613199565b60406101a0909102929092018201356000818152600a6020529290922054919250506001600160a01b0316156119575760405162461bcd60e51b815260206004820152601c60248201527f457865637574653a20496420616c72656164792065786563757465640000000060448201526064016106c0565b60408051610120810182526001600160a01b03848116825260208083018781528385018a81526000606086018181526080870182815260a0880183815260c0890184815260e08a018581526101008b018681528d8752600a9099529a852099518a546001600160a01b031916991698909817895594516001890155925160028801555160038701805460ff191691151591909117905590516004860155905160058501559151600684015592516007830155915160089091015580805b89811015611e4157368b8b83818110611a2f57611a2f613199565b6101a002919091019150600790506000611a4c6020840184612f78565b6001600160a01b031681526020808201929092526040908101600090812060c0850135825290925290205460ff1615611ac75760405162461bcd60e51b815260206004820152601760248201527f4f72646572206e6f6e636520697320756e757361626c6500000000000000000060448201526064016106c0565b600160076000611ada6020850185612f78565b6001600160a01b031681526020808201929092526040908101600090812060c086013582529092528120805460ff191692151592909217909155611b2b611b2636849003840184613bf4565b612384565b9050611b8281611b3e6020850185612f78565b611b5061016086016101408701613cb0565b8561016001358661018001357f0000000000000000000000000000000000000000000000000000000000000000612465565b611bc35760405162461bcd60e51b815260206004820152601260248201527114da59db985d1d5c994e88125b9d985b1a5960721b60448201526064016106c0565b428260a001351015611c075760405162461bcd60e51b815260206004820152600d60248201526c13dc99195c88195e1c1a5c9959609a1b60448201526064016106c0565b611c2388611c1a36859003850185613bf4565b60800151101590565b611c6f5760405162461bcd60e51b815260206004820152601860248201527f4f726465722063616e277420616363657074207072696365000000000000000060448201526064016106c0565b6001600160a01b038716611c896040840160208501612f78565b6001600160a01b031614611cdf5760405162461bcd60e51b815260206004820152601960248201527f4f7264657220636f6c6c656374696f6e206d69736d617463680000000000000060448201526064016106c0565b85826040013514611d325760405162461bcd60e51b815260206004820152601a60248201527f4f7264657220657865637574696f6e4964206d69736d6174636800000000000060448201526064016106c0565b60608201356000611d4c611d46888d613366565b8361253c565b9050611d5881886131c5565b9650611d7c611d6a6020860186612f78565b6001546001600160a01b0316836120f3565b6000611d9c878f611d8d9190613366565b611d978486613366565b61253c565b9050611da881886131c5565b9650611dc1611dba6020870187612f78565b33836120f3565b6000611dcd82846131c5565b90508060096000611de160208a018a612f78565b6001600160a01b03166001600160a01b0316815260200190815260200160002060008c81526020019081526020016000206000828254611e2191906131c5565b925050819055505050505050508080611e39906131dd565b915050611a14565b50858214611ea05760405162461bcd60e51b815260206004820152602660248201527f50726f746f636f6c20666565206e6f74207472616e7366657272656420636f72604482015265726563746c7960d01b60648201526084016106c0565b878114611f005760405162461bcd60e51b815260206004820152602860248201527f4578656375746f72207072696365206e6f74207472616e7366657272656420636044820152676f72726563746c7960c01b60648201526084016106c0565b611f0c8433308a61224e565b505060016006555050505050505050565b60005b8181101561069a576000838383818110611f3c57611f3c613199565b602090810292909201356000818152600a90935260409092208054929350916001600160a01b03169050611fbc5760405162461bcd60e51b815260206004820152602160248201527f507265436c61696d3a20457865637574696f6e20646f65736e277420657869736044820152601d60fa1b60648201526084016106c0565b805460028201546040516331a9108f60e11b8152600481019190915260009130916001600160a01b0390911690636352211e90602401602060405180830381865afa15801561200f573d6000803e3d6000fd5b505050506040513d601f19601f820116820180604052508101906120339190613ccd565b60038401546001600160a01b039190911691909114915060ff1680612056575080155b6120c15760405162461bcd60e51b815260206004820152603660248201527f507265436c61696d3a204e465420686173206e6f74206265656e20736f6c64206044820152753737b91030b9b5903430b9903132b2b7103a30b5b2b760511b60648201526084016106c0565b600382015460ff166120dd5760038201805460ff191660011790555b50505080806120eb906131dd565b915050611f20565b61069a7f0000000000000000000000000000000000000000000000000000000000000000848484612552565b6000828152600a60205260409020600581015485141580612144575083816004015414155b156121585760006007820181905560088201555b6005810194909455600484019290925550600690910155565b600080546001600160a01b038381166001600160a01b0319831681178455604051919092169283917f8be0079c531659141344cd1fd0a4f28419497f9722a3daafe3b4186f6b6457e09190a35050565b60005b8181101561069a57368383838181106121df576121df613199565b6101a00291909101915060019050600860006121fe6020850185612f78565b6001600160a01b03168152602080820192909252604090810160009081206101209590950135815293909152909120805460ff191691151591909117905580612246816131dd565b9150506121c4565b6040516301ffc9a760e01b81526380ac58cd60e01b60048201526001600160a01b038516906301ffc9a790602401602060405180830381865afa158015612299573d6000803e3d6000fd5b505050506040513d601f19601f820116820180604052508101906122bd9190613cea565b1561233157604051632142170760e11b81526001600160a01b0384811660048301528381166024830152604482018390528516906342842e0e90606401600060405180830381600087803b15801561231457600080fd5b505af1158015612328573d6000803e3d6000fd5b50505050610864565b60405162461bcd60e51b815260206004820152602260248201527f436f6c6c656374696f6e20646f6573206e6f7420737570706f72742045524337604482015261323160f01b60648201526084016106c0565b80516020808301516040808501516060860151608087015160a088015160c089015160e08a01516101008b01516101208c0151975160009b6124489b7f72e794cb40f2ebfd460c7e8f21afeacac61a902963a831638aeff99e28bc690f9b919a919998979695949392019a8b526001600160a01b03998a1660208c01529790981660408a01526060890195909552608088019390935260a087019190915260c086015260e08501526101008401526101208301919091526101408201526101600190565b604051602081830303815290604052805190602001209050919050565b60006001600160a01b0386166124bd5760405162461bcd60e51b815260206004820152601d60248201527f5369676e61747572655574696c3a20496e76616c6964207369676e657200000060448201526064016106c0565b6040805160208082018790528183018690526001600160f81b031960f889901b1660608301528251808303604101815260618301845261190160f01b60818401526083830186905260a38084018c90528451808503909101815260c3909301909352815191012061252f88828461256d565b9998505050505050505050565b600081831061254b5781610767565b5090919050565b8015610864576108646001600160a01b0385168484846126b9565b600080600061257c8585612713565b90925090506000816004811115612595576125956137f1565b1480156125b35750856001600160a01b0316826001600160a01b0316145b156125c357600192505050610767565b600080876001600160a01b0316631626ba7e60e01b88886040516024016125eb929190613d05565b60408051601f198184030181529181526020820180516001600160e01b03166001600160e01b03199094169390931790925290516126299190613d1e565b600060405180830381855afa9150503d8060008114612664576040519150601f19603f3d011682016040523d82523d6000602084013e612669565b606091505b509150915081801561267c575080516020145b80156126ad57508051630b135d3f60e11b906126a19083016020908101908401613d3a565b6001600160e01b031916145b98975050505050505050565b604080516001600160a01b0385811660248301528416604482015260648082018490528251808303909101815260849091019091526020810180516001600160e01b03166323b872dd60e01b179052610864908590612781565b60008082516041036127495760208301516040840151606085015160001a61273d87828585612853565b9450945050505061277a565b82516040036127725760208301516040840151612767868383612940565b93509350505061277a565b506000905060025b9250929050565b60006127d6826040518060400160405280602081526020017f5361666545524332303a206c6f772d6c6576656c2063616c6c206661696c6564815250856001600160a01b03166129799092919063ffffffff16565b80519091501561069a57808060200190518101906127f49190613cea565b61069a5760405162461bcd60e51b815260206004820152602a60248201527f5361666545524332303a204552433230206f7065726174696f6e20646964206e6044820152691bdd081cdd58d8d9595960b21b60648201526084016106c0565b6000807f7fffffffffffffffffffffffffffffff5d576e7357a4501ddfe92f46681b20a083111561288a5750600090506003612937565b8460ff16601b141580156128a257508460ff16601c14155b156128b35750600090506004612937565b6040805160008082526020820180845289905260ff881692820192909252606081018690526080810185905260019060a0016020604051602081039080840390855afa158015612907573d6000803e3d6000fd5b5050604051601f1901519150506001600160a01b03811661293057600060019250925050612937565b9150600090505b94509492505050565b6000806001600160ff1b0383168161295d60ff86901c601b6131c5565b905061296b87828885612853565b935093505050935093915050565b60606129888484600085612990565b949350505050565b6060824710156129f15760405162461bcd60e51b815260206004820152602660248201527f416464726573733a20696e73756666696369656e742062616c616e636520666f6044820152651c8818d85b1b60d21b60648201526084016106c0565b6001600160a01b0385163b612a485760405162461bcd60e51b815260206004820152601d60248201527f416464726573733a2063616c6c20746f206e6f6e2d636f6e747261637400000060448201526064016106c0565b600080866001600160a01b03168587604051612a649190613d1e565b60006040518083038185875af1925050503d8060008114612aa1576040519150601f19603f3d011682016040523d82523d6000602084013e612aa6565b606091505b5091509150612ab6828286612ac1565b979650505050505050565b60608315612ad0575081610767565b825115612ae05782518084602001fd5b8160405162461bcd60e51b81526004016106c09190613d57565b6001600160e01b0319811681146117e857600080fd5b600060208284031215612b2257600080fd5b813561076781612afa565b60008083601f840112612b3f57600080fd5b5081356001600160401b03811115612b5657600080fd5b6020830191508360208260051b850101111561277a57600080fd5b60008060208385031215612b8457600080fd5b82356001600160401b03811115612b9a57600080fd5b612ba685828601612b2d565b90969095509350505050565b6001600160a01b03811681146117e857600080fd5b8035612bd281612bb2565b919050565b634e487b7160e01b600052604160045260246000fd5b6040516102e081016001600160401b0381118282101715612c1057612c10612bd7565b60405290565b60405161020081016001600160401b0381118282101715612c1057612c10612bd7565b6040516101a081016001600160401b0381118282101715612c1057612c10612bd7565b604051601f8201601f191681016001600160401b0381118282101715612c8457612c84612bd7565b604052919050565b60006001600160401b03821115612ca557612ca5612bd7565b50601f01601f191660200190565b600082601f830112612cc457600080fd5b8135612cd7612cd282612c8c565b612c5c565b818152846020838601011115612cec57600080fd5b816020850160208301376000918101602001919091529392505050565b60008060008060808587031215612d1f57600080fd5b8435612d2a81612bb2565b93506020850135612d3a81612bb2565b92506040850135915060608501356001600160401b03811115612d5c57600080fd5b612d6887828801612cb3565b91505092959194509250565b600080600060408486031215612d8957600080fd5b8335925060208401356001600160401b0380821115612da757600080fd5b818601915086601f830112612dbb57600080fd5b813581811115612dca57600080fd5b876020828501011115612ddc57600080fd5b6020830194508093505050509250925092565b600060208284031215612e0157600080fd5b5035919050565b600080600060408486031215612e1d57600080fd5b83356001600160401b03811115612e3357600080fd5b612e3f86828701612b2d565b9094509250506020840135612e5381612bb2565b809150509250925092565b60008083601f840112612e7057600080fd5b5081356001600160401b03811115612e8757600080fd5b6020830191508360206101a08302850101111561277a57600080fd5b60008060008060608587031215612eb957600080fd5b84356001600160401b03811115612ecf57600080fd5b612edb87828801612e5e565b90989097506020870135966040013595509350505050565b60008060408385031215612f0657600080fd5b8235612f1181612bb2565b946020939093013593505050565b600080600080600060808688031215612f3757600080fd5b85356001600160401b03811115612f4d57600080fd5b612f5988828901612e5e565b9099909850602088013597604081013597506060013595509350505050565b600060208284031215612f8a57600080fd5b813561076781612bb2565b600080600060408486031215612faa57600080fd5b83356001600160401b03811115612fc057600080fd5b612fcc86828701612e5e565b909790965060209590950135949350505050565b60008060408385031215612ff357600080fd5b82359150602083013561300581612bb2565b809150509250929050565b600082601f83011261302157600080fd5b813560206001600160401b0382111561303c5761303c612bd7565b8160051b61304b828201612c5c565b928352848101820192828101908785111561306557600080fd5b83870192505b84831015612ab65782358252918301919083019061306b565b600080600080600060a0868803121561309c57600080fd5b85356130a781612bb2565b945060208601356130b781612bb2565b935060408601356001600160401b03808211156130d357600080fd5b6130df89838a01613010565b945060608801359150808211156130f557600080fd5b61310189838a01613010565b9350608088013591508082111561311757600080fd5b5061312488828901612cb3565b9150509295509295909350565b600080600080600060a0868803121561314957600080fd5b853561315481612bb2565b9450602086013561316481612bb2565b9350604086013592506060860135915060808601356001600160401b0381111561318d57600080fd5b61312488828901612cb3565b634e487b7160e01b600052603260045260246000fd5b634e487b7160e01b600052601160045260246000fd5b600082198211156131d8576131d86131af565b500190565b6000600182016131ef576131ef6131af565b5060010190565b602080825260129082015271048617368206d757374206e6f7420626520360741b604082015260600190565b6000808585111561323257600080fd5b8386111561323f57600080fd5b5050820193919092039150565b8035602083101561060057600019602084900360031b1b1692915050565b6020808252818101527f4f776e61626c653a2063616c6c6572206973206e6f7420746865206f776e6572604082015260600190565b60008160001904831182151516156132b9576132b96131af565b500290565b6000826132db57634e487b7160e01b600052601260045260246000fd5b500490565b6020808252601f908201527f5265656e7472616e637947756172643a207265656e7472616e742063616c6c00604082015260600190565b6020808252602f908201527f4c6973744f6e4d61726b6574706c6163653a204d75737420686176652061742060408201526e3632b0b9ba1037b7329037b93232b960891b606082015260800190565b600082821015613378576133786131af565b500390565b60208082526017908201527f457865637574696f6e20646f65736e2774206578697374000000000000000000604082015260600190565b602080825260169082015275115e1958dd5d1a5bdb88185b1c9958591e481cdbdb1960521b604082015260600190565b60ff811681146117e857600080fd5b8035612bd2816133e4565b8183526000602080850194508260005b858110156134d8576134308761342384612bc7565b6001600160a01b03169052565b61343b838301612bc7565b6001600160a01b03168388015260408281013590880152606080830135908801526080808301359088015260a0808301359088015260c0808301359088015260e08083013590880152610100808301359088015261012080830135908801526101406134a88184016133f3565b60ff1690880152610160828101359088015261018080830135908801526101a0968701969091019060010161340e565b509495945050505050565b60006101008b83528a60208401528060408401526135048184018a8c6133fe565b60608401989098525050608081019490945260a084019290925260c083015260e090910152949350505050565b60006020828403121561354357600080fd5b5051919050565b60408152600061355e6040830185876133fe565b9050826020830152949350505050565b8051612bd281612bb2565b805160028110612bd257600080fd5b60005b838110156135a357818101518382015260200161358b565b838111156108645750506000910152565b600082601f8301126135c557600080fd5b81516135d3612cd282612c8c565b8181528460208386010111156135e857600080fd5b612988826020830160208701613588565b60008060006060848603121561360e57600080fd5b835192506020840151915060408401516001600160401b038082111561363357600080fd5b908501906102e0828803121561364857600080fd5b613650612bed565b6136598361356e565b81526136676020840161356e565b60208201526136786040840161356e565b6040820152606083015160608201526080830151608082015260a083015160a082015260c083015160c08201526136b160e0840161356e565b60e08201526101006136c4818501613579565b908201526101206136d6848201613579565b908201526101406136e8848201613579565b908201526101606136fa84820161356e565b9082015261018061370c848201613579565b908201526101a0838101518381111561372457600080fd5b6137308a8287016135b4565b8284015250506101c0808401518381111561374a57600080fd5b6137568a8287016135b4565b8284015250506101e061376a81850161356e565b90820152610200838101518381111561378257600080fd5b61378e8a8287016135b4565b82840152505061022091506137a482840161356e565b918101919091526102408281015190820152610260808301519082015261028080830151908201526102a080830151908201526102c0918201519181019190915292959194509192509050565b634e487b7160e01b600052602160045260246000fd5b6002811061382557634e487b7160e01b600052602160045260246000fd5b9052565b60008151808452613841816020860160208601613588565b601f01601f19169290920160200192915050565b6040815261386f6040820184516001600160a01b03169052565b6000602084015161388b60608401826001600160a01b03169052565b5060408401516001600160a01b038116608084015250606084015160a0830152608084015160c083015260a084015160e083015260c0840151610100818185015260e086015191506101206138ea818601846001600160a01b03169052565b9086015191506101409061390085830184613807565b860151915061016061391485820184613807565b9086015191506101809061392a85830184613807565b86015191506101a0613946858201846001600160a01b03169052565b9086015191506101c09061395c85830184613807565b808701519250506102e06101e0818187015261397c610320870185613829565b9350828801519250603f1961020081888703018189015261399d8686613829565b9550828a0151945061022092506139be838901866001600160a01b03169052565b808a01519450506102408188870301818901526139db8686613829565b9550828a0151945061026092506139fc838901866001600160a01b03169052565b89015161028088810191909152918901516102a080890191909152918901516102c0808901919091529189015192870192909252909601516103008501525060209092019290925292915050565b80518015158114612bd257600080fd5b8051612bd2816133e4565b60008060408385031215613a7857600080fd5b8251915060208301516001600160401b0380821115613a9657600080fd5b908401906102008287031215613aab57600080fd5b613ab3612c16565b613abc83613a4a565b8152613aca6020840161356e565b6020820152613adb6040840161356e565b6040820152606083015160608201526080830151608082015260a083015160a0820152613b0a60c0840161356e565b60c0820152613b1b60e0840161356e565b60e082015261010083810151908201526101208084015190820152610140808401519082015261016080840151908201526101808084015183811115613b6057600080fd5b613b6c898287016135b4565b8284015250506101a09150613b82828401613a5a565b828201526101c0915081830151828201526101e0915081830151828201528093505050509250929050565b60208082526027908201527f43616e63656c3a204d7573742070726f76696465206174206c65617374206f6e60408201526665206e6f6e636560c81b606082015260800190565b60006101a08284031215613c0757600080fd5b613c0f612c39565b613c1883612bc7565b8152613c2660208401612bc7565b602082015260408301356040820152606083013560608201526080830135608082015260a083013560a082015260c083013560c082015260e083013560e0820152610100808401358183015250610120808401358183015250610140613c8d8185016133f3565b908201526101608381013590820152610180928301359281019290925250919050565b600060208284031215613cc257600080fd5b8135610767816133e4565b600060208284031215613cdf57600080fd5b815161076781612bb2565b600060208284031215613cfc57600080fd5b61076782613a4a565b8281526040602082015260006129886040830184613829565b60008251613d30818460208701613588565b9190910192915050565b600060208284031215613d4c57600080fd5b815161076781612afa565b602081526000610767602083018461382956fea26469706673582212200032af29b1fe8d4c01de75460fd026e88349612507b0f06a5e508e8cdd122cf964736f6c634300080d0033",
  "libraries": {
    "BuyOrderV1Functions": "0x79E24B4766011FB3461e1C2bf9f82D7a687361e5",
    "OpenSeaUtil": "0x6d50Eb6A27b3FdD297A8EDAdFDe7D5025D9F2b4B",
    "LooksRareUtil": "0x020f20a352BcA41A9334a512c3EeAd28860814D8"
  },
  "devdoc": {
    "kind": "dev",
    "methods": {
      "changeMinConsensusForSellingOverOrEqualBuyPrice(uint256)": {
        "params": {
          "_minConsensusForSellingOverOrEqualBuyPrice": "new min consensus (out of 10_000)"
        }
      },
      "changeMinConsensusForSellingUnderBuyPrice(uint256)": {
        "params": {
          "_minConsensusForSellingUnderBuyPrice": "new min consensus (out of 10_000)"
        }
      },
      "changeProtocolFeeFraction(uint256)": {
        "params": {
          "_protocolFeeFraction": "new fee fraction (out of 10_000)"
        }
      },
      "changeProtocolFeeFractionFromSelling(uint256)": {
        "params": {
          "_protocolFeeFractionFromSelling": "new fee fraction (out of 10_000)"
        }
      },
      "changeProtocolFeeReceiver(address)": {
        "params": {
          "_protocolFeeReceiver": "new receiver"
        }
      },
      "onERC721Received(address,address,uint256,bytes)": {
        "details": "See {IERC721Receiver-onERC721Received}. Always returns `IERC721Receiver.onERC721Received.selector`."
      },
      "owner()": {
        "details": "Returns the address of the current owner."
      },
      "renounceOwnership()": {
        "details": "Leaves the contract without owner. It will not be possible to call `onlyOwner` functions anymore. Can only be called by the current owner. NOTE: Renouncing ownership will leave the contract without an owner, thereby removing any functionality that is only available to the owner."
      },
      "supportsInterface(bytes4)": {
        "details": "See {IERC165-supportsInterface}."
      },
      "transferOwnership(address)": {
        "details": "Transfers ownership of the contract to a new account (`newOwner`). Can only be called by the current owner."
      }
    },
    "version": 1
  },
  "userdoc": {
    "kind": "user",
    "methods": {
      "changeMinConsensusForSellingOverOrEqualBuyPrice(uint256)": {
        "notice": "[onlyOwner] Change the min consensus for selling over or equal to buy price"
      },
      "changeMinConsensusForSellingUnderBuyPrice(uint256)": {
        "notice": "[onlyOwner] Change the min consensus for selling under buy price"
      },
      "changeProtocolFeeFraction(uint256)": {
        "notice": "[onlyOwner] Change the protocol fee fraction"
      },
      "changeProtocolFeeFractionFromSelling(uint256)": {
        "notice": "[onlyOwner] Change the protocol fee fraction from selling"
      },
      "changeProtocolFeeReceiver(address)": {
        "notice": "[onlyOwner] Change the protocol fee receiver"
      },
      "executeOnPassiveBuyOrders((address,address,uint256,uint256,uint256,uint256,uint256,uint256,uint256,uint256,uint8,bytes32,bytes32)[],uint256,uint256)": {
        "notice": "Executes on an array of passive buy orders"
      }
    },
    "version": 1
  },
  "storageLayout": {
    "storage": [
      {
        "astId": 550,
        "contract": "contracts/ClowderMain.sol:ClowderMain",
        "label": "_owner",
        "offset": 0,
        "slot": "0",
        "type": "t_address"
      },
      {
        "astId": 4741,
        "contract": "contracts/ClowderMain.sol:ClowderMain",
        "label": "protocolFeeReceiver",
        "offset": 0,
        "slot": "1",
        "type": "t_address"
      },
      {
        "astId": 4744,
        "contract": "contracts/ClowderMain.sol:ClowderMain",
        "label": "protocolFeeFraction",
        "offset": 0,
        "slot": "2",
        "type": "t_uint256"
      },
      {
        "astId": 4747,
        "contract": "contracts/ClowderMain.sol:ClowderMain",
        "label": "protocolFeeFractionFromSelling",
        "offset": 0,
        "slot": "3",
        "type": "t_uint256"
      },
      {
        "astId": 4750,
        "contract": "contracts/ClowderMain.sol:ClowderMain",
        "label": "minConsensusForSellingOverOrEqualBuyPrice",
        "offset": 0,
        "slot": "4",
        "type": "t_uint256"
      },
      {
        "astId": 4753,
        "contract": "contracts/ClowderMain.sol:ClowderMain",
        "label": "minConsensusForSellingUnderBuyPrice",
        "offset": 0,
        "slot": "5",
        "type": "t_uint256"
      },
      {
        "astId": 764,
        "contract": "contracts/ClowderMain.sol:ClowderMain",
        "label": "_status",
        "offset": 0,
        "slot": "6",
        "type": "t_uint256"
      },
      {
        "astId": 4839,
        "contract": "contracts/ClowderMain.sol:ClowderMain",
        "label": "isUsedBuyNonce",
        "offset": 0,
        "slot": "7",
        "type": "t_mapping(t_address,t_mapping(t_uint256,t_bool))"
      },
      {
        "astId": 4845,
        "contract": "contracts/ClowderMain.sol:ClowderMain",
        "label": "isUsedSellNonce",
        "offset": 0,
        "slot": "8",
        "type": "t_mapping(t_address,t_mapping(t_uint256,t_bool))"
      },
      {
        "astId": 4851,
        "contract": "contracts/ClowderMain.sol:ClowderMain",
        "label": "realContributions",
        "offset": 0,
        "slot": "9",
        "type": "t_mapping(t_address,t_mapping(t_uint256,t_uint256))"
      },
      {
        "astId": 4856,
        "contract": "contracts/ClowderMain.sol:ClowderMain",
        "label": "executions",
        "offset": 0,
        "slot": "10",
        "type": "t_mapping(t_uint256,t_struct(Execution)6381_storage)"
      }
    ],
    "types": {
      "t_address": {
        "encoding": "inplace",
        "label": "address",
        "numberOfBytes": "20"
      },
      "t_bool": {
        "encoding": "inplace",
        "label": "bool",
        "numberOfBytes": "1"
      },
      "t_bytes32": {
        "encoding": "inplace",
        "label": "bytes32",
        "numberOfBytes": "32"
      },
      "t_mapping(t_address,t_mapping(t_uint256,t_bool))": {
        "encoding": "mapping",
        "key": "t_address",
        "label": "mapping(address => mapping(uint256 => bool))",
        "numberOfBytes": "32",
        "value": "t_mapping(t_uint256,t_bool)"
      },
      "t_mapping(t_address,t_mapping(t_uint256,t_uint256))": {
        "encoding": "mapping",
        "key": "t_address",
        "label": "mapping(address => mapping(uint256 => uint256))",
        "numberOfBytes": "32",
        "value": "t_mapping(t_uint256,t_uint256)"
      },
      "t_mapping(t_uint256,t_bool)": {
        "encoding": "mapping",
        "key": "t_uint256",
        "label": "mapping(uint256 => bool)",
        "numberOfBytes": "32",
        "value": "t_bool"
      },
      "t_mapping(t_uint256,t_struct(Execution)6381_storage)": {
        "encoding": "mapping",
        "key": "t_uint256",
        "label": "mapping(uint256 => struct Execution)",
        "numberOfBytes": "32",
        "value": "t_struct(Execution)6381_storage"
      },
      "t_mapping(t_uint256,t_uint256)": {
        "encoding": "mapping",
        "key": "t_uint256",
        "label": "mapping(uint256 => uint256)",
        "numberOfBytes": "32",
        "value": "t_uint256"
      },
      "t_struct(Execution)6381_storage": {
        "encoding": "inplace",
        "label": "struct Execution",
        "members": [
          {
            "astId": 6364,
            "contract": "contracts/ClowderMain.sol:ClowderMain",
            "label": "collection",
            "offset": 0,
            "slot": "0",
            "type": "t_address"
          },
          {
            "astId": 6366,
            "contract": "contracts/ClowderMain.sol:ClowderMain",
            "label": "buyPrice",
            "offset": 0,
            "slot": "1",
            "type": "t_uint256"
          },
          {
            "astId": 6368,
            "contract": "contracts/ClowderMain.sol:ClowderMain",
            "label": "tokenId",
            "offset": 0,
            "slot": "2",
            "type": "t_uint256"
          },
          {
            "astId": 6370,
            "contract": "contracts/ClowderMain.sol:ClowderMain",
            "label": "sold",
            "offset": 0,
            "slot": "3",
            "type": "t_bool"
          },
          {
            "astId": 6372,
            "contract": "contracts/ClowderMain.sol:ClowderMain",
            "label": "sellPrice",
            "offset": 0,
            "slot": "4",
            "type": "t_uint256"
          },
          {
            "astId": 6374,
            "contract": "contracts/ClowderMain.sol:ClowderMain",
            "label": "listingEndTime",
            "offset": 0,
            "slot": "5",
            "type": "t_uint256"
          },
          {
            "astId": 6376,
            "contract": "contracts/ClowderMain.sol:ClowderMain",
            "label": "sellProtocolFee",
            "offset": 0,
            "slot": "6",
            "type": "t_uint256"
          },
          {
            "astId": 6378,
            "contract": "contracts/ClowderMain.sol:ClowderMain",
            "label": "openSeaOrderHash",
            "offset": 0,
            "slot": "7",
            "type": "t_bytes32"
          },
          {
            "astId": 6380,
            "contract": "contracts/ClowderMain.sol:ClowderMain",
            "label": "looksRareOrderHash",
            "offset": 0,
            "slot": "8",
            "type": "t_bytes32"
          }
        ],
        "numberOfBytes": "288"
      },
      "t_uint256": {
        "encoding": "inplace",
        "label": "uint256",
        "numberOfBytes": "32"
      }
    }
  }
}