{
  "address": "0x020f20a352BcA41A9334a512c3EeAd28860814D8",
  "abi": [
    {
      "inputs": [
        {
          "internalType": "address",
          "name": "seller",
          "type": "address"
        },
        {
          "internalType": "address",
          "name": "collection",
          "type": "address"
        },
        {
          "internalType": "uint256",
          "name": "tokenId",
          "type": "uint256"
        },
        {
          "internalType": "uint256",
          "name": "listPrice",
          "type": "uint256"
        },
        {
          "internalType": "uint256",
          "name": "expiration",
          "type": "uint256"
        },
        {
          "internalType": "uint256",
          "name": "feesFraction",
          "type": "uint256"
        },
        {
          "internalType": "address",
          "name": "paymentToken",
          "type": "address"
        },
        {
          "internalType": "uint256",
          "name": "nonce",
          "type": "uint256"
        }
      ],
      "name": "buildAndGetOpenSeaOrderHash",
      "outputs": [
        {
          "internalType": "bytes32",
          "name": "finalOrderHash",
          "type": "bytes32"
        },
        {
          "components": [
            {
              "internalType": "bool",
              "name": "isOrderAsk",
              "type": "bool"
            },
            {
              "internalType": "address",
              "name": "signer",
              "type": "address"
            },
            {
              "internalType": "address",
              "name": "collection",
              "type": "address"
            },
            {
              "internalType": "uint256",
              "name": "price",
              "type": "uint256"
            },
            {
              "internalType": "uint256",
              "name": "tokenId",
              "type": "uint256"
            },
            {
              "internalType": "uint256",
              "name": "amount",
              "type": "uint256"
            },
            {
              "internalType": "address",
              "name": "strategy",
              "type": "address"
            },
            {
              "internalType": "address",
              "name": "currency",
              "type": "address"
            },
            {
              "internalType": "uint256",
              "name": "nonce",
              "type": "uint256"
            },
            {
              "internalType": "uint256",
              "name": "startTime",
              "type": "uint256"
            },
            {
              "internalType": "uint256",
              "name": "endTime",
              "type": "uint256"
            },
            {
              "internalType": "uint256",
              "name": "minPercentageToAsk",
              "type": "uint256"
            },
            {
              "internalType": "bytes",
              "name": "params",
              "type": "bytes"
            },
            {
              "internalType": "uint8",
              "name": "v",
              "type": "uint8"
            },
            {
              "internalType": "bytes32",
              "name": "r",
              "type": "bytes32"
            },
            {
              "internalType": "bytes32",
              "name": "s",
              "type": "bytes32"
            }
          ],
          "internalType": "struct LooksRareUtil.MakerOrder",
          "name": "order",
          "type": "tuple"
        }
      ],
      "stateMutability": "view",
      "type": "function"
    }
  ],
  "transactionHash": "0x86b715b0d72758aed8197ef6972bdbb369538aaf2b7eaa2e252645dc3ce40f4f",
  "args": [],
  "numDeployments": 1,
  "solcInputHash": "21dff2ffcfaa64fcc46cfa2256209c04",
  "bytecode": "0x61075b61003a600b82828239805160001a60731461002d57634e487b7160e01b600052600060045260246000fd5b30600052607381538281f3fe73000000000000000000000000000000000000000030146080604052600436106100405760003560e01c80631221a1ca14610045578063748d237e1461006f575b600080fd5b61005861005336600461041a565b610091565b6040516100669291906104db565b60405180910390f35b81801561007b57600080fd5b5061008f61008a366004610611565b610252565b005b604080516102008101825260008082526020820181905291810182905260608082018390526080820183905260a0820183905260c0820183905260e0820183905261010082018390526101208201839052610140820183905261016082018390526101808201526101a081018290526101c081018290526101e081018290526040518061020001604052806001151581526020018b6001600160a01b031681526020018a6001600160a01b031681526020018881526020018981526020016001815260200173732319a3590e4fa838c111826f9584a9a2fdea1a6001600160a01b03168152602001856001600160a01b03168152602001848152602001428152602001878152602001866127106101a89190610644565b815260408051602081810183526000808352908401919091529082018190526060820181905260809091015290506102437f6a8c50eacf3837f71a91496bc31832bb7e76c97cd16ce5830f970949edc565e561020383610357565b60405161190160f01b6020820152602281018390526042810182905260009060620160405160208183030381529060405280519060200120905092915050565b91509850989650505050505050565b60405163e985e9c560e01b81526001600160a01b038381166004830152733f65a762f15d01809cdc6b43d8849ff24949c86a602483015282919082169063e985e9c590604401602060405180830381865afa1580156102b5573d6000803e3d6000fd5b505050506040513d601f19601f820116820180604052508101906102d99190610669565b6103525760405163a22cb46560e01b8152733f65a762f15d01809cdc6b43d8849ff24949c86a6004820152600160248201526001600160a01b0382169063a22cb46590604401600060405180830381600087803b15801561033957600080fd5b505af115801561034d573d6000803e3d6000fd5b505050505b505050565b80516020808301516040808501516060860151608087015160a088015160c089015160e08a01516101008b01516101208c01516101408d01516101608e01516101808f01518051908e01209a5160009e6103e19e7f40261ade532fa1d2c7293df30aaadb9b3c616fae525a0b56d3d411c841a850289e919d919c9b9a999897969594939201610692565b604051602081830303815290604052805190602001209050919050565b80356001600160a01b038116811461041557600080fd5b919050565b600080600080600080600080610100898b03121561043757600080fd5b610440896103fe565b975061044e60208a016103fe565b965060408901359550606089013594506080890135935060a0890135925061047860c08a016103fe565b915060e089013590509295985092959890939650565b6000815180845260005b818110156104b457602081850181015186830182015201610498565b818111156104c6576000602083870101525b50601f01601f19169290920160200192915050565b828152604060208201526104f460408201835115159052565b6000602083015161051060608401826001600160a01b03169052565b5060408301516001600160a01b038116608084015250606083015160a0830152608083015160c083015260a083015160e083015260c0830151610100610560818501836001600160a01b03169052565b60e0850151915061012061057e818601846001600160a01b03169052565b908501516101408581019190915290850151610160808601919091529085015161018080860191909152908501516101a080860191909152908501516102006101c080870182905291935091906105d961024087018561048e565b918701519193506101e06105f18782018460ff169052565b908701519286019290925250909301516102209092019190915250919050565b6000806040838503121561062457600080fd5b61062d836103fe565b915061063b602084016103fe565b90509250929050565b60008282101561066457634e487b7160e01b600052601160045260246000fd5b500390565b60006020828403121561067b57600080fd5b8151801515811461068b57600080fd5b9392505050565b8e81528d151560208201526001600160a01b038d811660408301528c1660608201526101c081018b60808301528a60a08301528960c08301526106e060e083018a6001600160a01b03169052565b6001600160a01b0388166101008301526101208201969096526101408101949094526101608401929092526101808301526101a090910152999850505050505050505056fea264697066735822122070b69276f004b008e23ef17ff8c57360fd4fdb55d4745a3c00c52808b4a78ae364736f6c634300080d0033",
  "devdoc": {
    "kind": "dev",
    "methods": {},
    "version": 1
  },
  "userdoc": {
    "kind": "user",
    "methods": {},
    "version": 1
  },
  "storageLayout": {
    "storage": [],
    "types": null
  }
}