{
  "address": "0x6d50Eb6A27b3FdD297A8EDAdFDe7D5025D9F2b4B",
  "abi": [
    {
      "inputs": [],
      "name": "WyvernTokenTransferProxy",
      "outputs": [
        {
          "internalType": "address",
          "name": "",
          "type": "address"
        }
      ],
      "stateMutability": "view",
      "type": "function"
    },
    {
      "inputs": [
        {
          "internalType": "address",
          "name": "seller",
          "type": "address"
        },
        {
          "internalType": "address",
          "name": "collection",
          "type": "address"
        },
        {
          "internalType": "uint256",
          "name": "tokenId",
          "type": "uint256"
        },
        {
          "internalType": "uint256",
          "name": "listPrice",
          "type": "uint256"
        },
        {
          "internalType": "uint256",
          "name": "expiration",
          "type": "uint256"
        },
        {
          "internalType": "uint256",
          "name": "feesFraction",
          "type": "uint256"
        },
        {
          "internalType": "address",
          "name": "paymentToken",
          "type": "address"
        }
      ],
      "name": "buildAndGetOpenSeaOrderHash",
      "outputs": [
        {
          "internalType": "bytes32",
          "name": "finalOrderHash",
          "type": "bytes32"
        },
        {
          "internalType": "bytes32",
          "name": "paramsOrderHash",
          "type": "bytes32"
        },
        {
          "components": [
            {
              "internalType": "address",
              "name": "exchange",
              "type": "address"
            },
            {
              "internalType": "address",
              "name": "maker",
              "type": "address"
            },
            {
              "internalType": "address",
              "name": "taker",
              "type": "address"
            },
            {
              "internalType": "uint256",
              "name": "makerRelayerFee",
              "type": "uint256"
            },
            {
              "internalType": "uint256",
              "name": "takerRelayerFee",
              "type": "uint256"
            },
            {
              "internalType": "uint256",
              "name": "makerProtocolFee",
              "type": "uint256"
            },
            {
              "internalType": "uint256",
              "name": "takerProtocolFee",
              "type": "uint256"
            },
            {
              "internalType": "address",
              "name": "feeRecipient",
              "type": "address"
            },
            {
              "internalType": "enum OpenSeaUtil.FeeMethod",
              "name": "feeMethod",
              "type": "OpenSeaUtil.FeeMethod"
            },
            {
              "internalType": "enum SaleKindInterface.Side",
              "name": "side",
              "type": "SaleKindInterface.Side"
            },
            {
              "internalType": "enum SaleKindInterface.SaleKind",
              "name": "saleKind",
              "type": "SaleKindInterface.SaleKind"
            },
            {
              "internalType": "address",
              "name": "target",
              "type": "address"
            },
            {
              "internalType": "enum AuthenticatedProxy.HowToCall",
              "name": "howToCall",
              "type": "AuthenticatedProxy.HowToCall"
            },
            {
              "internalType": "bytes",
              "name": "calldata2",
              "type": "bytes"
            },
            {
              "internalType": "bytes",
              "name": "replacementPattern",
              "type": "bytes"
            },
            {
              "internalType": "address",
              "name": "staticTarget",
              "type": "address"
            },
            {
              "internalType": "bytes",
              "name": "staticExtradata",
              "type": "bytes"
            },
            {
              "internalType": "address",
              "name": "paymentToken",
              "type": "address"
            },
            {
              "internalType": "uint256",
              "name": "basePrice",
              "type": "uint256"
            },
            {
              "internalType": "uint256",
              "name": "extra",
              "type": "uint256"
            },
            {
              "internalType": "uint256",
              "name": "listingTime",
              "type": "uint256"
            },
            {
              "internalType": "uint256",
              "name": "expirationTime",
              "type": "uint256"
            },
            {
              "internalType": "uint256",
              "name": "salt",
              "type": "uint256"
            }
          ],
          "internalType": "struct OpenSeaUtil.OpenSeaOrder",
          "name": "order",
          "type": "tuple"
        }
      ],
      "stateMutability": "view",
      "type": "function"
    },
    {
      "inputs": [],
      "name": "openSea",
      "outputs": [
        {
          "internalType": "contract OpenSea",
          "name": "",
          "type": "OpenSea"
        }
      ],
      "stateMutability": "view",
      "type": "function"
    },
    {
      "inputs": [],
      "name": "wyvernProxyRegistry",
      "outputs": [
        {
          "internalType": "contract OpenSeaProxyRegistry",
          "name": "",
          "type": "OpenSeaProxyRegistry"
        }
      ],
      "stateMutability": "view",
      "type": "function"
    }
  ],
  "transactionHash": "0x5b399da5da0954f33a76106a37a8e0b1611e742761e094b941e1d89ac56c936d",
  "args": [],
  "numDeployments": 1,
  "solcInputHash": "21dff2ffcfaa64fcc46cfa2256209c04",
  "bytecode": "0x610ef161003a600b82828239805160001a60731461002d57634e487b7160e01b600052600060045260246000fd5b30600052607381538281f3fe73000000000000000000000000000000000000000030146080604052600436106100615760003560e01c8063124654c214610066578063667d09a11461009e578063757aaba9146100b9578063d7a2b568146100d4578063f06a206d146100f6575b600080fd5b61008173dd54d660178b28f6033a953b0e55073cfa7e374481565b6040516001600160a01b0390911681526020015b60405180910390f35b61008173cdc9188485316bf6fa416d02b4f680227c50b89e81565b610081731e525eeaf261ca41b809884cbde9dd9e1619573a81565b6100e76100e23660046109a4565b610118565b60405161009593929190610aaa565b81801561010257600080fd5b50610116610111366004610cab565b6103bd565b005b6000806101e2604080516102e081018252600080825260208201819052918101829052606081018290526080810182905260a0810182905260c0810182905260e0810182905290610100820190815260200160008152602001600081526000602082018190526040909101908152602001606081526020016060815260200160006001600160a01b031681526020016060815260200160006001600160a01b0316815260200160008152602001600081526020016000815260200160008152602001600081525090565b604080516102e08101825273dd54d660178b28f6033a953b0e55073cfa7e374481526001600160a01b038c1660208201526000918101829052606081018790526080810182905260a0810182905260c0810191909152735b3256965e7c3cf26e11fcaf296dfc8807c0107360e082015261010081016001815260200160018152602001600081527345b594792a5cdc008d0de1c1d69faa3d16b3ddc16020820152604001600181526020018b6040516020016102b6919060609190911b6bffffffffffffffffffffffff1916815260140190565b60408051601f19818403018152908290526bffffffffffffffffffffffff1960608e901b1660208301529060340160408051601f19818403018152828252602083018e9052910160408051601f198184030181529082905261031c939291602001610cf6565b604051602081830303815290604052815260200160405180610120016040528060e48152602001610dd860e49139815260200160006001600160a01b03168152602001604051806020016040528060008152508152602001856001600160a01b03168152602001888152602001600081526020014281526020018781526020014281525090506103ab816106c3565b909b909a509098509650505050505050565b60405163c455279160e01b81526001600160a01b0384166004820152600090731e525eeaf261ca41b809884cbde9dd9e1619573a9063c455279190602401602060405180830381865afa158015610418573d6000803e3d6000fd5b505050506040513d601f19601f8201168201806040525081019061043c9190610d78565b90506001600160a01b0381166104c757731e525eeaf261ca41b809884cbde9dd9e1619573a6001600160a01b031663ddd81f826040518163ffffffff1660e01b81526004016020604051808303816000875af11580156104a0573d6000803e3d6000fd5b505050506040513d601f19601f820116820180604052508101906104c49190610d78565b90505b60405163e985e9c560e01b81526001600160a01b038581166004830152828116602483015284919082169063e985e9c590604401602060405180830381865afa158015610518573d6000803e3d6000fd5b505050506040513d601f19601f8201168201806040525081019061053c9190610d9c565b6105a35760405163a22cb46560e01b81526001600160a01b0383811660048301526001602483015282169063a22cb46590604401600060405180830381600087803b15801561058a57600080fd5b505af115801561059e573d6000803e3d6000fd5b505050505b604051636eb1769f60e11b81526001600160a01b03868116600483015273cdc9188485316bf6fa416d02b4f680227c50b89e602483015284916000199183169063dd62ed3e90604401602060405180830381865afa158015610609573d6000803e3d6000fd5b505050506040513d601f19601f8201168201806040525081019061062d9190610dbe565b10156106bb5760405163095ea7b360e01b815273cdc9188485316bf6fa416d02b4f680227c50b89e600482015260001960248201526001600160a01b0382169063095ea7b3906044016020604051808303816000875af1158015610695573d6000803e3d6000fd5b505050506040513d601f19601f820116820180604052508101906106b99190610d9c565b505b505050505050565b6020810151604051623f675f60e91b81526001600160a01b039091166004820152600090819061075490849073dd54d660178b28f6033a953b0e55073cfa7e374490637ecebe0090602401602060405180830381865afa15801561072b573d6000803e3d6000fd5b505050506040513d601f19601f8201168201806040525081019061074f9190610dbe565b6107b2565b60405161190160f01b60208201527fd38471a54d114ee69fbb07d1769a0bbecd4f429ddf5932c7098093908e24bd9d602282015260428101829052909150606201604051602081830303815290604052805190602001209150915091565b604080516103208082526103408201909252600091908290826020820181803683370190505090506020810161080b817fdba08a88a748f356e8faf8578488343eab21b1741728779c9dcfdc782bc800f8815260200190565b865181526020808801519082015260408088015190820152606080880151908201526080808801519082015260a0808801519082015260c0808801519082015260e08088015190820152610100808801519101915061087f908290600181111561087757610877610a16565b815260200190565b905061089c81876101200151600181111561087757610877610a16565b90506108b981876101400151600181111561087757610877610a16565b610160870151815290506020810190506108e481876101800151600181111561087757610877610a16565b90506108ff81876101a0015180519060200120815260200190565b905061091a81876101c0015180519060200120815260200190565b6101e0870151815261020087015180516020918201208183015261022088015160408301526102408801516060830152610260880151608083015261028088015160a08301526102a088015160c08301526102c09097015160e082015261010001949094529093019290922092915050565b6001600160a01b03811681146109a157600080fd5b50565b600080600080600080600060e0888a0312156109bf57600080fd5b87356109ca8161098c565b965060208801356109da8161098c565b955060408801359450606088013593506080880135925060a0880135915060c0880135610a068161098c565b8091505092959891949750929550565b634e487b7160e01b600052602160045260246000fd5b60028110610a4a57634e487b7160e01b600052602160045260246000fd5b9052565b60005b83811015610a69578181015183820152602001610a51565b83811115610a78576000848401525b50505050565b60008151808452610a96816020860160208601610a4e565b601f01601f19169290920160200192915050565b83815282602082015260606040820152610ad06060820183516001600160a01b03169052565b60006020830151610aec60808401826001600160a01b03169052565b5060408301516001600160a01b03811660a084015250606083015160c0830152608083015160e083015260a0830151610100818185015260c08501519150610120828186015260e08601519250610140610b50818701856001600160a01b03169052565b91860151925061016091610b6686840185610a2c565b90860151925061018090610b7c86830185610a2c565b86015192506101a0610b9086820185610a2c565b9186015192506101c091610bae868401856001600160a01b03169052565b9086015192506101e090610bc486830185610a2c565b808701519350506102e06102008181880152610be4610340880186610a7e565b9450838801519350605f196102208189880301818a0152610c058787610a7e565b9650848a015195506102409450610c26858a01876001600160a01b03169052565b828a0151955061026092508189880301838a0152610c448787610a7e565b9650808a015195505050610280610c65818901866001600160a01b03169052565b928801516102a088810191909152908801516102c08089019190915292880151918701919091528601516103008601529094015161032090930192909252509392505050565b600080600060608486031215610cc057600080fd5b8335610ccb8161098c565b92506020840135610cdb8161098c565b91506040840135610ceb8161098c565b809150509250925092565b63fb16a59560e01b81528351600090610d16816010850160208901610a4e565b808301905060006010820152600060308201528451610d3c81603c840160208901610a4e565b8451910190610d5281603c840160208801610a4e565b6000603c9290910191820181905260c0605c830152607c820152609c0195945050505050565b600060208284031215610d8a57600080fd5b8151610d958161098c565b9392505050565b600060208284031215610dae57600080fd5b81518015158114610d9557600080fd5b600060208284031215610dd057600080fd5b505191905056fe000000000000000000000000000000000000000000000000000000000000000000000000ffffffffffffffffffffffffffffffffffffffffffffffffffffffffffffffff00000000000000000000000000000000000000000000000000000000000000000000000000000000000000000000000000000000000000000000000000000000000000000000000000000000000000000000000000000000000000000000000000000000000000000000000000000000000000000000000000000000000000000000000000000000000000000000000000000000000000000000000000000000a2646970667358221220a785cc5cfd6b5e4f821c3df2daed683bcd384497a4f6734c672a193105fad88964736f6c634300080d0033",
  "devdoc": {
    "kind": "dev",
    "methods": {},
    "version": 1
  },
  "userdoc": {
    "kind": "user",
    "methods": {},
    "version": 1
  },
  "storageLayout": {
    "storage": [],
    "types": null
  }
}