{
  "address": "0xF032987Bd3E4397d5E0DeB9cC87187Bdd1fE55e9",
  "abi": [
    {
      "inputs": [
        {
          "internalType": "address",
          "name": "_WETH",
          "type": "address"
        },
        {
          "internalType": "address",
          "name": "_protocolFeeReceiver",
          "type": "address"
        }
      ],
      "stateMutability": "nonpayable",
      "type": "constructor"
    },
    {
      "anonymous": false,
      "inputs": [
        {
          "indexed": true,
          "internalType": "address",
          "name": "previousOwner",
          "type": "address"
        },
        {
          "indexed": true,
          "internalType": "address",
          "name": "newOwner",
          "type": "address"
        }
      ],
      "name": "OwnershipTransferred",
      "type": "event"
    },
    {
      "inputs": [],
      "name": "EIP712_DOMAIN_SEPARATOR",
      "outputs": [
        {
          "internalType": "bytes32",
          "name": "",
          "type": "bytes32"
        }
      ],
      "stateMutability": "view",
      "type": "function"
    },
    {
      "inputs": [],
      "name": "WETH",
      "outputs": [
        {
          "internalType": "address",
          "name": "",
          "type": "address"
        }
      ],
      "stateMutability": "view",
      "type": "function"
    },
    {
      "inputs": [
        {
          "internalType": "uint256[]",
          "name": "buyOrderNonces",
          "type": "uint256[]"
        }
      ],
      "name": "cancelBuyOrders",
      "outputs": [],
      "stateMutability": "nonpayable",
      "type": "function"
    },
    {
      "inputs": [
        {
          "internalType": "uint256[]",
          "name": "sellOrderNonces",
          "type": "uint256[]"
        }
      ],
      "name": "cancelSellOrders",
      "outputs": [],
      "stateMutability": "nonpayable",
      "type": "function"
    },
    {
      "inputs": [
        {
          "internalType": "uint256",
          "name": "_protocolFeeFraction",
          "type": "uint256"
        }
      ],
      "name": "changeProtocolFeeFraction",
      "outputs": [],
      "stateMutability": "nonpayable",
      "type": "function"
    },
    {
      "inputs": [
        {
          "internalType": "uint256",
          "name": "_protocolFeeFractionFromSelling",
          "type": "uint256"
        }
      ],
      "name": "changeProtocolFeeFractionFromSelling",
      "outputs": [],
      "stateMutability": "nonpayable",
      "type": "function"
    },
    {
      "inputs": [
        {
          "internalType": "address",
          "name": "_protocolFeeReceiver",
          "type": "address"
        }
      ],
      "name": "changeProtocolFeeReceiver",
      "outputs": [],
      "stateMutability": "nonpayable",
      "type": "function"
    },
    {
      "inputs": [
        {
          "internalType": "uint256",
          "name": "_minConsensusForSellingOverBuyPrice",
          "type": "uint256"
        }
      ],
      "name": "changeminConsensusForSellingOverBuyPrice",
      "outputs": [],
      "stateMutability": "nonpayable",
      "type": "function"
    },
    {
      "inputs": [
        {
          "internalType": "uint256",
          "name": "_minConsensusForSellingUnderOrEqualBuyPrice",
          "type": "uint256"
        }
      ],
      "name": "changeminConsensusForSellingUnderOrEqualBuyPrice",
      "outputs": [],
      "stateMutability": "nonpayable",
      "type": "function"
    },
    {
      "inputs": [
        {
          "internalType": "uint256",
          "name": "executionId",
          "type": "uint256"
        },
        {
          "internalType": "address",
          "name": "to",
          "type": "address"
        }
      ],
      "name": "claimNft",
      "outputs": [],
      "stateMutability": "nonpayable",
      "type": "function"
    },
    {
      "inputs": [
        {
          "internalType": "uint256[]",
          "name": "executionIds",
          "type": "uint256[]"
        },
        {
          "internalType": "address",
          "name": "to",
          "type": "address"
        }
      ],
      "name": "claimProceeds",
      "outputs": [],
      "stateMutability": "nonpayable",
      "type": "function"
    },
    {
      "inputs": [
        {
          "internalType": "uint256[]",
          "name": "executionIds",
          "type": "uint256[]"
        }
      ],
      "name": "claimProtocolFees",
      "outputs": [],
      "stateMutability": "nonpayable",
      "type": "function"
    },
    {
      "inputs": [
        {
          "components": [
            {
              "internalType": "address",
              "name": "signer",
              "type": "address"
            },
            {
              "internalType": "address",
              "name": "collection",
              "type": "address"
            },
            {
              "internalType": "uint256",
              "name": "executionId",
              "type": "uint256"
            },
            {
              "internalType": "uint256",
              "name": "contribution",
              "type": "uint256"
            },
            {
              "internalType": "uint256",
              "name": "buyPrice",
              "type": "uint256"
            },
            {
              "internalType": "uint256",
              "name": "buyPriceEndTime",
              "type": "uint256"
            },
            {
              "internalType": "uint256",
              "name": "buyNonce",
              "type": "uint256"
            },
            {
              "internalType": "uint256",
              "name": "sellPrice",
              "type": "uint256"
            },
            {
              "internalType": "uint256",
              "name": "sellPriceEndTime",
              "type": "uint256"
            },
            {
              "internalType": "uint256",
              "name": "sellNonce",
              "type": "uint256"
            },
            {
              "internalType": "uint8",
              "name": "v",
              "type": "uint8"
            },
            {
              "internalType": "bytes32",
              "name": "r",
              "type": "bytes32"
            },
            {
              "internalType": "bytes32",
              "name": "s",
              "type": "bytes32"
            }
          ],
          "internalType": "struct BuyOrderV1[]",
          "name": "buyOrders",
          "type": "tuple[]"
        },
        {
          "internalType": "uint256",
          "name": "executorPrice",
          "type": "uint256"
        },
        {
          "internalType": "uint256",
          "name": "tokenId",
          "type": "uint256"
        }
      ],
      "name": "executeOnPassiveBuyOrders",
      "outputs": [],
      "stateMutability": "nonpayable",
      "type": "function"
    },
    {
      "inputs": [
        {
          "components": [
            {
              "internalType": "address",
              "name": "signer",
              "type": "address"
            },
            {
              "internalType": "address",
              "name": "collection",
              "type": "address"
            },
            {
              "internalType": "uint256",
              "name": "executionId",
              "type": "uint256"
            },
            {
              "internalType": "uint256",
              "name": "contribution",
              "type": "uint256"
            },
            {
              "internalType": "uint256",
              "name": "buyPrice",
              "type": "uint256"
            },
            {
              "internalType": "uint256",
              "name": "buyPriceEndTime",
              "type": "uint256"
            },
            {
              "internalType": "uint256",
              "name": "buyNonce",
              "type": "uint256"
            },
            {
              "internalType": "uint256",
              "name": "sellPrice",
              "type": "uint256"
            },
            {
              "internalType": "uint256",
              "name": "sellPriceEndTime",
              "type": "uint256"
            },
            {
              "internalType": "uint256",
              "name": "sellNonce",
              "type": "uint256"
            },
            {
              "internalType": "uint8",
              "name": "v",
              "type": "uint8"
            },
            {
              "internalType": "bytes32",
              "name": "r",
              "type": "bytes32"
            },
            {
              "internalType": "bytes32",
              "name": "s",
              "type": "bytes32"
            }
          ],
          "internalType": "struct BuyOrderV1[]",
          "name": "orders",
          "type": "tuple[]"
        },
        {
          "internalType": "uint256",
          "name": "executorPrice",
          "type": "uint256"
        }
      ],
      "name": "executeOnPassiveSellOrders",
      "outputs": [],
      "stateMutability": "nonpayable",
      "type": "function"
    },
    {
      "inputs": [
        {
          "internalType": "uint256",
          "name": "",
          "type": "uint256"
        }
      ],
      "name": "executions",
      "outputs": [
        {
          "internalType": "address",
          "name": "collection",
          "type": "address"
        },
        {
          "internalType": "uint256",
          "name": "buyPrice",
          "type": "uint256"
        },
        {
          "internalType": "uint256",
          "name": "tokenId",
          "type": "uint256"
        },
        {
          "internalType": "bool",
          "name": "sold",
          "type": "bool"
        },
        {
          "internalType": "uint256",
          "name": "sellPrice",
          "type": "uint256"
        },
        {
          "internalType": "uint256",
          "name": "listingEndTime",
          "type": "uint256"
        },
        {
          "internalType": "uint256",
          "name": "sellProtocolFee",
          "type": "uint256"
        },
        {
          "internalType": "bytes32",
          "name": "openSeaOrderHash",
          "type": "bytes32"
        },
        {
          "internalType": "bytes32",
          "name": "looksRareOrderHash",
          "type": "bytes32"
        }
      ],
      "stateMutability": "view",
      "type": "function"
    },
    {
      "inputs": [
        {
          "internalType": "address",
          "name": "",
          "type": "address"
        },
        {
          "internalType": "uint256",
          "name": "",
          "type": "uint256"
        }
      ],
      "name": "isUsedBuyNonce",
      "outputs": [
        {
          "internalType": "bool",
          "name": "",
          "type": "bool"
        }
      ],
      "stateMutability": "view",
      "type": "function"
    },
    {
      "inputs": [
        {
          "internalType": "address",
          "name": "",
          "type": "address"
        },
        {
          "internalType": "uint256",
          "name": "",
          "type": "uint256"
        }
      ],
      "name": "isUsedSellNonce",
      "outputs": [
        {
          "internalType": "bool",
          "name": "",
          "type": "bool"
        }
      ],
      "stateMutability": "view",
      "type": "function"
    },
    {
      "inputs": [
        {
          "internalType": "bytes32",
          "name": "_hash",
          "type": "bytes32"
        },
        {
          "internalType": "bytes",
          "name": "_signature",
          "type": "bytes"
        }
      ],
      "name": "isValidSignature",
      "outputs": [
        {
          "internalType": "bytes4",
          "name": "",
          "type": "bytes4"
        }
      ],
      "stateMutability": "view",
      "type": "function"
    },
    {
      "inputs": [],
      "name": "minConsensusForSellingOverBuyPrice",
      "outputs": [
        {
          "internalType": "uint256",
          "name": "",
          "type": "uint256"
        }
      ],
      "stateMutability": "view",
      "type": "function"
    },
    {
      "inputs": [],
      "name": "minConsensusForSellingUnderOrEqualBuyPrice",
      "outputs": [
        {
          "internalType": "uint256",
          "name": "",
          "type": "uint256"
        }
      ],
      "stateMutability": "view",
      "type": "function"
    },
    {
      "inputs": [
        {
          "internalType": "address",
          "name": "",
          "type": "address"
        },
        {
          "internalType": "address",
          "name": "",
          "type": "address"
        },
        {
          "internalType": "uint256[]",
          "name": "",
          "type": "uint256[]"
        },
        {
          "internalType": "uint256[]",
          "name": "",
          "type": "uint256[]"
        },
        {
          "internalType": "bytes",
          "name": "",
          "type": "bytes"
        }
      ],
      "name": "onERC1155BatchReceived",
      "outputs": [
        {
          "internalType": "bytes4",
          "name": "",
          "type": "bytes4"
        }
      ],
      "stateMutability": "nonpayable",
      "type": "function"
    },
    {
      "inputs": [
        {
          "internalType": "address",
          "name": "",
          "type": "address"
        },
        {
          "internalType": "address",
          "name": "",
          "type": "address"
        },
        {
          "internalType": "uint256",
          "name": "",
          "type": "uint256"
        },
        {
          "internalType": "uint256",
          "name": "",
          "type": "uint256"
        },
        {
          "internalType": "bytes",
          "name": "",
          "type": "bytes"
        }
      ],
      "name": "onERC1155Received",
      "outputs": [
        {
          "internalType": "bytes4",
          "name": "",
          "type": "bytes4"
        }
      ],
      "stateMutability": "nonpayable",
      "type": "function"
    },
    {
      "inputs": [
        {
          "internalType": "address",
          "name": "",
          "type": "address"
        },
        {
          "internalType": "address",
          "name": "",
          "type": "address"
        },
        {
          "internalType": "uint256",
          "name": "",
          "type": "uint256"
        },
        {
          "internalType": "bytes",
          "name": "",
          "type": "bytes"
        }
      ],
      "name": "onERC721Received",
      "outputs": [
        {
          "internalType": "bytes4",
          "name": "",
          "type": "bytes4"
        }
      ],
      "stateMutability": "nonpayable",
      "type": "function"
    },
    {
      "inputs": [],
      "name": "owner",
      "outputs": [
        {
          "internalType": "address",
          "name": "",
          "type": "address"
        }
      ],
      "stateMutability": "view",
      "type": "function"
    },
    {
      "inputs": [],
      "name": "protocolFeeFraction",
      "outputs": [
        {
          "internalType": "uint256",
          "name": "",
          "type": "uint256"
        }
      ],
      "stateMutability": "view",
      "type": "function"
    },
    {
      "inputs": [],
      "name": "protocolFeeFractionFromSelling",
      "outputs": [
        {
          "internalType": "uint256",
          "name": "",
          "type": "uint256"
        }
      ],
      "stateMutability": "view",
      "type": "function"
    },
    {
      "inputs": [],
      "name": "protocolFeeReceiver",
      "outputs": [
        {
          "internalType": "address",
          "name": "",
          "type": "address"
        }
      ],
      "stateMutability": "view",
      "type": "function"
    },
    {
      "inputs": [
        {
          "internalType": "address",
          "name": "",
          "type": "address"
        },
        {
          "internalType": "uint256",
          "name": "",
          "type": "uint256"
        }
      ],
      "name": "realContributions",
      "outputs": [
        {
          "internalType": "uint256",
          "name": "",
          "type": "uint256"
        }
      ],
      "stateMutability": "view",
      "type": "function"
    },
    {
      "inputs": [],
      "name": "renounceOwnership",
      "outputs": [],
      "stateMutability": "nonpayable",
      "type": "function"
    },
    {
      "inputs": [
        {
          "internalType": "bytes4",
          "name": "interfaceId",
          "type": "bytes4"
        }
      ],
      "name": "supportsInterface",
      "outputs": [
        {
          "internalType": "bool",
          "name": "",
          "type": "bool"
        }
      ],
      "stateMutability": "view",
      "type": "function"
    },
    {
      "inputs": [
        {
          "internalType": "address",
          "name": "newOwner",
          "type": "address"
        }
      ],
      "name": "transferOwnership",
      "outputs": [],
      "stateMutability": "nonpayable",
      "type": "function"
    }
  ],
  "transactionHash": "0x92c035969dc63e8dfd8d3e1def06598cc01e16140da3382c234ae44286f81e43",
  "args": [
    "0x82af49447d8a07e3bd95bd0d56f35241523fbab1",
    "0xC103d1b071AFA925714eE55b2F4869300C4331C4"
  ],
  "numDeployments": 1,
  "solcInputHash": "961b5b9b4a0c1b9e8a265bc47f4c1afb",
  "bytecode": "0x60c0604052606460025560646003556113886004556127106005553480156200002757600080fd5b5060405162003005380380620030058339810160408190526200004a91620001ae565b620000553362000141565b600160068190556001600160a01b03928316608090815281546001600160a01b031916929093169190911790556040805180820182526003815262302e3160e81b60209182015281517f8b73c3c69bb8fe3d512ecc4cf759cc79239f7b179b0ffacaa9a75d522b39400f818301527fc34e769714204ec364edbdd9fbc375bf7fd2e3b10f22abaf631ea6006a288fa7818401527f8cd160c72d102a6747abd189ac21d4a1f802e3fcc1bb8fc78cc4d558df0c7c21606082015246938101939093523060a08085019190915282518085038201815260c090940190925282519201919091209052620001e6565b600080546001600160a01b038381166001600160a01b0319831681178455604051919092169283917f8be0079c531659141344cd1fd0a4f28419497f9722a3daafe3b4186f6b6457e09190a35050565b80516001600160a01b0381168114620001a957600080fd5b919050565b60008060408385031215620001c257600080fd5b620001cd8362000191565b9150620001dd6020840162000191565b90509250929050565b60805160a051612de4620002216000396000818161043601528181610bcc01526113580152600081816103ca01526118f20152612de46000f3fe608060405234801561001057600080fd5b50600436106101e55760003560e01c80638bd150121161010f578063d02d7884116100a2578063f23a6e6111610071578063f23a6e6114610499578063f2fde38b146104b8578063f6f67125146104cb578063f76c9229146104de57600080fd5b8063d02d78841461041e578063dab400f314610431578063e711bf1b14610458578063e80453841461046b57600080fd5b8063ac8d590b116100de578063ac8d590b146103b2578063ad5c4648146103c5578063bc197c81146103ec578063bc7517241461040b57600080fd5b80638bd15012146103725780638da5cb5b1461037b5780639f9abd351461038c578063a9da9eac1461039f57600080fd5b806339a51be5116101875780635a2aa9d7116101565780635a2aa9d71461033b5780636c1438ca1461034e5780636dd7a34e14610357578063715018a61461036a57600080fd5b806339a51be5146102c65780633a0298eb146102f15780634bbe7882146102fa5780634c8a65761461030d57600080fd5b80631626ba7e116101c35780631626ba7e1461025e5780631a7eeff2146102715780631fce7d3714610284578063323d01e51461029b57600080fd5b806301ffc9a7146101ea5780630570490d14610212578063150b7a0214610227575b600080fd5b6101fd6101f83660046122b8565b610593565b60405190151581526020015b60405180910390f35b610225610220366004612319565b6105ca565b005b61024561023536600461245d565b630a85bd0160e11b949350505050565b6040516001600160e01b03199091168152602001610209565b61024561026c3660046124c8565b610663565b61022561027f366004612543565b610753565b61028d60045481565b604051908152602001610209565b61028d6102a9366004612599565b600960209081526000928352604080842090915290825290205481565b6001546102d9906001600160a01b031681565b6040516001600160a01b039091168152602001610209565b61028d60025481565b6102256103083660046125c5565b610820565b6101fd61031b366004612599565b600860209081526000928352604080842090915290825290205460ff1681565b610225610349366004612319565b61086c565b61028d60035481565b6102256103653660046125e2565b6108f7565b610225610926565b61028d60055481565b6000546001600160a01b03166102d9565b61022561039a366004612640565b61095c565b6102256103ad3660046125e2565b610c71565b6102256103c036600461268b565b610ca0565b6102d97f000000000000000000000000000000000000000000000000000000000000000081565b6102456103fa36600461272f565b63bc197c8160e01b95945050505050565b6102256104193660046125e2565b610e61565b61022561042c3660046125e2565b610e90565b61028d7f000000000000000000000000000000000000000000000000000000000000000081565b610225610466366004612319565b610ebf565b6101fd610479366004612599565b600760209081526000928352604080842090915290825290205460ff1681565b6102456104a73660046127dc565b63f23a6e6160e01b95945050505050565b6102256104c63660046125c5565b610f4a565b6102256104d9366004612844565b610fe5565b6105456104ec3660046125e2565b600a602052600090815260409020805460018201546002830154600384015460048501546005860154600687015460078801546008909801546001600160a01b03909716979596949560ff909416949293919290919089565b604080516001600160a01b03909a168a5260208a0198909852968801959095529215156060870152608086019190915260a085015260c084015260e083015261010082015261012001610209565b60006001600160e01b03198216630271189760e51b14806105c457506301ffc9a760e01b6001600160e01b03198316145b92915050565b6105d48282611717565b6000805b828110156106455760008484838181106105f4576105f4612894565b9050602002013590506000600a6000838152602001908152602001600020905080600601548461062491906128c0565b9350600081600601819055505050808061063d906128d8565b9150506105d8565b5060015461065e9030906001600160a01b0316836118ed565b505050565b60008381036106ae5760405162461bcd60e51b8152602060048201526012602482015271048617368206d757374206e6f7420626520360741b60448201526064015b60405180910390fd5b60006106bd60208285876128f1565b6106c69161291b565b905060006106d86040602086886128f1565b6106e19161291b565b90508015801561070157506000828152600a602052604090206007015486145b80610727575080600114801561072757506000828152600a602052604090206008015486145b1561073e5750630b135d3f60e11b915061074c9050565b506001600160e01b03199150505b9392505050565b61075d8383611717565b6000805b8381101561080e57600085858381811061077d5761077d612894565b602090810292909201356000818152600a845260408082203383526009865281832084845290955281205460048501546001860154939650909350916107c38385612939565b6107cd9190612958565b33600090815260096020908152604080832089845290915281205590506107f481886128c0565b965050505050508080610806906128d8565b915050610761565b5061081a3083836118ed565b50505050565b6000546001600160a01b0316331461084a5760405162461bcd60e51b81526004016106a59061297a565b600180546001600160a01b0319166001600160a01b0392909216919091179055565b806108895760405162461bcd60e51b81526004016106a5906129af565b60005b8181101561065e573360009081526008602052604081206001918585858181106108b8576108b8612894565b90506020020135815260200190815260200160002060006101000a81548160ff02191690831515021790555080806108ef906128d8565b91505061088c565b6000546001600160a01b031633146109215760405162461bcd60e51b81526004016106a59061297a565b600355565b6000546001600160a01b031633146109505760405162461bcd60e51b81526004016106a59061297a565b61095a6000611919565b565b60026006540361097e5760405162461bcd60e51b81526004016106a5906129f6565b6002600655816109e25760405162461bcd60e51b815260206004820152602960248201527f4578656375746553656c6c3a204d7573742068617665206174206c656173742060448201526837b7329037b93232b960b91b60648201526084016106a5565b6000612710826003546109f59190612939565b6109ff9190612958565b90506000610a0d8284612a2d565b9050600085856000818110610a2457610a24612894565b6101a002919091016040908101356000818152600a60205291909120805491935091506001600160a01b0316610a9c5760405162461bcd60e51b815260206004820152601760248201527f457865637574696f6e20646f65736e277420657869737400000000000000000060448201526064016106a5565b600381015460ff1615610aea5760405162461bcd60e51b8152602060048201526016602482015275115e1958dd5d1a5bdb88185b1c9958591e481cdbdb1960521b60448201526064016106a5565b6004805460055460405163b95522d560e01b8152734A474aEeC191569aab95A8e5CCB397dbbE20e3739363b95522d593610b36936008936009938f938f938c938c938f93929101612b3a565b602060405180830381865af4158015610b53573d6000803e3d6000fd5b505050506040513d601f19601f82011682018060405250810190610b779190612b88565b50610b828787611969565b60038101805460ff19166001179055600480820184905560405163345a3d9f60e11b8152734A474aEeC191569aab95A8e5CCB397dbbE20e373916368b47b3e91610bf2918b918b917f00000000000000000000000000000000000000000000000000000000000000009101612ba1565b60006040518083038186803b158015610c0a57600080fd5b505af4158015610c1e573d6000803e3d6000fd5b50505050610c2d3330856118ed565b600154610c459033906001600160a01b0316866118ed565b80546002820154610c63916001600160a01b031690309033906119f6565b505060016006555050505050565b6000546001600160a01b03163314610c9b5760405162461bcd60e51b81526004016106a59061297a565b600555565b600260065403610cc25760405162461bcd60e51b81526004016106a5906129f6565b60026006556000828152600a6020526040902080546001600160a01b0316610d365760405162461bcd60e51b815260206004820152602160248201527f436c61696d4e66743a20457865637574696f6e20646f65736e277420657869736044820152601d60fa1b60648201526084016106a5565b600381015460ff1615610d8b5760405162461bcd60e51b815260206004820181905260248201527f436c61696d4e66743a20457865637574696f6e20616c726561647920736f6c6460448201526064016106a5565b6000838152600a60209081526040808320600301805460ff191660019081179091553384526009835281842087855290925290912054908201548114610e1d5760405162461bcd60e51b815260206004820152602160248201527f436c61696d4e66743a2077726f6e67207265616c20636f6e747269627574696f6044820152603760f91b60648201526084016106a5565b33600090815260096020908152604080832087845290915281205581546002830154610e56916001600160a01b031690309086906119f6565b505060016006555050565b6000546001600160a01b03163314610e8b5760405162461bcd60e51b81526004016106a59061297a565b600255565b6000546001600160a01b03163314610eba5760405162461bcd60e51b81526004016106a59061297a565b600455565b80610edc5760405162461bcd60e51b81526004016106a5906129af565b60005b8181101561065e57336000908152600760205260408120600191858585818110610f0b57610f0b612894565b90506020020135815260200190815260200160002060006101000a81548160ff0219169083151502179055508080610f42906128d8565b915050610edf565b6000546001600160a01b03163314610f745760405162461bcd60e51b81526004016106a59061297a565b6001600160a01b038116610fd95760405162461bcd60e51b815260206004820152602660248201527f4f776e61626c653a206e6577206f776e657220697320746865207a65726f206160448201526564647265737360d01b60648201526084016106a5565b610fe281611919565b50565b6002600654036110075760405162461bcd60e51b81526004016106a5906129f6565b6002600655826110675760405162461bcd60e51b815260206004820152602560248201527f457865637574653a204d7573742068617665206174206c65617374206f6e652060448201526437b93232b960d91b60648201526084016106a5565b60006127108360025461107a9190612939565b6110849190612958565b9050600061109282856128c0565b90506000868660008181106110a9576110a9612894565b90506101a0020160200160208101906110c291906125c5565b90506000878760008181106110d9576110d9612894565b60406101a0909102929092018201356000818152600a6020529290922054919250506001600160a01b0316156111515760405162461bcd60e51b815260206004820152601c60248201527f457865637574653a20496420616c72656164792065786563757465640000000060448201526064016106a5565b60408051610120810182526001600160a01b03848116825260208083018781528385018a81526000606086018181526080870182815260a0880183815260c0890184815260e08a018581526101008b018681528d8752600a9099529a852099518a546001600160a01b031916991698909817895594516001890155925160028801555160038701805460ff191691151591909117905590516004860155905160058501559151600684015592516007830155915160089091015580805b8981101561163b57368b8b8381811061122957611229612894565b6101a00291909101915060079050600061124660208401846125c5565b6001600160a01b031681526020808201929092526040908101600090812060c0850135825290925290205460ff16156112c15760405162461bcd60e51b815260206004820152601760248201527f4f72646572206e6f6e636520697320756e757361626c6500000000000000000060448201526064016106a5565b6001600760006112d460208501856125c5565b6001600160a01b031681526020808201929092526040908101600090812060c086013582529092528120805460ff19169215159290921790915561132561132036849003840184612bc5565b611b2c565b905061137c8161133860208501856125c5565b61134a61016086016101408701612c81565b8561016001358661018001357f0000000000000000000000000000000000000000000000000000000000000000611c0d565b6113bd5760405162461bcd60e51b815260206004820152601260248201527114da59db985d1d5c994e88125b9d985b1a5960721b60448201526064016106a5565b428260a0013510156114015760405162461bcd60e51b815260206004820152600d60248201526c13dc99195c88195e1c1a5c9959609a1b60448201526064016106a5565b61141d8861141436859003850185612bc5565b60800151101590565b6114695760405162461bcd60e51b815260206004820152601860248201527f4f726465722063616e277420616363657074207072696365000000000000000060448201526064016106a5565b6001600160a01b03871661148360408401602085016125c5565b6001600160a01b0316146114d95760405162461bcd60e51b815260206004820152601960248201527f4f7264657220636f6c6c656374696f6e206d69736d617463680000000000000060448201526064016106a5565b8582604001351461152c5760405162461bcd60e51b815260206004820152601a60248201527f4f7264657220657865637574696f6e4964206d69736d6174636800000000000060448201526064016106a5565b60608201356000611546611540888d612a2d565b83611ce4565b905061155281886128c0565b965061157661156460208601866125c5565b6001546001600160a01b0316836118ed565b6000611596878f6115879190612a2d565b6115918486612a2d565b611ce4565b90506115a281886128c0565b96506115bb6115b460208701876125c5565b33836118ed565b60006115c782846128c0565b905080600960006115db60208a018a6125c5565b6001600160a01b03166001600160a01b0316815260200190815260200160002060008c8152602001908152602001600020600082825461161b91906128c0565b925050819055505050505050508080611633906128d8565b91505061120e565b5085821461169a5760405162461bcd60e51b815260206004820152602660248201527f50726f746f636f6c20666565206e6f74207472616e7366657272656420636f72604482015265726563746c7960d01b60648201526084016106a5565b8781146116fa5760405162461bcd60e51b815260206004820152602860248201527f4578656375746f72207072696365206e6f74207472616e7366657272656420636044820152676f72726563746c7960c01b60648201526084016106a5565b6117068433308a6119f6565b505060016006555050505050505050565b60005b8181101561065e57600083838381811061173657611736612894565b602090810292909201356000818152600a90935260409092208054929350916001600160a01b031690506117b65760405162461bcd60e51b815260206004820152602160248201527f507265436c61696d3a20457865637574696f6e20646f65736e277420657869736044820152601d60fa1b60648201526084016106a5565b805460028201546040516331a9108f60e11b8152600481019190915260009130916001600160a01b0390911690636352211e90602401602060405180830381865afa158015611809573d6000803e3d6000fd5b505050506040513d601f19601f8201168201806040525081019061182d9190612c9c565b60038401546001600160a01b039190911691909114915060ff1680611850575080155b6118bb5760405162461bcd60e51b815260206004820152603660248201527f507265436c61696d3a204e465420686173206e6f74206265656e20736f6c64206044820152753737b91030b9b5903430b9903132b2b7103a30b5b2b760511b60648201526084016106a5565b600382015460ff166118d75760038201805460ff191660011790555b50505080806118e5906128d8565b91505061171a565b61065e7f0000000000000000000000000000000000000000000000000000000000000000848484611cfa565b600080546001600160a01b038381166001600160a01b0319831681178455604051919092169283917f8be0079c531659141344cd1fd0a4f28419497f9722a3daafe3b4186f6b6457e09190a35050565b60005b8181101561065e573683838381811061198757611987612894565b6101a00291909101915060019050600860006119a660208501856125c5565b6001600160a01b03168152602080820192909252604090810160009081206101209590950135815293909152909120805460ff1916911515919091179055806119ee816128d8565b91505061196c565b6040516301ffc9a760e01b81526380ac58cd60e01b60048201526001600160a01b038516906301ffc9a790602401602060405180830381865afa158015611a41573d6000803e3d6000fd5b505050506040513d601f19601f82011682018060405250810190611a659190612cb9565b15611ad957604051632142170760e11b81526001600160a01b0384811660048301528381166024830152604482018390528516906342842e0e90606401600060405180830381600087803b158015611abc57600080fd5b505af1158015611ad0573d6000803e3d6000fd5b5050505061081a565b60405162461bcd60e51b815260206004820152602260248201527f436f6c6c656374696f6e20646f6573206e6f7420737570706f72742045524337604482015261323160f01b60648201526084016106a5565b80516020808301516040808501516060860151608087015160a088015160c089015160e08a01516101008b01516101208c0151975160009b611bf09b7f72e794cb40f2ebfd460c7e8f21afeacac61a902963a831638aeff99e28bc690f9b919a919998979695949392019a8b526001600160a01b03998a1660208c01529790981660408a01526060890195909552608088019390935260a087019190915260c086015260e08501526101008401526101208301919091526101408201526101600190565b604051602081830303815290604052805190602001209050919050565b60006001600160a01b038616611c655760405162461bcd60e51b815260206004820152601d60248201527f5369676e61747572655574696c3a20496e76616c6964207369676e657200000060448201526064016106a5565b6040805160208082018790528183018690526001600160f81b031960f889901b1660608301528251808303604101815260618301845261190160f01b60818401526083830186905260a38084018c90528451808503909101815260c39093019093528151910120611cd7888284611d15565b9998505050505050505050565b6000818310611cf3578161074c565b5090919050565b801561081a5761081a6001600160a01b038516848484611e61565b6000806000611d248585611ebb565b90925090506000816004811115611d3d57611d3d612cdb565b148015611d5b5750856001600160a01b0316826001600160a01b0316145b15611d6b5760019250505061074c565b600080876001600160a01b0316631626ba7e60e01b8888604051602401611d93929190612d49565b60408051601f198184030181529181526020820180516001600160e01b03166001600160e01b0319909416939093179092529051611dd19190612d62565b600060405180830381855afa9150503d8060008114611e0c576040519150601f19603f3d011682016040523d82523d6000602084013e611e11565b606091505b5091509150818015611e24575080516020145b8015611e5557508051630b135d3f60e11b90611e499083016020908101908401612d7e565b6001600160e01b031916145b98975050505050505050565b604080516001600160a01b0385811660248301528416604482015260648082018490528251808303909101815260849091019091526020810180516001600160e01b03166323b872dd60e01b17905261081a908590611f29565b6000808251604103611ef15760208301516040840151606085015160001a611ee587828585611ffb565b94509450505050611f22565b8251604003611f1a5760208301516040840151611f0f8683836120e8565b935093505050611f22565b506000905060025b9250929050565b6000611f7e826040518060400160405280602081526020017f5361666545524332303a206c6f772d6c6576656c2063616c6c206661696c6564815250856001600160a01b03166121219092919063ffffffff16565b80519091501561065e5780806020019051810190611f9c9190612cb9565b61065e5760405162461bcd60e51b815260206004820152602a60248201527f5361666545524332303a204552433230206f7065726174696f6e20646964206e6044820152691bdd081cdd58d8d9595960b21b60648201526084016106a5565b6000807f7fffffffffffffffffffffffffffffff5d576e7357a4501ddfe92f46681b20a083111561203257506000905060036120df565b8460ff16601b1415801561204a57508460ff16601c14155b1561205b57506000905060046120df565b6040805160008082526020820180845289905260ff881692820192909252606081018690526080810185905260019060a0016020604051602081039080840390855afa1580156120af573d6000803e3d6000fd5b5050604051601f1901519150506001600160a01b0381166120d8576000600192509250506120df565b9150600090505b94509492505050565b6000806001600160ff1b0383168161210560ff86901c601b6128c0565b905061211387828885611ffb565b935093505050935093915050565b60606121308484600085612138565b949350505050565b6060824710156121995760405162461bcd60e51b815260206004820152602660248201527f416464726573733a20696e73756666696369656e742062616c616e636520666f6044820152651c8818d85b1b60d21b60648201526084016106a5565b6001600160a01b0385163b6121f05760405162461bcd60e51b815260206004820152601d60248201527f416464726573733a2063616c6c20746f206e6f6e2d636f6e747261637400000060448201526064016106a5565b600080866001600160a01b0316858760405161220c9190612d62565b60006040518083038185875af1925050503d8060008114612249576040519150601f19603f3d011682016040523d82523d6000602084013e61224e565b606091505b509150915061225e828286612269565b979650505050505050565b6060831561227857508161074c565b8251156122885782518084602001fd5b8160405162461bcd60e51b81526004016106a59190612d9b565b6001600160e01b031981168114610fe257600080fd5b6000602082840312156122ca57600080fd5b813561074c816122a2565b60008083601f8401126122e757600080fd5b5081356001600160401b038111156122fe57600080fd5b6020830191508360208260051b8501011115611f2257600080fd5b6000806020838503121561232c57600080fd5b82356001600160401b0381111561234257600080fd5b61234e858286016122d5565b90969095509350505050565b6001600160a01b0381168114610fe257600080fd5b803561237a8161235a565b919050565b634e487b7160e01b600052604160045260246000fd5b6040516101a081016001600160401b03811182821017156123b8576123b861237f565b60405290565b604051601f8201601f191681016001600160401b03811182821017156123e6576123e661237f565b604052919050565b600082601f8301126123ff57600080fd5b81356001600160401b038111156124185761241861237f565b61242b601f8201601f19166020016123be565b81815284602083860101111561244057600080fd5b816020850160208301376000918101602001919091529392505050565b6000806000806080858703121561247357600080fd5b843561247e8161235a565b9350602085013561248e8161235a565b92506040850135915060608501356001600160401b038111156124b057600080fd5b6124bc878288016123ee565b91505092959194509250565b6000806000604084860312156124dd57600080fd5b8335925060208401356001600160401b03808211156124fb57600080fd5b818601915086601f83011261250f57600080fd5b81358181111561251e57600080fd5b87602082850101111561253057600080fd5b6020830194508093505050509250925092565b60008060006040848603121561255857600080fd5b83356001600160401b0381111561256e57600080fd5b61257a868287016122d5565b909450925050602084013561258e8161235a565b809150509250925092565b600080604083850312156125ac57600080fd5b82356125b78161235a565b946020939093013593505050565b6000602082840312156125d757600080fd5b813561074c8161235a565b6000602082840312156125f457600080fd5b5035919050565b60008083601f84011261260d57600080fd5b5081356001600160401b0381111561262457600080fd5b6020830191508360206101a083028501011115611f2257600080fd5b60008060006040848603121561265557600080fd5b83356001600160401b0381111561266b57600080fd5b612677868287016125fb565b909790965060209590950135949350505050565b6000806040838503121561269e57600080fd5b8235915060208301356126b08161235a565b809150509250929050565b600082601f8301126126cc57600080fd5b813560206001600160401b038211156126e7576126e761237f565b8160051b6126f68282016123be565b928352848101820192828101908785111561271057600080fd5b83870192505b8483101561225e57823582529183019190830190612716565b600080600080600060a0868803121561274757600080fd5b85356127528161235a565b945060208601356127628161235a565b935060408601356001600160401b038082111561277e57600080fd5b61278a89838a016126bb565b945060608801359150808211156127a057600080fd5b6127ac89838a016126bb565b935060808801359150808211156127c257600080fd5b506127cf888289016123ee565b9150509295509295909350565b600080600080600060a086880312156127f457600080fd5b85356127ff8161235a565b9450602086013561280f8161235a565b9350604086013592506060860135915060808601356001600160401b0381111561283857600080fd5b6127cf888289016123ee565b6000806000806060858703121561285a57600080fd5b84356001600160401b0381111561287057600080fd5b61287c878288016125fb565b90989097506020870135966040013595509350505050565b634e487b7160e01b600052603260045260246000fd5b634e487b7160e01b600052601160045260246000fd5b600082198211156128d3576128d36128aa565b500190565b6000600182016128ea576128ea6128aa565b5060010190565b6000808585111561290157600080fd5b8386111561290e57600080fd5b5050820193919092039150565b803560208310156105c457600019602084900360031b1b1692915050565b6000816000190483118215151615612953576129536128aa565b500290565b60008261297557634e487b7160e01b600052601260045260246000fd5b500490565b6020808252818101527f4f776e61626c653a2063616c6c6572206973206e6f7420746865206f776e6572604082015260600190565b60208082526027908201527f43616e63656c3a204d7573742070726f76696465206174206c65617374206f6e60408201526665206e6f6e636560c81b606082015260800190565b6020808252601f908201527f5265656e7472616e637947756172643a207265656e7472616e742063616c6c00604082015260600190565b600082821015612a3f57612a3f6128aa565b500390565b803560ff8116811461237a57600080fd5b8183526000602080850194508260005b85811015612b2f57612a8787612a7a8461236f565b6001600160a01b03169052565b612a9283830161236f565b6001600160a01b03168388015260408281013590880152606080830135908801526080808301359088015260a0808301359088015260c0808301359088015260e0808301359088015261010080830135908801526101208083013590880152610140612aff818401612a44565b60ff1690880152610160828101359088015261018080830135908801526101a09687019690910190600101612a65565b509495945050505050565b60006101008b83528a6020840152806040840152612b5b8184018a8c612a55565b60608401989098525050608081019490945260a084019290925260c083015260e090910152949350505050565b600060208284031215612b9a57600080fd5b5051919050565b604081526000612bb5604083018587612a55565b9050826020830152949350505050565b60006101a08284031215612bd857600080fd5b612be0612395565b612be98361236f565b8152612bf76020840161236f565b602082015260408301356040820152606083013560608201526080830135608082015260a083013560a082015260c083013560c082015260e083013560e0820152610100808401358183015250610120808401358183015250610140612c5e818501612a44565b908201526101608381013590820152610180928301359281019290925250919050565b600060208284031215612c9357600080fd5b61074c82612a44565b600060208284031215612cae57600080fd5b815161074c8161235a565b600060208284031215612ccb57600080fd5b8151801515811461074c57600080fd5b634e487b7160e01b600052602160045260246000fd5b60005b83811015612d0c578181015183820152602001612cf4565b8381111561081a5750506000910152565b60008151808452612d35816020860160208601612cf1565b601f01601f19169290920160200192915050565b8281526040602082015260006121306040830184612d1d565b60008251612d74818460208701612cf1565b9190910192915050565b600060208284031215612d9057600080fd5b815161074c816122a2565b60208152600061074c6020830184612d1d56fea26469706673582212205a1055be0067460fb1ab0a144a8c4c9f205ea02cd70c981a69d0428ed0dfea8364736f6c634300080d0033",
  "deployedBytecode": "0x608060405234801561001057600080fd5b50600436106101e55760003560e01c80638bd150121161010f578063d02d7884116100a2578063f23a6e6111610071578063f23a6e6114610499578063f2fde38b146104b8578063f6f67125146104cb578063f76c9229146104de57600080fd5b8063d02d78841461041e578063dab400f314610431578063e711bf1b14610458578063e80453841461046b57600080fd5b8063ac8d590b116100de578063ac8d590b146103b2578063ad5c4648146103c5578063bc197c81146103ec578063bc7517241461040b57600080fd5b80638bd15012146103725780638da5cb5b1461037b5780639f9abd351461038c578063a9da9eac1461039f57600080fd5b806339a51be5116101875780635a2aa9d7116101565780635a2aa9d71461033b5780636c1438ca1461034e5780636dd7a34e14610357578063715018a61461036a57600080fd5b806339a51be5146102c65780633a0298eb146102f15780634bbe7882146102fa5780634c8a65761461030d57600080fd5b80631626ba7e116101c35780631626ba7e1461025e5780631a7eeff2146102715780631fce7d3714610284578063323d01e51461029b57600080fd5b806301ffc9a7146101ea5780630570490d14610212578063150b7a0214610227575b600080fd5b6101fd6101f83660046122b8565b610593565b60405190151581526020015b60405180910390f35b610225610220366004612319565b6105ca565b005b61024561023536600461245d565b630a85bd0160e11b949350505050565b6040516001600160e01b03199091168152602001610209565b61024561026c3660046124c8565b610663565b61022561027f366004612543565b610753565b61028d60045481565b604051908152602001610209565b61028d6102a9366004612599565b600960209081526000928352604080842090915290825290205481565b6001546102d9906001600160a01b031681565b6040516001600160a01b039091168152602001610209565b61028d60025481565b6102256103083660046125c5565b610820565b6101fd61031b366004612599565b600860209081526000928352604080842090915290825290205460ff1681565b610225610349366004612319565b61086c565b61028d60035481565b6102256103653660046125e2565b6108f7565b610225610926565b61028d60055481565b6000546001600160a01b03166102d9565b61022561039a366004612640565b61095c565b6102256103ad3660046125e2565b610c71565b6102256103c036600461268b565b610ca0565b6102d97f000000000000000000000000000000000000000000000000000000000000000081565b6102456103fa36600461272f565b63bc197c8160e01b95945050505050565b6102256104193660046125e2565b610e61565b61022561042c3660046125e2565b610e90565b61028d7f000000000000000000000000000000000000000000000000000000000000000081565b610225610466366004612319565b610ebf565b6101fd610479366004612599565b600760209081526000928352604080842090915290825290205460ff1681565b6102456104a73660046127dc565b63f23a6e6160e01b95945050505050565b6102256104c63660046125c5565b610f4a565b6102256104d9366004612844565b610fe5565b6105456104ec3660046125e2565b600a602052600090815260409020805460018201546002830154600384015460048501546005860154600687015460078801546008909801546001600160a01b03909716979596949560ff909416949293919290919089565b604080516001600160a01b03909a168a5260208a0198909852968801959095529215156060870152608086019190915260a085015260c084015260e083015261010082015261012001610209565b60006001600160e01b03198216630271189760e51b14806105c457506301ffc9a760e01b6001600160e01b03198316145b92915050565b6105d48282611717565b6000805b828110156106455760008484838181106105f4576105f4612894565b9050602002013590506000600a6000838152602001908152602001600020905080600601548461062491906128c0565b9350600081600601819055505050808061063d906128d8565b9150506105d8565b5060015461065e9030906001600160a01b0316836118ed565b505050565b60008381036106ae5760405162461bcd60e51b8152602060048201526012602482015271048617368206d757374206e6f7420626520360741b60448201526064015b60405180910390fd5b60006106bd60208285876128f1565b6106c69161291b565b905060006106d86040602086886128f1565b6106e19161291b565b90508015801561070157506000828152600a602052604090206007015486145b80610727575080600114801561072757506000828152600a602052604090206008015486145b1561073e5750630b135d3f60e11b915061074c9050565b506001600160e01b03199150505b9392505050565b61075d8383611717565b6000805b8381101561080e57600085858381811061077d5761077d612894565b602090810292909201356000818152600a845260408082203383526009865281832084845290955281205460048501546001860154939650909350916107c38385612939565b6107cd9190612958565b33600090815260096020908152604080832089845290915281205590506107f481886128c0565b965050505050508080610806906128d8565b915050610761565b5061081a3083836118ed565b50505050565b6000546001600160a01b0316331461084a5760405162461bcd60e51b81526004016106a59061297a565b600180546001600160a01b0319166001600160a01b0392909216919091179055565b806108895760405162461bcd60e51b81526004016106a5906129af565b60005b8181101561065e573360009081526008602052604081206001918585858181106108b8576108b8612894565b90506020020135815260200190815260200160002060006101000a81548160ff02191690831515021790555080806108ef906128d8565b91505061088c565b6000546001600160a01b031633146109215760405162461bcd60e51b81526004016106a59061297a565b600355565b6000546001600160a01b031633146109505760405162461bcd60e51b81526004016106a59061297a565b61095a6000611919565b565b60026006540361097e5760405162461bcd60e51b81526004016106a5906129f6565b6002600655816109e25760405162461bcd60e51b815260206004820152602960248201527f4578656375746553656c6c3a204d7573742068617665206174206c656173742060448201526837b7329037b93232b960b91b60648201526084016106a5565b6000612710826003546109f59190612939565b6109ff9190612958565b90506000610a0d8284612a2d565b9050600085856000818110610a2457610a24612894565b6101a002919091016040908101356000818152600a60205291909120805491935091506001600160a01b0316610a9c5760405162461bcd60e51b815260206004820152601760248201527f457865637574696f6e20646f65736e277420657869737400000000000000000060448201526064016106a5565b600381015460ff1615610aea5760405162461bcd60e51b8152602060048201526016602482015275115e1958dd5d1a5bdb88185b1c9958591e481cdbdb1960521b60448201526064016106a5565b6004805460055460405163b95522d560e01b815273__$212d7bd68238178e559b7980cfdcd62a2c$__9363b95522d593610b36936008936009938f938f938c938c938f93929101612b3a565b602060405180830381865af4158015610b53573d6000803e3d6000fd5b505050506040513d601f19601f82011682018060405250810190610b779190612b88565b50610b828787611969565b60038101805460ff19166001179055600480820184905560405163345a3d9f60e11b815273__$212d7bd68238178e559b7980cfdcd62a2c$__916368b47b3e91610bf2918b918b917f00000000000000000000000000000000000000000000000000000000000000009101612ba1565b60006040518083038186803b158015610c0a57600080fd5b505af4158015610c1e573d6000803e3d6000fd5b50505050610c2d3330856118ed565b600154610c459033906001600160a01b0316866118ed565b80546002820154610c63916001600160a01b031690309033906119f6565b505060016006555050505050565b6000546001600160a01b03163314610c9b5760405162461bcd60e51b81526004016106a59061297a565b600555565b600260065403610cc25760405162461bcd60e51b81526004016106a5906129f6565b60026006556000828152600a6020526040902080546001600160a01b0316610d365760405162461bcd60e51b815260206004820152602160248201527f436c61696d4e66743a20457865637574696f6e20646f65736e277420657869736044820152601d60fa1b60648201526084016106a5565b600381015460ff1615610d8b5760405162461bcd60e51b815260206004820181905260248201527f436c61696d4e66743a20457865637574696f6e20616c726561647920736f6c6460448201526064016106a5565b6000838152600a60209081526040808320600301805460ff191660019081179091553384526009835281842087855290925290912054908201548114610e1d5760405162461bcd60e51b815260206004820152602160248201527f436c61696d4e66743a2077726f6e67207265616c20636f6e747269627574696f6044820152603760f91b60648201526084016106a5565b33600090815260096020908152604080832087845290915281205581546002830154610e56916001600160a01b031690309086906119f6565b505060016006555050565b6000546001600160a01b03163314610e8b5760405162461bcd60e51b81526004016106a59061297a565b600255565b6000546001600160a01b03163314610eba5760405162461bcd60e51b81526004016106a59061297a565b600455565b80610edc5760405162461bcd60e51b81526004016106a5906129af565b60005b8181101561065e57336000908152600760205260408120600191858585818110610f0b57610f0b612894565b90506020020135815260200190815260200160002060006101000a81548160ff0219169083151502179055508080610f42906128d8565b915050610edf565b6000546001600160a01b03163314610f745760405162461bcd60e51b81526004016106a59061297a565b6001600160a01b038116610fd95760405162461bcd60e51b815260206004820152602660248201527f4f776e61626c653a206e6577206f776e657220697320746865207a65726f206160448201526564647265737360d01b60648201526084016106a5565b610fe281611919565b50565b6002600654036110075760405162461bcd60e51b81526004016106a5906129f6565b6002600655826110675760405162461bcd60e51b815260206004820152602560248201527f457865637574653a204d7573742068617665206174206c65617374206f6e652060448201526437b93232b960d91b60648201526084016106a5565b60006127108360025461107a9190612939565b6110849190612958565b9050600061109282856128c0565b90506000868660008181106110a9576110a9612894565b90506101a0020160200160208101906110c291906125c5565b90506000878760008181106110d9576110d9612894565b60406101a0909102929092018201356000818152600a6020529290922054919250506001600160a01b0316156111515760405162461bcd60e51b815260206004820152601c60248201527f457865637574653a20496420616c72656164792065786563757465640000000060448201526064016106a5565b60408051610120810182526001600160a01b03848116825260208083018781528385018a81526000606086018181526080870182815260a0880183815260c0890184815260e08a018581526101008b018681528d8752600a9099529a852099518a546001600160a01b031916991698909817895594516001890155925160028801555160038701805460ff191691151591909117905590516004860155905160058501559151600684015592516007830155915160089091015580805b8981101561163b57368b8b8381811061122957611229612894565b6101a00291909101915060079050600061124660208401846125c5565b6001600160a01b031681526020808201929092526040908101600090812060c0850135825290925290205460ff16156112c15760405162461bcd60e51b815260206004820152601760248201527f4f72646572206e6f6e636520697320756e757361626c6500000000000000000060448201526064016106a5565b6001600760006112d460208501856125c5565b6001600160a01b031681526020808201929092526040908101600090812060c086013582529092528120805460ff19169215159290921790915561132561132036849003840184612bc5565b611b2c565b905061137c8161133860208501856125c5565b61134a61016086016101408701612c81565b8561016001358661018001357f0000000000000000000000000000000000000000000000000000000000000000611c0d565b6113bd5760405162461bcd60e51b815260206004820152601260248201527114da59db985d1d5c994e88125b9d985b1a5960721b60448201526064016106a5565b428260a0013510156114015760405162461bcd60e51b815260206004820152600d60248201526c13dc99195c88195e1c1a5c9959609a1b60448201526064016106a5565b61141d8861141436859003850185612bc5565b60800151101590565b6114695760405162461bcd60e51b815260206004820152601860248201527f4f726465722063616e277420616363657074207072696365000000000000000060448201526064016106a5565b6001600160a01b03871661148360408401602085016125c5565b6001600160a01b0316146114d95760405162461bcd60e51b815260206004820152601960248201527f4f7264657220636f6c6c656374696f6e206d69736d617463680000000000000060448201526064016106a5565b8582604001351461152c5760405162461bcd60e51b815260206004820152601a60248201527f4f7264657220657865637574696f6e4964206d69736d6174636800000000000060448201526064016106a5565b60608201356000611546611540888d612a2d565b83611ce4565b905061155281886128c0565b965061157661156460208601866125c5565b6001546001600160a01b0316836118ed565b6000611596878f6115879190612a2d565b6115918486612a2d565b611ce4565b90506115a281886128c0565b96506115bb6115b460208701876125c5565b33836118ed565b60006115c782846128c0565b905080600960006115db60208a018a6125c5565b6001600160a01b03166001600160a01b0316815260200190815260200160002060008c8152602001908152602001600020600082825461161b91906128c0565b925050819055505050505050508080611633906128d8565b91505061120e565b5085821461169a5760405162461bcd60e51b815260206004820152602660248201527f50726f746f636f6c20666565206e6f74207472616e7366657272656420636f72604482015265726563746c7960d01b60648201526084016106a5565b8781146116fa5760405162461bcd60e51b815260206004820152602860248201527f4578656375746f72207072696365206e6f74207472616e7366657272656420636044820152676f72726563746c7960c01b60648201526084016106a5565b6117068433308a6119f6565b505060016006555050505050505050565b60005b8181101561065e57600083838381811061173657611736612894565b602090810292909201356000818152600a90935260409092208054929350916001600160a01b031690506117b65760405162461bcd60e51b815260206004820152602160248201527f507265436c61696d3a20457865637574696f6e20646f65736e277420657869736044820152601d60fa1b60648201526084016106a5565b805460028201546040516331a9108f60e11b8152600481019190915260009130916001600160a01b0390911690636352211e90602401602060405180830381865afa158015611809573d6000803e3d6000fd5b505050506040513d601f19601f8201168201806040525081019061182d9190612c9c565b60038401546001600160a01b039190911691909114915060ff1680611850575080155b6118bb5760405162461bcd60e51b815260206004820152603660248201527f507265436c61696d3a204e465420686173206e6f74206265656e20736f6c64206044820152753737b91030b9b5903430b9903132b2b7103a30b5b2b760511b60648201526084016106a5565b600382015460ff166118d75760038201805460ff191660011790555b50505080806118e5906128d8565b91505061171a565b61065e7f0000000000000000000000000000000000000000000000000000000000000000848484611cfa565b600080546001600160a01b038381166001600160a01b0319831681178455604051919092169283917f8be0079c531659141344cd1fd0a4f28419497f9722a3daafe3b4186f6b6457e09190a35050565b60005b8181101561065e573683838381811061198757611987612894565b6101a00291909101915060019050600860006119a660208501856125c5565b6001600160a01b03168152602080820192909252604090810160009081206101209590950135815293909152909120805460ff1916911515919091179055806119ee816128d8565b91505061196c565b6040516301ffc9a760e01b81526380ac58cd60e01b60048201526001600160a01b038516906301ffc9a790602401602060405180830381865afa158015611a41573d6000803e3d6000fd5b505050506040513d601f19601f82011682018060405250810190611a659190612cb9565b15611ad957604051632142170760e11b81526001600160a01b0384811660048301528381166024830152604482018390528516906342842e0e90606401600060405180830381600087803b158015611abc57600080fd5b505af1158015611ad0573d6000803e3d6000fd5b5050505061081a565b60405162461bcd60e51b815260206004820152602260248201527f436f6c6c656374696f6e20646f6573206e6f7420737570706f72742045524337604482015261323160f01b60648201526084016106a5565b80516020808301516040808501516060860151608087015160a088015160c089015160e08a01516101008b01516101208c0151975160009b611bf09b7f72e794cb40f2ebfd460c7e8f21afeacac61a902963a831638aeff99e28bc690f9b919a919998979695949392019a8b526001600160a01b03998a1660208c01529790981660408a01526060890195909552608088019390935260a087019190915260c086015260e08501526101008401526101208301919091526101408201526101600190565b604051602081830303815290604052805190602001209050919050565b60006001600160a01b038616611c655760405162461bcd60e51b815260206004820152601d60248201527f5369676e61747572655574696c3a20496e76616c6964207369676e657200000060448201526064016106a5565b6040805160208082018790528183018690526001600160f81b031960f889901b1660608301528251808303604101815260618301845261190160f01b60818401526083830186905260a38084018c90528451808503909101815260c39093019093528151910120611cd7888284611d15565b9998505050505050505050565b6000818310611cf3578161074c565b5090919050565b801561081a5761081a6001600160a01b038516848484611e61565b6000806000611d248585611ebb565b90925090506000816004811115611d3d57611d3d612cdb565b148015611d5b5750856001600160a01b0316826001600160a01b0316145b15611d6b5760019250505061074c565b600080876001600160a01b0316631626ba7e60e01b8888604051602401611d93929190612d49565b60408051601f198184030181529181526020820180516001600160e01b03166001600160e01b0319909416939093179092529051611dd19190612d62565b600060405180830381855afa9150503d8060008114611e0c576040519150601f19603f3d011682016040523d82523d6000602084013e611e11565b606091505b5091509150818015611e24575080516020145b8015611e5557508051630b135d3f60e11b90611e499083016020908101908401612d7e565b6001600160e01b031916145b98975050505050505050565b604080516001600160a01b0385811660248301528416604482015260648082018490528251808303909101815260849091019091526020810180516001600160e01b03166323b872dd60e01b17905261081a908590611f29565b6000808251604103611ef15760208301516040840151606085015160001a611ee587828585611ffb565b94509450505050611f22565b8251604003611f1a5760208301516040840151611f0f8683836120e8565b935093505050611f22565b506000905060025b9250929050565b6000611f7e826040518060400160405280602081526020017f5361666545524332303a206c6f772d6c6576656c2063616c6c206661696c6564815250856001600160a01b03166121219092919063ffffffff16565b80519091501561065e5780806020019051810190611f9c9190612cb9565b61065e5760405162461bcd60e51b815260206004820152602a60248201527f5361666545524332303a204552433230206f7065726174696f6e20646964206e6044820152691bdd081cdd58d8d9595960b21b60648201526084016106a5565b6000807f7fffffffffffffffffffffffffffffff5d576e7357a4501ddfe92f46681b20a083111561203257506000905060036120df565b8460ff16601b1415801561204a57508460ff16601c14155b1561205b57506000905060046120df565b6040805160008082526020820180845289905260ff881692820192909252606081018690526080810185905260019060a0016020604051602081039080840390855afa1580156120af573d6000803e3d6000fd5b5050604051601f1901519150506001600160a01b0381166120d8576000600192509250506120df565b9150600090505b94509492505050565b6000806001600160ff1b0383168161210560ff86901c601b6128c0565b905061211387828885611ffb565b935093505050935093915050565b60606121308484600085612138565b949350505050565b6060824710156121995760405162461bcd60e51b815260206004820152602660248201527f416464726573733a20696e73756666696369656e742062616c616e636520666f6044820152651c8818d85b1b60d21b60648201526084016106a5565b6001600160a01b0385163b6121f05760405162461bcd60e51b815260206004820152601d60248201527f416464726573733a2063616c6c20746f206e6f6e2d636f6e747261637400000060448201526064016106a5565b600080866001600160a01b0316858760405161220c9190612d62565b60006040518083038185875af1925050503d8060008114612249576040519150601f19603f3d011682016040523d82523d6000602084013e61224e565b606091505b509150915061225e828286612269565b979650505050505050565b6060831561227857508161074c565b8251156122885782518084602001fd5b8160405162461bcd60e51b81526004016106a59190612d9b565b6001600160e01b031981168114610fe257600080fd5b6000602082840312156122ca57600080fd5b813561074c816122a2565b60008083601f8401126122e757600080fd5b5081356001600160401b038111156122fe57600080fd5b6020830191508360208260051b8501011115611f2257600080fd5b6000806020838503121561232c57600080fd5b82356001600160401b0381111561234257600080fd5b61234e858286016122d5565b90969095509350505050565b6001600160a01b0381168114610fe257600080fd5b803561237a8161235a565b919050565b634e487b7160e01b600052604160045260246000fd5b6040516101a081016001600160401b03811182821017156123b8576123b861237f565b60405290565b604051601f8201601f191681016001600160401b03811182821017156123e6576123e661237f565b604052919050565b600082601f8301126123ff57600080fd5b81356001600160401b038111156124185761241861237f565b61242b601f8201601f19166020016123be565b81815284602083860101111561244057600080fd5b816020850160208301376000918101602001919091529392505050565b6000806000806080858703121561247357600080fd5b843561247e8161235a565b9350602085013561248e8161235a565b92506040850135915060608501356001600160401b038111156124b057600080fd5b6124bc878288016123ee565b91505092959194509250565b6000806000604084860312156124dd57600080fd5b8335925060208401356001600160401b03808211156124fb57600080fd5b818601915086601f83011261250f57600080fd5b81358181111561251e57600080fd5b87602082850101111561253057600080fd5b6020830194508093505050509250925092565b60008060006040848603121561255857600080fd5b83356001600160401b0381111561256e57600080fd5b61257a868287016122d5565b909450925050602084013561258e8161235a565b809150509250925092565b600080604083850312156125ac57600080fd5b82356125b78161235a565b946020939093013593505050565b6000602082840312156125d757600080fd5b813561074c8161235a565b6000602082840312156125f457600080fd5b5035919050565b60008083601f84011261260d57600080fd5b5081356001600160401b0381111561262457600080fd5b6020830191508360206101a083028501011115611f2257600080fd5b60008060006040848603121561265557600080fd5b83356001600160401b0381111561266b57600080fd5b612677868287016125fb565b909790965060209590950135949350505050565b6000806040838503121561269e57600080fd5b8235915060208301356126b08161235a565b809150509250929050565b600082601f8301126126cc57600080fd5b813560206001600160401b038211156126e7576126e761237f565b8160051b6126f68282016123be565b928352848101820192828101908785111561271057600080fd5b83870192505b8483101561225e57823582529183019190830190612716565b600080600080600060a0868803121561274757600080fd5b85356127528161235a565b945060208601356127628161235a565b935060408601356001600160401b038082111561277e57600080fd5b61278a89838a016126bb565b945060608801359150808211156127a057600080fd5b6127ac89838a016126bb565b935060808801359150808211156127c257600080fd5b506127cf888289016123ee565b9150509295509295909350565b600080600080600060a086880312156127f457600080fd5b85356127ff8161235a565b9450602086013561280f8161235a565b9350604086013592506060860135915060808601356001600160401b0381111561283857600080fd5b6127cf888289016123ee565b6000806000806060858703121561285a57600080fd5b84356001600160401b0381111561287057600080fd5b61287c878288016125fb565b90989097506020870135966040013595509350505050565b634e487b7160e01b600052603260045260246000fd5b634e487b7160e01b600052601160045260246000fd5b600082198211156128d3576128d36128aa565b500190565b6000600182016128ea576128ea6128aa565b5060010190565b6000808585111561290157600080fd5b8386111561290e57600080fd5b5050820193919092039150565b803560208310156105c457600019602084900360031b1b1692915050565b6000816000190483118215151615612953576129536128aa565b500290565b60008261297557634e487b7160e01b600052601260045260246000fd5b500490565b6020808252818101527f4f776e61626c653a2063616c6c6572206973206e6f7420746865206f776e6572604082015260600190565b60208082526027908201527f43616e63656c3a204d7573742070726f76696465206174206c65617374206f6e60408201526665206e6f6e636560c81b606082015260800190565b6020808252601f908201527f5265656e7472616e637947756172643a207265656e7472616e742063616c6c00604082015260600190565b600082821015612a3f57612a3f6128aa565b500390565b803560ff8116811461237a57600080fd5b8183526000602080850194508260005b85811015612b2f57612a8787612a7a8461236f565b6001600160a01b03169052565b612a9283830161236f565b6001600160a01b03168388015260408281013590880152606080830135908801526080808301359088015260a0808301359088015260c0808301359088015260e0808301359088015261010080830135908801526101208083013590880152610140612aff818401612a44565b60ff1690880152610160828101359088015261018080830135908801526101a09687019690910190600101612a65565b509495945050505050565b60006101008b83528a6020840152806040840152612b5b8184018a8c612a55565b60608401989098525050608081019490945260a084019290925260c083015260e090910152949350505050565b600060208284031215612b9a57600080fd5b5051919050565b604081526000612bb5604083018587612a55565b9050826020830152949350505050565b60006101a08284031215612bd857600080fd5b612be0612395565b612be98361236f565b8152612bf76020840161236f565b602082015260408301356040820152606083013560608201526080830135608082015260a083013560a082015260c083013560c082015260e083013560e0820152610100808401358183015250610120808401358183015250610140612c5e818501612a44565b908201526101608381013590820152610180928301359281019290925250919050565b600060208284031215612c9357600080fd5b61074c82612a44565b600060208284031215612cae57600080fd5b815161074c8161235a565b600060208284031215612ccb57600080fd5b8151801515811461074c57600080fd5b634e487b7160e01b600052602160045260246000fd5b60005b83811015612d0c578181015183820152602001612cf4565b8381111561081a5750506000910152565b60008151808452612d35816020860160208601612cf1565b601f01601f19169290920160200192915050565b8281526040602082015260006121306040830184612d1d565b60008251612d74818460208701612cf1565b9190910192915050565b600060208284031215612d9057600080fd5b815161074c816122a2565b60208152600061074c6020830184612d1d56fea26469706673582212205a1055be0067460fb1ab0a144a8c4c9f205ea02cd70c981a69d0428ed0dfea8364736f6c634300080d0033",
  "libraries": {
    "BuyOrderV1Functions": "0x4A474aEeC191569aab95A8e5CCB397dbbE20e373"
  },
  "devdoc": {
    "kind": "dev",
    "methods": {
      "changeProtocolFeeFraction(uint256)": {
        "params": {
          "_protocolFeeFraction": "new fee fraction (out of 10_000)"
        }
      },
      "changeProtocolFeeFractionFromSelling(uint256)": {
        "params": {
          "_protocolFeeFractionFromSelling": "new fee fraction (out of 10_000)"
        }
      },
      "changeProtocolFeeReceiver(address)": {
        "params": {
          "_protocolFeeReceiver": "new receiver"
        }
      },
      "changeminConsensusForSellingOverBuyPrice(uint256)": {
        "params": {
          "_minConsensusForSellingOverBuyPrice": "new min consensus (out of 10_000)"
        }
      },
      "changeminConsensusForSellingUnderOrEqualBuyPrice(uint256)": {
        "params": {
          "_minConsensusForSellingUnderOrEqualBuyPrice": "new min consensus (out of 10_000)"
        }
      },
      "onERC721Received(address,address,uint256,bytes)": {
        "details": "See {IERC721Receiver-onERC721Received}. Always returns `IERC721Receiver.onERC721Received.selector`."
      },
      "owner()": {
        "details": "Returns the address of the current owner."
      },
      "renounceOwnership()": {
        "details": "Leaves the contract without owner. It will not be possible to call `onlyOwner` functions anymore. Can only be called by the current owner. NOTE: Renouncing ownership will leave the contract without an owner, thereby removing any functionality that is only available to the owner."
      },
      "supportsInterface(bytes4)": {
        "details": "See {IERC165-supportsInterface}."
      },
      "transferOwnership(address)": {
        "details": "Transfers ownership of the contract to a new account (`newOwner`). Can only be called by the current owner."
      }
    },
    "version": 1
  },
  "userdoc": {
    "kind": "user",
    "methods": {
      "changeProtocolFeeFraction(uint256)": {
        "notice": "[onlyOwner] Change the protocol fee fraction"
      },
      "changeProtocolFeeFractionFromSelling(uint256)": {
        "notice": "[onlyOwner] Change the protocol fee fraction from selling"
      },
      "changeProtocolFeeReceiver(address)": {
        "notice": "[onlyOwner] Change the protocol fee receiver"
      },
      "changeminConsensusForSellingOverBuyPrice(uint256)": {
        "notice": "[onlyOwner] Change the min consensus for selling over or equal to buy price"
      },
      "changeminConsensusForSellingUnderOrEqualBuyPrice(uint256)": {
        "notice": "[onlyOwner] Change the min consensus for selling under buy price"
      },
      "executeOnPassiveBuyOrders((address,address,uint256,uint256,uint256,uint256,uint256,uint256,uint256,uint256,uint8,bytes32,bytes32)[],uint256,uint256)": {
        "notice": "Executes on an array of passive buy orders"
      }
    },
    "version": 1
  },
  "storageLayout": {
    "storage": [
      {
        "astId": 550,
        "contract": "contracts/ClowderMain.sol:ClowderMain",
        "label": "_owner",
        "offset": 0,
        "slot": "0",
        "type": "t_address"
      },
      {
        "astId": 4737,
        "contract": "contracts/ClowderMain.sol:ClowderMain",
        "label": "protocolFeeReceiver",
        "offset": 0,
        "slot": "1",
        "type": "t_address"
      },
      {
        "astId": 4740,
        "contract": "contracts/ClowderMain.sol:ClowderMain",
        "label": "protocolFeeFraction",
        "offset": 0,
        "slot": "2",
        "type": "t_uint256"
      },
      {
        "astId": 4743,
        "contract": "contracts/ClowderMain.sol:ClowderMain",
        "label": "protocolFeeFractionFromSelling",
        "offset": 0,
        "slot": "3",
        "type": "t_uint256"
      },
      {
        "astId": 4746,
        "contract": "contracts/ClowderMain.sol:ClowderMain",
        "label": "minConsensusForSellingOverBuyPrice",
        "offset": 0,
        "slot": "4",
        "type": "t_uint256"
      },
      {
        "astId": 4749,
        "contract": "contracts/ClowderMain.sol:ClowderMain",
        "label": "minConsensusForSellingUnderOrEqualBuyPrice",
        "offset": 0,
        "slot": "5",
        "type": "t_uint256"
      },
      {
        "astId": 764,
        "contract": "contracts/ClowderMain.sol:ClowderMain",
        "label": "_status",
        "offset": 0,
        "slot": "6",
        "type": "t_uint256"
      },
      {
        "astId": 4835,
        "contract": "contracts/ClowderMain.sol:ClowderMain",
        "label": "isUsedBuyNonce",
        "offset": 0,
        "slot": "7",
        "type": "t_mapping(t_address,t_mapping(t_uint256,t_bool))"
      },
      {
        "astId": 4841,
        "contract": "contracts/ClowderMain.sol:ClowderMain",
        "label": "isUsedSellNonce",
        "offset": 0,
        "slot": "8",
        "type": "t_mapping(t_address,t_mapping(t_uint256,t_bool))"
      },
      {
        "astId": 4847,
        "contract": "contracts/ClowderMain.sol:ClowderMain",
        "label": "realContributions",
        "offset": 0,
        "slot": "9",
        "type": "t_mapping(t_address,t_mapping(t_uint256,t_uint256))"
      },
      {
        "astId": 4852,
        "contract": "contracts/ClowderMain.sol:ClowderMain",
        "label": "executions",
        "offset": 0,
        "slot": "10",
        "type": "t_mapping(t_uint256,t_struct(Execution)6056_storage)"
      }
    ],
    "types": {
      "t_address": {
        "encoding": "inplace",
        "label": "address",
        "numberOfBytes": "20"
      },
      "t_bool": {
        "encoding": "inplace",
        "label": "bool",
        "numberOfBytes": "1"
      },
      "t_bytes32": {
        "encoding": "inplace",
        "label": "bytes32",
        "numberOfBytes": "32"
      },
      "t_mapping(t_address,t_mapping(t_uint256,t_bool))": {
        "encoding": "mapping",
        "key": "t_address",
        "label": "mapping(address => mapping(uint256 => bool))",
        "numberOfBytes": "32",
        "value": "t_mapping(t_uint256,t_bool)"
      },
      "t_mapping(t_address,t_mapping(t_uint256,t_uint256))": {
        "encoding": "mapping",
        "key": "t_address",
        "label": "mapping(address => mapping(uint256 => uint256))",
        "numberOfBytes": "32",
        "value": "t_mapping(t_uint256,t_uint256)"
      },
      "t_mapping(t_uint256,t_bool)": {
        "encoding": "mapping",
        "key": "t_uint256",
        "label": "mapping(uint256 => bool)",
        "numberOfBytes": "32",
        "value": "t_bool"
      },
      "t_mapping(t_uint256,t_struct(Execution)6056_storage)": {
        "encoding": "mapping",
        "key": "t_uint256",
        "label": "mapping(uint256 => struct Execution)",
        "numberOfBytes": "32",
        "value": "t_struct(Execution)6056_storage"
      },
      "t_mapping(t_uint256,t_uint256)": {
        "encoding": "mapping",
        "key": "t_uint256",
        "label": "mapping(uint256 => uint256)",
        "numberOfBytes": "32",
        "value": "t_uint256"
      },
      "t_struct(Execution)6056_storage": {
        "encoding": "inplace",
        "label": "struct Execution",
        "members": [
          {
            "astId": 6039,
            "contract": "contracts/ClowderMain.sol:ClowderMain",
            "label": "collection",
            "offset": 0,
            "slot": "0",
            "type": "t_address"
          },
          {
            "astId": 6041,
            "contract": "contracts/ClowderMain.sol:ClowderMain",
            "label": "buyPrice",
            "offset": 0,
            "slot": "1",
            "type": "t_uint256"
          },
          {
            "astId": 6043,
            "contract": "contracts/ClowderMain.sol:ClowderMain",
            "label": "tokenId",
            "offset": 0,
            "slot": "2",
            "type": "t_uint256"
          },
          {
            "astId": 6045,
            "contract": "contracts/ClowderMain.sol:ClowderMain",
            "label": "sold",
            "offset": 0,
            "slot": "3",
            "type": "t_bool"
          },
          {
            "astId": 6047,
            "contract": "contracts/ClowderMain.sol:ClowderMain",
            "label": "sellPrice",
            "offset": 0,
            "slot": "4",
            "type": "t_uint256"
          },
          {
            "astId": 6049,
            "contract": "contracts/ClowderMain.sol:ClowderMain",
            "label": "listingEndTime",
            "offset": 0,
            "slot": "5",
            "type": "t_uint256"
          },
          {
            "astId": 6051,
            "contract": "contracts/ClowderMain.sol:ClowderMain",
            "label": "sellProtocolFee",
            "offset": 0,
            "slot": "6",
            "type": "t_uint256"
          },
          {
            "astId": 6053,
            "contract": "contracts/ClowderMain.sol:ClowderMain",
            "label": "openSeaOrderHash",
            "offset": 0,
            "slot": "7",
            "type": "t_bytes32"
          },
          {
            "astId": 6055,
            "contract": "contracts/ClowderMain.sol:ClowderMain",
            "label": "looksRareOrderHash",
            "offset": 0,
            "slot": "8",
            "type": "t_bytes32"
          }
        ],
        "numberOfBytes": "288"
      },
      "t_uint256": {
        "encoding": "inplace",
        "label": "uint256",
        "numberOfBytes": "32"
      }
    }
  }
}